S018000046696C616D656E74426F78426F6172642E73726563CB
S113000081C000009FC000009DC000009BC0000094
S113001099C0000097C0000095C0000093C0000084
S113002091C000008FC000008DC000008BC0000094
S113003089C0000087C0000085C0000083C00000A4
S113004081C000008DC100007DC000007BC00000A5
S113005079C00000F5C1000075C0000073C0000045
S113006071C000006FC000006DC000006BC00000D4
S113007069C0000045C3000065C0000063C0000003
S113008061C000005FC000005DC000005BC00000F4
S113009059C0000057C0000055C0000053C0000004
S11300A051C000004FC000004DC000004BC0000014
S11300B049C0000047C0000045C0000043C0000024
S11300C041C000003FC000003DC00000C9C50000A1
S11300D0FAC4000037C0000035C0000033C000007F
S11300E031C000001F1B1F1B0B1B101B1F1B151BEC
S11300F01F1B1F1B1F1B1F1B1F1B1F1B1F1B1F1B2C
S11301001F1B1A1B11241FBECFEFD1E2DEBFCDBFD0
S113011000E00CBF17E0A0E0B2E0ECEEF6E500E092
S11301200BBF02C007900D92A439B107D9F72BE099
S1130130A4E9B7E001C01D92A037B207E1F7BBD331
S11301400C94742B5DCFCF93DF93CDB7DEB71BD068
S113015013D0BAD0E0D08091000290910102A09116
S11301600202B0910302BC01CD013FD40E94361EAD
S11301707894DF91CF910895CF93DF93CDB7DEB715
S1130180DF91CF910895CF93DF93CDB7DEB781E2AE
S113019090E0FC01808181E290E02FEFFC0120835C
S11301A082E290E0FC01808182E290E0FC01108216
S11301B084E290E024E230E0F9012081216FFC0127
S11301C0208385E290E025E230E0F90120812E7061
S11301D0FC01208387E290E0FC01808187E290E0CB
S11301E02FEFFC01208388E290E0FC01808188E20B
S11301F090E0FC0110828AE290E0FC0180818AE2B6
S113020090E02FEFFC0120838BE290E0FC018081E1
S11302108BE290E0FC0110828DE290E0FC01808191
S11302208DE290E02FEFFC0120838EE290E0FC0150
S113023080818EE290E0FC01108283E390E0FC0177
S1130240808183E390E02FEFFC01208384E390E03E
S1130250FC01808184E390E0FC01108281E091E064
S1130260FC01808181E091E02FEFFC01208382E09A
S113027091E0FC01808182E091E0FC01108284E045
S113028091E0FC01808184E091E02FEFFC01208368
S113029085E091E0FC01808185E091E0FC01108221
S11302A08AE091E0FC0180818AE091E02FEFFC017B
S11302B020838BE091E0FC0180818BE091E0FC01E4
S11302C01082DF91CF910895CF93DF93CDB7DEB73E
S11302D084E490E024E430E0F90120812260FC0110
S11302E0208385E490E025E430E0F9012081236057
S11302F0FC01208387E490E020E4FC0120838EE667
S113030090E02EE630E0F90120812260FC01208398
S1130310DF91CF910895CF93DF93CDB7DEB781E816
S113032090E021E830E0F90120812860FC0120837D
S113033081E890E021E830E0F90120812360FC01AC
S1130340208388E890E029EF30E0FC0131832083AA
S11303508FE690E022E0FC012083DF91CF910895A5
S11303601F920F9200905F000F9211248F939F931E
S1130370AF93BF93CF93DF931F921F92CDB7DEB796
S11303808091940790919507A0919607B091970753
S11303900196A11DB11D8093940790939507A09396
S11303A09607B093970780919807909199079A833D
S11303B0898389819A81892B59F089819A8101974E
S11303C09A83898389819A81909399078093980766
S11303D080919A0790919B079A83898389819A8156
S11303E0892B59F089819A8101979A83898389811C
S11303F09A8190939B0780939A0780919C07909190
S11304009D079A83898389819A81892B59F08981EF
S11304109A8101979A83898389819A8190939D0710
S113042080939C070F900F90DF91CF91BF91AF9174
S11304309F918F910F9000925F000F901F901895DD
S11304401F920F9200905F000F92112400905B00A6
S11304500F922F933F938F939F93EF93FF93CF9399
S1130460DF93CDB7DEB787E490E027E430E0F9010D
S11304702081205CFC0120838091A007882309F05F
S113048066C08091B2078093A1078091A107882359
S113049049F08BE091E02BE031E0F901208120610B
S11304A0FC0120838091B3078093A2078091A20767
S11304B0882349F08BE091E02BE031E0F9012081C1
S11304C02062FC0120838091B4078093A30780916C
S11304D0A307882349F08EE290E02EE230E0F90190
S11304E020812061FC0120838091B5078093A407BB
S11304F08091A407882349F08EE290E02EE230E058
S1130500F90120812860FC0120838091B607809343
S1130510A5078091A507882349F084E390E024E3AC
S113052030E0F90120812062FC0120838091B7072B
S11305308093A6078091A607882349F08BE091E079
S11305402BE031E0F90120812860FC0120838091B7
S1130550A707882311F58091C20A8093A807809188
S1130560A807882349F085E091E025E031E0F9010E
S113057020812068FC0120838091C40A8093A9070C
S11305808091A907882349F085E290E025E230E0D4
S1130590F90120812068FC0120839091A1078091BA
S11305A0A007981769F48091A1078F3F49F08BE069
S11305B091E02BE031E0F90120812F7EFC012083C2
S11305C09091A8078091A707981769F48091A807CC
S11305D08F3F49F085E091E025E031E0F901208189
S11305E02F77FC0120839091A2078091A007981790
S11305F069F48091A2078F3F49F08BE091E02BE0F2
S113060031E0F90120812F7DFC0120839091A9071D
S11306108091A707981769F48091A9078F3F49F043
S113062085E290E025E230E0F90120812F77FC019A
S113063020839091A3078091A007981769F4809173
S1130640A3078F3F49F08EE290E02EE230E0F901FB
S113065020812F7EFC0120839091A4078091A00724
S1130660981769F48091A4078F3F49F08EE290E0D7
S11306702EE230E0F9012081277FFC012083909154
S1130680A5078091A007981769F48091A5078F3F6B
S113069049F084E390E024E330E0F90120812F7DE8
S11306A0FC0120839091A6078091A007981769F414
S11306B08091A6078F3F49F08BE091E02BE031E079
S11306C0F9012081277FFC0120838091A7078F5F98
S11306D08093A7078091A0078F5F8093A007DF9185
S11306E0CF91FF91EF919F918F913F912F910F9017
S11306F000925B000F9000925F000F901F9018957E
S11307001F920F9200905F000F92112400905B00E3
S11307100F922F933F934F935F938F939F93EF93F6
S1130720FF93CF93DF931F921F92CDB7DEB788E775
S113073090E0FC012081318180919F07882F90E017
S113074040919F07442F50E0440F551F4253584F88
S1130750FA0140815181240F351F880F991F82535C
S1130760984FFC013183208380919F07882F90E06C
S11307709C012754384FF901208141E0420F9C012C
S11307802754384FF90140838754984FFC018081E6
S1130790803208F472C080919F07882F90E02091E6
S11307A09F07222F30E0220F331F2253384FF901C5
S11307B0208131813695279536952795369527954D
S11307C0880F991F8054984FFC01318320838091B6
S11307D09F07882F90E0880F991F8253984FFC0140
S11307E01182108280919F07882F90E08754984F40
S11307F0FC01108280919F078F5F80939F078091F7
S11308009F07873010F010929F0780919F07282F31
S113081030E042E4429FC001439F900D11248A506E
S1130820974FFC01808189838981882F90E08870AB
S11308309927892B51F08BE790E02BE730E0F90101
S113084020812860FC01208309C08BE790E02BE71E
S113085030E0F9012081277FFC0120838CE790E0C0
S1130860FC018081982F907E89818770892B8A83EF
S11308708CE790E02A81FC0120838AE790E02AE754
S113088030E0F90120812064FC0120830F900F9057
S1130890DF91CF91FF91EF919F918F915F914F9154
S11308A03F912F910F9000925B000F9000925F0098
S11308B00F901F901895CF93DF93CDB7DEB781ECDF
S11308C09AE11DD040DC0E94701F88EE93E0909363
S11308D09D0780939C0783EB98E024D00E94251BFE
S11308E080919C0790919D07892B41F40E946C2272
S11308F088EE93E090939D0780939C07ECCFCF9371
S1130900DF931F921F92CDB7DEB79A8389838981C3
S11309109A819093AB078093AA070F900F90DF9171
S1130920CF910895CF93DF931F921F92CDB7DEB777
S11309309A8389838091DD078823B1F08091AA0787
S11309409091AB07892B61F089819A8122D1209102
S1130950AA073091AB0789819A81F901199504C0DE
S113096080917208809371080F900F90DF91CF915E
S11309700895CF93DF931F921F92CDB7DEB78A837A
S113098019828A81803338F08A818A3320F48A81FB
S11309908053898309C08A81813430F08A81873405
S11309A018F48A818753898389810F900F90DF918E
S11309B0CF910895CF93DF931F92CDB7DEB789838C
S11309C089818A3020F48981805D898309C0898185
S11309D08A3030F08981803118F48981895C898377
S11309E089810F90DF91CF910895CF93DF93CDB795
S11309F0DEB72A970FB6F894DEBF0FBECDBF6B8368
S1130A007C838D839E8380E492E4AFE0B0E02B810D
S1130A103C814D815E81BC01CD010E94152BDA0120
S1130A20C90101979A83898385ED90E029813A81F0
S1130A30232F3327FC01208384ED90E02981FC01DE
S1130A40208381ED90E021ED30E0F90120812869D7
S1130A50FC01208382ED90E026E0FC0120832A96AD
S1130A600FB6F894DEBF0FBECDBFDF91CF910895CE
S1130A70CF93DF931F921F92CDB7DEB78A83809105
S1130A80DC078F5F8F77898300008091F00799815D
S1130A909817D9F38981882F90E08F50984F2A8135
S1130AA0FC01208389818093DC0781ED90E021EDB6
S1130AB030E0F90120812062FC0120830F900F9027
S1130AC0DF91CF9108951F920F9200905F000F92D3
S1130AD0112400905B000F922F933F938F939F9369
S1130AE0EF93FF93CF93DF93CDB7DEB79091DC07FD
S1130AF08091F007981799F08091F0078F5F8F77B6
S1130B008093F00786ED90E02091F007222F30E0EB
S1130B102F50384FF9012081FC01208309C081ED59
S1130B2090E021ED30E0F90120812F7DFC0120834C
S1130B30DF91CF91FF91EF919F918F913F912F91F1
S1130B400F9000925B000F9000925F000F901F9037
S1130B501895CF93DF93CDB7DEB79091710880914C
S1130B607208981719F48FEF9FEF10C080917208E4
S1130B708F5F8F738093720880917208882F90E042
S1130B808D58974FFC018081882F90E0DF91CF91A1
S1130B900895FF920F931F93CF93DF93CDB7DEB7E2
S1130BA028970FB6F894DEBF0FBECDBF98878F830A
S1130BB08F8198859D838C8319821A821B828F81F1
S1130BC09885019698878F838091DD078823D1F1DA
S1130BD02AC08E818D3009F42BC089818823E9F0E5
S1130BE08A818823B9F08B818F5F8B830F8118856D
S1130BF0C801019698878F838A81BBDEF82EFF0C8B
S1130C00FF0CFF0CFF0C8E81B4DE8F0DF801808386
S1130C101A8209C08E818A8306C08E818A3319F4B0
S1130C2081E089831A8295DF8E838E81882389F6F9
S1130C308C819D812B81FC0120838091DD07815073
S1130C408093DD078C819D8128960FB6F894DEBFD2
S1130C500FBECDBFDF91CF911F910F91FF900895EB
S1130C601F920F9200905F000F92112400905B007E
S1130C700F920F931F938F939F93EF93FF93CF93B1
S1130C80DF93CDB7DEB786ED90E0FC010081809163
S1130C9071088F5F182F1F7380917208181729F439
S1130CA080917208809371081AC0802F90E08A3076
S1130CB09105A1F08D30910519F0892B79F005C0CB
S1130CC08091DD078F5F8093DD0710937108812F7A
S1130CD090E08D58974FFC01008301C00000DF9124
S1130CE0CF91FF91EF919F918F911F910F910F9051
S1130CF000925B000F9000925F000F901F90189578
S1130D00CF93DF9300D01F921F92CDB7DEB79C83A1
S1130D108B836D83198281E08A830FC08A81882F37
S1130D2090E02B813C81820F931FFC01808199818B
S1130D30890F89838A818F5F8A839A818D8198172D
S1130D4068F3898181950F900F900F900F900F9009
S1130D50DF91CF910895CF93DF9300D000D0CDB72A
S1130D60DEB79E838D838D819E819C0140E050E09F
S1130D708091940790919507A0919607B091970759
S1130D80820F931FA41FB51F89839A83AB83BC83EF
S1130D90000029813A814B815C8180919407909174
S1130DA09507A0919607B091970782179307A40718
S1130DB0B50778F326960FB6F894DEBF0FBECDBF05
S1130DC0DF91CF910895CF93DF9300D0CDB7DEB7F5
S1130DD08B838B8182958F708983998180EF989F13
S1130DE0902D11248B81890F8A838981E3DD898386
S1130DF08A81E0DD8A8389813BDE8A8139DE0F9036
S1130E000F900F90DF91CF9108951F93CF93DF93AD
S1130E1000D0CDB7DEB79B838A838AE329DE1982AB
S1130E200FC08981882F90E001962A813B81820F2F
S1130E30931FFC011081812FC6DF89818F5F898315
S1130E408A819B81FC0190818981891750F38DE00F
S1130E500FDE8AE00DDE82E090E07DDF0F900F90E0
S1130E600F90DF91CF911F910895CF93DF9300D01E
S1130E7000D0CDB7DEB79E838D838D819E81FC012A
S1130E808081882F90E002972D813E81820F931FED
S1130E90FC018081882F90E0382F22278D819E814C
S1130EA0FC018081882F90E001974D815E81840F41
S1130EB0951FFC018081882F90E0820F931F9A83F5
S1130EC089838D819E810396FC018081882F90E027
S1130ED0382F22278D819E810496FC018081882FE2
S1130EE090E0820F931F9C838B838B819C81813143
S1130EF0F4E09F0709F4CDC4823124E0920708F09E
S1130F00C5C0893FE3E09E0709F4ADC28A3FF3E020
S1130F109F0708F05FC08E3E23E0920709F431C2B8
S1130F208F3EE3E09E0750F5893EF3E09F0709F406
S1130F30C6C18A3E23E0920768F48436910509F419
S1130F4097C1883EE3E09E0709F4B5C1019709F40F
S1130F505FC161C68B3EF3E09F0709F4D2C18B3EAB
S1130F6023E0920708F4AFC18C3EE3E09E0709F446
S1130F70E6C18D3E934009F400C24DC6843F23E090
S1130F80920709F40EC2853FE3E09E0778F4823F9E
S1130F90F3E09F0709F4FDC1833F23E0920708F0C3
S1130FA0FCC18F3E934009F4F0C135C6863FF3E09F
S1130FB09F0709F432C2863F23E0920708F40FC268
S1130FC0873FE3E09E0709F446C2883F934009F453
S1130FD046C221C6863024E0920709F4E8C387306C
S1130FE0E4E09E0760F58F3FF3E09F0709F4CEC26B
S1130FF0811524E0920778F48D3FE3E09E0709F41D
S113100043C28E3FF3E09F0708F04BC28C3F9340EE
S113101009F42DC200C68130E4E09E0709F4A0C3A0
S11310208130F4E09F0708F426C3823024E092075D
S113103009F4A3C38330944009F4ACC3ECC58A30EB
S1131040F4E09F0709F4F7C38B3024E0920750F4CF
S11310508830E4E09E0709F4B2C38930944008F074
S1131060CCC3A9C38C3024E0920709F406C48C30A5
S1131070E4E09E0708F4FDC38D30F4E09F0709F413
S113108000C48031944009F400C4C5C58732E4E04B
S11310909E0709F4FCC48832F4E09F0708F05BC0A3
S11310A08C3124E0920709F466C48D31E4E09E0794
S11310B038F58531F4E09F0709F449C4863124E00A
S11310C0920750F48331E4E09E0709F404C48431A8
S11310D0944008F01EC4E1C3873124E0920709F468
S11310E03EC48731E4E09E0708F435C48A31F4E055
S11310F09F0709F438C48B31944009F438C48BC574
S11311008032E4E09E0709F494C48132F4E09F073E
S113111050F48E3124E0920709F469C48F3194406D
S113112008F083C446C48432F4E09F0709F489C4F8
S1131130853224E0920728F48132944009F47DC476
S11311406AC58532F4E09F0709F47FC4863294406F
S113115009F47FC460C58233E4E09E0709F423C523
S11311608333F4E09F0758F58B3224E0920709F4A7
S1131170D2C48C32E4E09E0750F48932F4E09F0735
S113118009F4C1C48A32944008F0C1C49EC48F32A9
S1131190E4E09E0709F4C7C48033F4E09F0728F411
S11311A08E32944009F4BBC436C58033E4E09E0714
S11311B009F4BDC48133944009F4D7C42CC58032EA
S11311C02EE4920741F18132EEE49E0778F48433F1
S11311D0F4E09F0709F409C5843324E0920708F476
S11311E000C58533944009F404C515C58232FEE474
S11311F09F0709F182322EE49207A8F08438EEE4C6
S11312009E0709F4FAC48E389E4409F4FDC403C54C
S11312100E94381B00C589819A81BC0183EF98E044
S11312200E947D1BF8C489819A81BC0185E399E001
S11312300E947D1BF0C489819A81BC0187E799E0F3
S11312400E947D1B89819A81BC0189EB99E00E94EF
S11312507D1B89819A81BC018BEF99E00E947D1BE3
S113126089819A81BC018DE39AE00E947D1BD3C4DD
S113127089819A8180789927892B59F080919E07DA
S11312808F7380939E0780919E07806880939E074A
S113129011C089819A8180749927892B59F0809192
S11312A09E078F7380939E0780919E07806480932E
S11312B09E07B1C4B0C489818093F508ACC4898108
S11312C080930709A8C489819A81CC01A0E0B0E089
S11312D0BC01CD010E94ED29DC01CB0120E030E00E
S11312E048EC52E4BC01CD010E945429DC01CB013D
S11312F080930E0990930F09A0931009B0931109DC
S11313008AC489819A81CC01A0E0B0E0BC01CD01FE
S11313100E94ED29DC01CB0120E030E048EC52E4EE
S1131320BC01CD010E945429DC01CB018093120938
S113133090931309A0931409B09315096CC489817F
S11313409A81CC01A0E0B0E0BC01CD010E94ED295E
S1131350DC01CB0120E030E048EC52E4BC01CD01DB
S11313600E945429DC01CB0180931609909317093C
S1131370A0931809B09319094EC4898180930C096C
S11313804AC4898180930D0946C4898180931A09CE
S113139042C48981809337093EC489818093490975
S11313A03AC489819A81CC01A0E0B0E0BC01CD01AE
S11313B00E94ED29DC01CB0120E030E048EC52E44E
S11313C0BC01CD010E945429DC01CB01809350095A
S11313D090935109A0935209B09353091CC4898175
S11313E09A81CC01A0E0B0E0BC01CD010E94ED29BE
S11313F0DC01CB0120E030E048EC52E4BC01CD013B
S11314000E945429DC01CB0180935409909355091F
S1131410A0935609B0935709FEC389819A81CC01E0
S1131420A0E0B0E0BC01CD010E94ED29DC01CB01BC
S113143020E030E048EC52E4BC01CD010E94542984
S1131440DC01CB018093580990935909A0935A0960
S1131450B0935B09E0C3898180934E09DCC3898121
S113146080934F09D8C3898180935C09D4C389814F
S11314708093790989818093BB0989818093FD09CF
S1131480898180933F0AC7C3898180938B098981AD
S11314908093CD09898180930F0A89818093510AB1
S11314A0BAC389819A81CC01A0E0B0E0BC01CD012E
S11314B00E94ED29DC01CB0120E030E048EC52E44D
S11314C0BC01CD010E945429DC01CB018093960913
S11314D090939709A0939809B093990989819A8167
S11314E0CC01A0E0B0E0BC01CD010E94ED29DC01FB
S11314F0CB0120E030E048EC52E4BC01CD010E9475
S11315005429DC01CB018093D8099093D909A09385
S1131510DA09B093DB0989819A81CC01A0E0B0E0BB
S1131520BC01CD010E94ED29DC01CB0120E030E0BB
S113153048EC52E4BC01CD010E945429DC01CB01EA
S113154080931A0A90931B0AA0931C0AB0931D0A55
S113155089819A81CC01A0E0B0E0BC01CD010E9458
S1131560ED29DC01CB0120E030E048EC52E4BC0181
S1131570CD010E945429DC01CB0180935C0A909335
S11315805D0AA0935E0AB0935F0A45C389819A817C
S1131590CC01A0E0B0E0BC01CD010E94ED29DC014A
S11315A0CB0120E030E048EC52E4BC01CD010E94C4
S11315B05429DC01CB018093960990939709A09359
S11315C09809B093990989819A81CC01A0E0B0E08F
S11315D0BC01CD010E94ED29DC01CB0120E030E00B
S11315E048EC52E4BC01CD010E945429DC01CB013A
S11315F08093D8099093D909A093DA09B093DB09B1
S113160089819A81CC01A0E0B0E0BC01CD010E94A7
S1131610ED29DC01CB0120E030E048EC52E4BC01D0
S1131620CD010E945429DC01CB0180931A0A9093C6
S11316301B0AA0931C0AB0931D0A89819A81CC01CC
S1131640A0E0B0E0BC01CD010E94ED29DC01CB019A
S113165020E030E048EC52E4BC01CD010E94542962
S1131660DC01CB0180935C0A90935D0AA0935E0A2F
S1131670B0935F0AD0C289819A81CC01A0E0B0E026
S1131680BC01CD010E94ED29DC01CB0120E030E05A
S113169048EC52E4BC01CD010E945429DC01CB0189
S11316A080939A0990939B09A0939C09B0939D09F8
S11316B089819A81CC01A0E0B0E0BC01CD010E94F7
S11316C0ED29DC01CB0120E030E048EC52E4BC0120
S11316D0CD010E945429DC01CB018093DC09909355
S11316E0DD09A093DE09B093DF0989819A81CC01D9
S11316F0A0E0B0E0BC01CD010E94ED29DC01CB01EA
S113170020E030E048EC52E4BC01CD010E945429B1
S1131710DC01CB0180931E0A90931F0AA093200A38
S1131720B093210A89819A81CC01A0E0B0E0BC0188
S1131730CD010E94ED29DC01CB0120E030E048EC32
S113174052E4BC01CD010E945429DC01CB018093F9
S1131750600A9093610AA093620AB093630A5BC221
S113176089818093900989818093D20989818093AA
S1131770140A89818093560A4EC289818093910903
S113178089818093D30989818093150A8981809303
S1131790570A41C2898180939E0989818093E00917
S11317A089818093220A89818093640A34C2898161
S11317B08093810A30C289818093930A2CC28981E3
S11317C09A81CC01A0E0B0E0BC01CD010E94ED29DA
S11317D0DC01CB0120E030E048EC52E4BC01CD0157
S11317E00E945429DC01CB0180939A0A90939B0AAE
S11317F0A0939C0AB0939D0A0EC289819A81CC0160
S1131800A0E0B0E0BC01CD010E94ED29DC01CB01D8
S113181020E030E048EC52E4BC01CD010E945429A0
S1131820DC01CB0180939E0A90939F0AA093A00AA7
S1131830B093A10AF0C189819A81CC01A0E0B0E003
S1131840BC01CD010E94ED29DC01CB0120E030E098
S113185048EC52E4BC01CD010E945429DC01CB01C7
S11318608093A20A9093A30AA093A40AB093A50A12
S1131870D2C189818093980ACEC189818093990AC3
S1131880CAC189818093A60AC6C1898180937909D6
S1131890C2C1898180938B09BEC189819A81CC019F
S11318A0A0E0B0E0BC01CD010E94ED29DC01CB0138
S11318B020E030E048EC52E4BC01CD010E94542900
S11318C0DC01CB018093920990939309A09394092E
S11318D0B0939509A0C189819A81CC01A0E0B0E0C0
S11318E0BC01CD010E94ED29DC01CB0120E030E0F8
S11318F048EC52E4BC01CD010E945429DC01CB0127
S11319008093960990939709A0939809B0939909A5
S113191082C189819A81CC01A0E0B0E0BC01CD01F3
S11319200E94ED29DC01CB0120E030E048EC52E4D8
S1131930BC01CD010E945429DC01CB0180939A099A
S113194090939B09A0939C09B0939D0964C18981DC
S11319508093900960C18981809391095CC18981D8
S113196080939E0958C189818093BB0954C18981A0
S11319708093CD0950C189819A81CC01A0E0B0E067
S1131980BC01CD010E94ED29DC01CB0120E030E057
S113199048EC52E4BC01CD010E945429DC01CB0186
S11319A08093D4099093D509A093D609B093D7090D
S11319B032C189819A81CC01A0E0B0E0BC01CD01A3
S11319C00E94ED29DC01CB0120E030E048EC52E438
S11319D0BC01CD010E945429DC01CB018093D809BC
S11319E09093D909A093DA09B093DB0914C18981D2
S11319F09A81CC01A0E0B0E0BC01CD010E94ED29A8
S1131A00DC01CB0120E030E048EC52E4BC01CD0124
S1131A100E945429DC01CB018093DC099093DD09F9
S1131A20A093DE09B093DF09F6C089818093D209BF
S1131A30F2C089818093D309EEC089818093E00943
S1131A40EAC089818093FD09E6C0898180930F0AE9
S1131A50E2C089819A81CC01A0E0B0E0BC01CD0153
S1131A600E94ED29DC01CB0120E030E048EC52E497
S1131A70BC01CD010E945429DC01CB018093160ADC
S1131A809093170AA093180AB093190AC4C08981C5
S1131A909A81CC01A0E0B0E0BC01CD010E94ED2907
S1131AA0DC01CB0120E030E048EC52E4BC01CD0184
S1131AB00E945429DC01CB0180931A0A90931B0ADB
S1131AC0A0931C0AB0931D0AA6C089819A81CC01F7
S1131AD0A0E0B0E0BC01CD010E94ED29DC01CB0106
S1131AE020E030E048EC52E4BC01CD010E945429CE
S1131AF0DC01CB0180931E0A90931F0AA093200A55
S1131B00B093210A88C089818093140A84C0898192
S1131B108093150A80C089818093220A7CC08981C0
S1131B2080933F0A78C089818093510A74C0898167
S1131B309A81CC01A0E0B0E0BC01CD010E94ED2966
S1131B40DC01CB0120E030E048EC52E4BC01CD01E3
S1131B500E945429DC01CB018093580A9093590ABE
S1131B60A0935A0AB0935B0A56C089819A81CC012A
S1131B70A0E0B0E0BC01CD010E94ED29DC01CB0165
S1131B8020E030E048EC52E4BC01CD010E9454292D
S1131B90DC01CB0180935C0A90935D0AA0935E0AFA
S1131BA0B0935F0A38C089819A81CC01A0E0B0E08B
S1131BB0BC01CD010E94ED29DC01CB0120E030E025
S1131BC048EC52E4BC01CD010E945429DC01CB0154
S1131BD08093600A9093610AA093620AB093630AA7
S1131BE01AC089818093560A16C089818093570A46
S1131BF012C089818093640A0EC089819A8190936E
S1131C005B0B80935A0B07C089819A8190936A0B6E
S1131C108093690B00008D819E81F7D881E0269620
S1131C200FB6F894DEBF0FBECDBFDF91CF910895FC
S1131C300F931F93CF93DF93CDB7DEB765970FB69E
S1131C40F894DEBF0FBECDBF9D8B8C8B8C899D8994
S1131C500596FC018081882F90E0382F22278C89FB
S1131C609D890696FC018081882F90E0820F931F46
S1131C709F838E838C899D890396FC018081882FA4
S1131C8090E0382F22278C899D890496FC0180815D
S1131C90882F90E0820F931F998788871B861A8666
S1131CA080E090E0A8E4B2E48C879D87AE87BF878C
S1131CB0198A188A19821B821A821B8A1A8A1C8220
S1131CC010924B0B10924C0B10924D0B10924E0B2A
S1131CD010924F0B1092500B1092510B1D82CEC0DC
S1131CE08D81282F30E088859985820F931F853F49
S1131CF0F1E09F07A1F1863F21E0920709F47CC03F
S1131D00843F914009F0B4C08C81882F90E00896FC
S1131D109C018C899D89820F931FFC018081882FEF
S1131D2090E0982F88279B878A878C818F5F8C838C
S1131D308C81882F90E008969C018C899D89820F64
S1131D40931FFC018081882F90E02A853B85822B9C
S1131D50932B9B878A878A8580934B0B89C08C81C0
S1131D60882F90E008969C018C899D89820F931F8F
S1131D70FC018081882F90E0982F88279B8B8A8B89
S1131D808C818F5F8C838C81882F90E008969C01D6
S1131D908C899D89820F931FFC018081882F90E09C
S1131DA02A893B89822B932B9B8B8A8B8A899B89DB
S1131DB0CC01A0E0B0E0BC01CD010E94ED29DC0122
S1131DC0CB0120E030E048EC52E4BC01CD010E949C
S1131DD05429DC01CB018C879D87AE87BF878C8516
S1131DE09D85AE85BF8580934C0B90934D0BA0933E
S1131DF04E0BB0934F0B3CC08C81882F90E008961B
S1131E009C018C899D89820F931FFC018081882FFE
S1131E1090E0982F88279B838A838C818F5F8C83A3
S1131E208C81882F90E008969C018C899D89820F73
S1131E30931FFC018081882F90E02A813B81822BB3
S1131E40932B9B838A838A819B8199233CF481E031
S1131E5089838A819B819F779B838A838A818093EC
S1131E60500B89818093510B81E08093AC07000073
S1131E708C818F5F8C838D818F5F8D838D81282FE3
S1131E8030E08E819F812817390708F429CF8C8987
S1131E909D8927E0FC0120838C899D89FC01808138
S1131EA0882F90E02C893D898901080F191F8C899E
S1131EB09D89FC0120818C899D89622F0E94800666
S1131EC0F80180838C899D890E94050781E06596CD
S1131ED00FB6F894DEBF0FBECDBFDF91CF911F9137
S1131EE00F910895CF93DF93CDB7DEB729970FB63F
S1131EF0F894DEBF0FBECDBF9D838C837F836E833A
S1131F00598748878C819D81892F992789838E8160
S1131F109F81FC0180818A838A818F5F8A838A8181
S1131F20882F90E0039628853985820F931F298195
S1131F30FC0120838C818B838A818F5F8A838A81D1
S1131F40882F90E0039628853985820F931F2B8173
S1131F50FC0120838E819F812A81FC0120832996A4
S1131F600FB6F894DEBF0FBECDBFDF91CF910895B9
S1131F70EF92FF920F931F93CF93DF93CDB7DEB70A
S1131F802E970FB6F894DEBF0FBECDBF9E878D8708
S1131F908D859E85FC018081882F90E001972D8599
S1131FA03E85820F931FFC018081882F90E09B83E4
S1131FB08A838D859E850396FC018081882F90E01D
S1131FC0382F22278D859E850496FC018081882FD9
S1131FD090E0820F931F9D838C831C861F821E8238
S1131FE0188619861A861B8619820C94831A89818D
S1131FF0282F30E08C819D81820F931F8A31F4E079
S11320009F0709F48DC78B3124E0920708F001C1C2
S11320108F3FE3E09E0709F4A5C58115F4E09F070F
S113202008F07EC0823F23E0920709F481C4833F15
S1132030E3E09E07C0F58B3EF3E09F0709F4F2C38B
S11320408C3E23E09207D0F4883EE3E09E0709F437
S11320509FC3893EF3E09F0730F48835924009F42A
S113206072C30C94801A893EE3E09E0709F49CC372
S11320708A3E934009F4A5C30C94801A8D3E23E054
S1132080920709F431C48D3EE3E09E0708F4FBC3D4
S11320908E3EF3E09F0709F433C48F3E934009F466
S11320A03BC40C94801A873FE3E09E0709F4ECC418
S11320B0883FF3E09F07A8F4843F23E0920709F4E4
S11320C050C4843FE3E09E0708F43EC4853FF3E038
S11320D09F0709F477C4863F934009F4A4C40C9481
S11320E0801A8C3FE3E09E0709F4F2C48D3FF3E0CD
S11320F09F0758F4883F23E0920709F4D1C4893F2D
S1132100934009F4D9C40C94801A8D3FF3E09F07DF
S113211009F4EAC48E3F934009F4F3C40C94801A82
S11321208B30E4E09E0709F404C68C30F4E09F078A
S113213098F5863024E0920709F49AC58730E4E0E4
S11321409E07A8F48130F4E09F0709F46DC581303F
S113215024E0920708F437C58230E4E09E0709F4CE
S11321606FC58330944009F477C50C94801A883085
S113217024E0920709F495C58830E4E09E0708F44A
S113218083C58930F4E09F0709F4A3C58A309440DD
S113219009F4B7C50C94801A8231E4E09E0709F46F
S11321A005C68331F4E09F07A8F48D3024E092073C
S11321B009F4D7C58D30E4E09E0708F4C6C5803124
S11321C0F4E09F0709F4D9C58131944009F4E1C5CD
S11321D00C94801A8531E4E09E0709F47AC68631AE
S11321E0F4E09F0758F4833124E0920709F40FC602
S11321F08431944009F43CC60C94801A8631F4E08E
S11322009F0709F473C68731944009F47CC60C9483
S1132210801A8333E4E09E0711F40C94F11984339B
S1132220F4E09F0708F07BC0863224E0920709F4AB
S11322306AC78732E4E09E0798F58F31F4E09F0780
S113224009F41FC7803224E09207A8F48C31E4E03B
S11322509E0709F480C68C31F4E09F0708F46DC62C
S11322608D3124E0920709F4A8C68E31944009F414
S1132270D6C60C94801A8132F4E09F0709F41BC778
S1132280813224E0920708F409C78432E4E09E070F
S113229009F41EC78532944009F427C70C94801AA8
S11322A08B3224E0920709F4DEC78C32E4E09E0707
S11322B0A8F48832F4E09F0709F489C7883224E03F
S11322C0920708F452C78932E4E09E0709F4B1C7C3
S11322D08A32944009F4BAC70C94801A803324E0FB
S11322E0920709F4E8C78133E4E09E0758F48E327C
S11322F0F4E09F0709F4C4C78F32944009F4CDC7B2
S11323000C94801A8133E4E09E0711F40C948D1927
S11323108233944011F40C94BF190C94801A8A34BB
S11323202CE9920709F49BC18B34ECE99E0708F071
S11323303FC08234FCE99F0709F4B6C083342CE91A
S11323409207B8F48533E4E09E0711F40C940B1A59
S11323508533F4E09F0710F40C94FE1980342CE9C3
S1132360920709F46FC081349C4909F47AC00C9433
S1132370801A8534FCE99F0709F4F0C086342CE9FF
S1132380920758F48334ECE99E0709F49CC0843422
S11323909C4909F4BAC00C94801A86342CE992073B
S11323A009F4B4C188349C4909F43CC10C94801AE2
S11323B0863AFCE99F0711F40C94321A873A2CE907
S11323C09207E0F48E34ECE99E0709F482C18F345D
S11323D0FCE99F0730F48C349C4909F45DC10C94EA
S11323E0801A843AECE99E0711F40C94181A853A81
S11323F09C4911F40C94251A0C94801A8F3A2CE9F8
S1132400920711F40C94591A803BECE99E0768F486
S1132410873AFCE99F0711F40C943F1A8E3A9C49C1
S113242011F40C944C1A0C94801A803BECE99E072E
S113243011F40C94661A813B9C4911F40C94731AA0
S11324400C94801A8091F7089091F808FC012D856E
S11324503E85CE010C96A901BC01CF0143DD0C944D
S1132460801A8091FB089091FC08A091FD08B0911E
S1132470FE0820E030E048EC52E4BC01CD010E94AB
S1132480A32ADC01CB01BC01CD010E94C129DC01DE
S1132490CB01FC012D853E85CE010C96A901BC0122
S11324A0CF0120DD0C94801A8091390990913A096A
S11324B0FC012D853E85CE010C96A901BC01CF01FE
S11324C011DD0C94801A80913D0990913E09A091F0
S11324D03F09B091400920E030E048EC52E4BC01EF
S11324E0CD010E94A32ADC01CB01BC01CD010E94D5
S11324F0C129DC01CB01FC012D853E85CE010C9662
S1132500A901BC01CF01EEDCFBC720917B0930910E
S11325107C098091BD099091BE09280F391F8091D3
S1132520FF099091000A280F391F8091410A909168
S1132530420A820F931F99230CF40396959587956D
S1132540959587959F838E834D855E859E01245F37
S11325503F4F8E819F81B901C5DCD2C780917F092D
S113256090918009A0918109B09182092091C109BB
S11325703091C2094091C3095091C409BC01CD01F5
S11325800E94EC28DC01CB017C018D018091030ABF
S11325909091040AA091050AB091060A9C01AD012C
S11325A0C801B7010E94EC28DC01CB017C018D013C
S11325B08091450A9091460AA091470AB091480A31
S11325C09C01AD01C801B7010E94EC28DC01CB01DC
S11325D020E030E040E850E4BC01CD010E945429E1
S11325E0DC01CB0120E030E048EC52E4BC01CD0139
S11325F00E94A32ADC01CB0188879987AA87BB871D
S1132600688579858A859B850E94C129DC01CB0177
S1132610FC012D853E85CE010C96A901BC01CF019C
S113262061DC6EC780917F0990918009A091810936
S1132630B0918209BC01CD010E94C129DC01CB010A
S11326409C0144E6429FC001439F900D11244D8597
S11326505E859E01245F3F4FB90144DC51C78091E0
S1132660C1099091C209A091C309B091C409BC01E8
S1132670CD010E94C129DC01CB019C0144E6429FAB
S1132680C001439F900D11244D855E859E01245FFA
S11326903F4FB90127DC34C78091030A9091040AA3
S11326A0A091050AB091060ABC01CD010E94C1297E
S11326B0DC01CB019C0144E6429FC001439F900D85
S11326C011244D855E859E01245F3F4FB9010ADCCC
S11326D017C78091450A9091460AA091470AB09184
S11326E0480ABC01CD010E94C129DC01CB019C0137
S11326F044E6429FC001439F900D11244D855E85A1
S11327009E01245F3F4FB901EDDBFAC68091870A31
S11327109091880AA091890AB0918A0ABC01CD01DE
S11327200E94C129DC01CB019C0144E6429FC00107
S1132730439F900D11244D855E859E01245F3F4F7C
S1132740B901D0DBDDC68C858F5F8C878C85882FA3
S113275090E003962D853E85820F931F2091AD074F
S11327603091AE07232F3327FC0120838C858F5FA4
S11327708C878C85882F90E003962D853E85820F6B
S1132780931F2091AD073091AE07FC012083B8C69A
S11327908091F508882F90E04D855E859E01245F29
S11327A03F4FB9019FDBACC680910709082E000C8E
S11327B0990B4D855E859E01245F3F4FB90192DBE5
S11327C09FC680910E0990910F09A0911009B091B4
S11327D01109BC01CD010E94C129DC01CB01CC014E
S11327E0A0E0B0E0BC01CD010E94ED29DC01CB01E9
S11327F020E030E048EC52E4BC01CD010E94A32A61
S1132800DC01CB01BC01CD010E94C129DC01CB015B
S1132810FC012D853E85CE010C96A901BC01CF019A
S113282061DB6EC68091120990911309A09114097D
S1132830B0911509BC01CD010E94C129DC01CB0175
S1132840CC01A0E0B0E0BC01CD010E94ED29DC0187
S1132850CB0120E030E048EC52E4BC01CD010E9401
S1132860A32ADC01CB01BC01CD010E94C129DC01FA
S1132870CB01FC012D853E85CE010C96A901BC013E
S1132880CF0130DB3DC68091160990911709A091C4
S11328901809B0911909BC01CD010E94C129DC01BC
S11328A0CB01CC01A0E0B0E0BC01CD010E94ED2938
S11328B0DC01CB0120E030E048EC52E4BC01CD0166
S11328C00E94A32ADC01CB01BC01CD010E94C129D5
S11328D0DC01CB01FC012D853E85CE010C96A901BE
S11328E0BC01CF01FFDA0CC680910C09882F90E05F
S11328F04D855E859E01245F3F4FB901F3DA00C622
S113290080910D09882F90E04D855E859E01245F9E
S11329103F4FB901E7DAF4C580911A09882F90E096
S11329204D855E859E01245F3F4FB901DBDAE8C522
S113293080913709882F90E04D855E859E01245F44
S11329403F4FB901CFDADCC580914909082E000C4C
S1132950990B4D855E859E01245F3F4FB901C2DA14
S1132960CFC58091500990915109A0915209B0911D
S11329705309BC01CD010E94C129DC01CB01CC016A
S1132980A0E0B0E0BC01CD010E94ED29DC01CB0147
S113299020E030E048EC52E4BC01CD010E94A32ABF
S11329A0DC01CB01BC01CD010E94C129DC01CB01BA
S11329B0FC012D853E85CE010C96A901BC01CF01F9
S11329C091DA9EC58091540990915509A0915609B8
S11329D0B0915709BC01CD010E94C129DC01CB0192
S11329E0CC01A0E0B0E0BC01CD010E94ED29DC01E6
S11329F0CB0120E030E048EC52E4BC01CD010E9460
S1132A00A32ADC01CB01BC01CD010E94C129DC0158
S1132A10CB01FC012D853E85CE010C96A901BC019C
S1132A20CF0160DA6DC58091580990915909A09140
S1132A305A09B0915B09BC01CD010E94C129DC0196
S1132A40CB01CC01A0E0B0E0BC01CD010E94ED2996
S1132A50DC01CB0120E030E048EC52E4BC01CD01C4
S1132A600E94A32ADC01CB01BC01CD010E94C12933
S1132A70DC01CB01FC012D853E85CE010C96A9011C
S1132A80BC01CF012FDA3CC580914E09882F90E01C
S1132A904D855E859E01245F3F4FB90123DA30C521
S1132AA080914F09882F90E04D855E859E01245FBB
S1132AB03F4FB90117DA24C580915C09882F90E053
S1132AC04D855E859E01245F3F4FB9010BDA18C521
S1132AD080919E09882F90E04D855E859E01245F3C
S1132AE03F4FB901FFD90CC580918B09082E000C0A
S1132AF0990B4D855E859E01245F3F4FB901F2D944
S1132B00FFC48091960990919709A0919809B0917A
S1132B109909BC01CD010E94C129DC01CB01CC0182
S1132B20A0E0B0E0BC01CD010E94ED29DC01CB01A5
S1132B3020E030E048EC52E4BC01CD010E94A32A1D
S1132B40DC01CB01BC01CD010E94C129DC01CB0118
S1132B50FC012D853E85CE010C96A901BC01CF0157
S1132B60C1D9CEC48091960990919709A0919809F2
S1132B70B0919909BC01CD010E94C129DC01CB01AE
S1132B80CC01A0E0B0E0BC01CD010E94ED29DC0144
S1132B90CB0120E030E048EC52E4BC01CD010E94BE
S1132BA0A32ADC01CB01BC01CD010E94C129DC01B7
S1132BB0CB01FC012D853E85CE010C96A901BC01FB
S1132BC0CF0190D99DC480919A0990919B09A091BD
S1132BD09C09B0919D09BC01CD010E94C129DC0171
S1132BE0CB01CC01A0E0B0E0BC01CD010E94ED29F5
S1132BF0DC01CB0120E030E048EC52E4BC01CD0123
S1132C000E94A32ADC01CB01BC01CD010E94C12991
S1132C10DC01CB01FC012D853E85CE010C96A9017A
S1132C20BC01CF015FD96CC480919009882F90E0DA
S1132C304D855E859E01245F3F4FB90153D960C421
S1132C4080919109882F90E04D855E859E01245FD7
S1132C503F4FB90147D954C480919E09882F90E011
S1132C604D855E859E01245F3F4FB9013BD948C421
S1132C708091810A882F90E04D855E859E01245FB6
S1132C803F4FB9012FD93CC48091930A082E000C00
S1132C90990B4D855E859E01245F3F4FB90122D972
S1132CA02FC480919A0A90919B0AA0919C0AB0919A
S1132CB09D0ABC01CD010E94C129DC01CB01FC01AC
S1132CC02D853E85CE010C96A901BC01CF010AD900
S1132CD017C480919E0A90919F0AA091A00AB09176
S1132CE0A10ABC01CD010E94C129DC01CB01FC0178
S1132CF02D853E85CE010C96A901BC01CF01F2D8E9
S1132D00FFC38091A20A9091A30AA091A40AB09152
S1132D10A50ABC01CD010E94C129DC01CB01FC0143
S1132D202D853E85CE010C96A901BC01CF01DAD8D0
S1132D30E7C38091980A882F90E04D855E859E01B7
S1132D40245F3F4FB901CED8DBC38091990A882F05
S1132D5090E04D855E859E01245F3F4FB901C2D846
S1132D60CFC38091A60A882F90E04D855E859E0191
S1132D70245F3F4FB901B6D8C3C380917909882F26
S1132D8090E04D855E859E01245F3F4FB901AAD82E
S1132D90B7C380918B09082E000C990B4D855E8575
S1132DA09E01245F3F4FB9019DD8AAC38091920927
S1132DB090919309A0919409B0919509BC01CD011A
S1132DC00E94C129DC01CB01CC01A0E0B0E0BC0130
S1132DD0CD010E94ED29DC01CB0120E030E048EC7C
S1132DE052E4BC01CD010E94A32ADC01CB01BC0149
S1132DF0CD010E94C129DC01CB01FC012D853E855A
S1132E00CE010C96A901BC01CF016CD879C3809185
S1132E10960990919709A0919809B0919909BC01DC
S1132E20CD010E94C129DC01CB01CC01A0E0B0E0BE
S1132E30BC01CD010E94ED29DC01CB0120E030E092
S1132E4048EC52E4BC01CD010E94A32ADC01CB0171
S1132E50BC01CD010E94C129DC01CB01FC012D85FF
S1132E603E85CE010C96A901BC01CF013BD848C3D5
S1132E7080919A0990919B09A0919C09B0919D0918
S1132E80BC01CD010E94C129DC01CB01CC01A0E031
S1132E90B0E0BC01CD010E94ED29DC01CB0120E0B2
S1132EA030E048EC52E4BC01CD010E94A32ADC01CD
S1132EB0CB01BC01CD010E94C129DC01CB01FC0185
S1132EC02D853E85CE010C96A901BC01CF010AD8FF
S1132ED017C380919009882F90E04D855E859E01EF
S1132EE0245F3F4FB9010E94720F0AC38091910978
S1132EF0882F90E04D855E859E01245F3F4FB90188
S1132F000E94720FFDC280919E09882F90E04D852A
S1132F105E859E01245F3F4FB9010E94720FF0C28B
S1132F208091BB09882F90E04D855E859E01245FCA
S1132F303F4FB9010E94720FE3C28091CD09082E60
S1132F40000C990B4D855E859E01245F3F4FB901AE
S1132F500E94720FD5C28091D4099091D509A09195
S1132F60D609B091D709BC01CD010E94C129DC0169
S1132F70CB01CC01A0E0B0E0BC01CD010E94ED2961
S1132F80DC01CB0120E030E048EC52E4BC01CD018F
S1132F900E94A32ADC01CB01BC01CD010E94C129FE
S1132FA0DC01CB01FC012D853E85CE010C96A901E7
S1132FB0BC01CF010E94720FA3C28091D8099091E5
S1132FC0D909A091DA09B091DB09BC01CD010E94B5
S1132FD0C129DC01CB01CC01A0E0B0E0BC01CD01F2
S1132FE00E94ED29DC01CB0120E030E048EC52E402
S1132FF0BC01CD010E94A32ADC01CB01BC01CD019F
S11330000E94C129DC01CB01FC012D853E85CE0146
S11330100C96A901BC01CF010E94720F71C280916C
S1133020DC099091DD09A091DE09B091DF09BC01B2
S1133030CD010E94C129DC01CB01CC01A0E0B0E0AC
S1133040BC01CD010E94ED29DC01CB0120E030E080
S113305048EC52E4BC01CD010E94A32ADC01CB015F
S1133060BC01CD010E94C129DC01CB01FC012D85ED
S11330703E85CE010C96A901BC01CF010E94720FBE
S11330803FC28091D209882F90E04D855E859E01D4
S1133090245F3F4FB9010E94720F32C28091D3095D
S11330A0882F90E04D855E859E01245F3F4FB901D6
S11330B00E94720F25C28091E009882F90E04D850F
S11330C05E859E01245F3F4FB9010E94720F18C2B2
S11330D08091FD09882F90E04D855E859E01245FD7
S11330E03F4FB9010E94720F0BC280910F0A082E44
S11330F0000C990B4D855E859E01245F3F4FB901FD
S11331000E94720FFDC18091160A9091170AA09136
S1133110180AB091190ABC01CD010E94C129DC0131
S1133120CB01CC01A0E0B0E0BC01CD010E94ED29AF
S1133130DC01CB0120E030E048EC52E4BC01CD01DD
S11331400E94A32ADC01CB01BC01CD010E94C1294C
S1133150DC01CB01FC012D853E85CE010C96A90135
S1133160BC01CF010E94720FCBC180911A0A9091C9
S11331701B0AA0911C0AB0911D0ABC01CD010E943A
S1133180C129DC01CB01CC01A0E0B0E0BC01CD0140
S11331900E94ED29DC01CB0120E030E048EC52E450
S11331A0BC01CD010E94A32ADC01CB01BC01CD01ED
S11331B00E94C129DC01CB01FC012D853E85CE0195
S11331C00C96A901BC01CF010E94720F99C1809194
S11331D01E0A90911F0AA091200AB091210ABC01F5
S11331E0CD010E94C129DC01CB01CC01A0E0B0E0FB
S11331F0BC01CD010E94ED29DC01CB0120E030E0CF
S113320048EC52E4BC01CD010E94A32ADC01CB01AD
S1133210BC01CD010E94C129DC01CB01FC012D853B
S11332203E85CE010C96A901BC01CF010E94720F0C
S113323067C18091140A882F90E04D855E859E01B8
S1133240245F3F4FB9010E94720F5AC18091150A41
S1133250882F90E04D855E859E01245F3F4FB90124
S11332600E94720F4DC18091220A882F90E04D85F3
S11332705E859E01245F3F4FB9010E94720F40C1D9
S113328080913F0A882F90E04D855E859E01245FE2
S11332903F4FB9010E94720F33C18091510A082E29
S11332A0000C990B4D855E859E01245F3F4FB9014B
S11332B00E94720F25C18091580A9091590AA091D9
S11332C05A0AB0915B0ABC01CD010E94C129DC01FC
S11332D0CB01CC01A0E0B0E0BC01CD010E94ED29FE
S11332E0DC01CB0120E030E048EC52E4BC01CD012C
S11332F00E94A32ADC01CB01BC01CD010E94C1299B
S1133300DC01CB01FC012D853E85CE010C96A90183
S1133310BC01CF010E94720FF3C080915C0A9091AE
S11333205D0AA0915E0AB0915F0ABC01CD010E94C2
S1133330C129DC01CB01CC01A0E0B0E0BC01CD018E
S11333400E94ED29DC01CB0120E030E048EC52E49E
S1133350BC01CD010E94A32ADC01CB01BC01CD013B
S11333600E94C129DC01CB01FC012D853E85CE01E3
S11333700C96A901BC01CF010E94720FC1C08091BB
S1133380600A9091610AA091620AB091630ABC013B
S1133390CD010E94C129DC01CB01CC01A0E0B0E049
S11333A0BC01CD010E94ED29DC01CB0120E030E01D
S11333B048EC52E4BC01CD010E94A32ADC01CB01FC
S11333C0BC01CD010E94C129DC01CB01FC012D858A
S11333D03E85CE010C96A901BC01CF010E94720F5B
S11333E08FC08091560A882F90E04D855E859E019E
S11333F0245F3F4FB9010E94720F82C08091570A27
S1133400882F90E04D855E859E01245F3F4FB90172
S11334100E94720F75C08091640A882F90E04D85D8
S11334205E859E01245F3F4FB9010E94720F68C000
S11334308091520B9091530B4D855E859E01245FC4
S11334403F4FB9010E94720F5BC08091540B909161
S1133450550B4D855E859E01245F3F4FB9010E9447
S1133460720F4EC08091580B9091590B4D855E851B
S11334709E01245F3F4FB9010E94720F41C08091A9
S1133480560B9091570B4D855E859E01245F3F4FEF
S1133490B9010E94720F34C08091610B9091620B4C
S11334A04D855E859E01245F3F4FB9010E94720FD6
S11334B027C08091630B9091640B4D855E859E01BE
S11334C0245F3F4FB9010E94720F1AC08091670BAD
S11334D09091680B4D855E859E01245F3F4FB90135
S11334E00E94720F0DC08091650B9091660B4D8503
S11334F05E859E01245F3F4FB9010E94720F000058
S113350089818F5F89838981282F30E08A819B811B
S11335102817390710F40C94F70F8C8524E0280F32
S11335208D859E85FC0120838D859E8503962C8543
S1133530FC0120838C85882F90E004969C018D8566
S11335409E858C01020F131F8D859E85FC012081B1
S11335508D859E85622F0E948006F80180838D856B
S11335609E850E94050781E02E960FB6F894DEBF73
S11335700FBECDBFDF91CF911F910F91FF90EF90C0
S113358008951F93CF93DF931F921F92CDB7DEB799
S11335909A83898389819A810196FC01808184368A
S11335A041F089819A810196FC018081882309F088
S11335B046C089819A81FC018081882F90E029810D
S11335C03A81820F931FFC01108189819A81FC0149
S11335D0208189819A81622F0E948006181779F5CB
S11335E089819A810296FC018081882F90E0092EBE
S11335F0000CAA0BBB0B41E050E02FE030E0841B31
S1133600950B28173907D8F0FC018827EE58FF4F8F
S11336108F4F0C94532B89819A810E94B80F0FC04D
S113362089819A810E94B80F0AC089819A810E9477
S1133630350705C089819A810E94180E00000F90F9
S11336400F90DF91CF911F910895CF93DF93CDB762
S1133650DEB78091AF079091B007892B31F080914C
S1133660AF079091B007FC011995DF91CF910895B0
S1133670CF93DF931F92CDB7DEB7198234C089810F
S1133680282F30E042E4429FC001439F900D112453
S11336908150974FFC01108211821282138289811A
S11336A0282F30E042E4429FC001439F900D112433
S11336B08750974FFC01118210828981282F30E0B6
S11336C042E4429FC001439F900D11248D50974FB7
S11336D0FC018081882F90E08E54984FFC01108269
S11336E089818F5F89838981883048F28FEF809345
S11336F004020F90DF91CF910895EF92FF920F9300
S11337001F93CF93DF93CDB7DEB7EE970FB6F89440
S1133710DEBF0FBECDBF98A78FA37AA769A789A5DF
S11337209AA5CC01A0E0B0E0BC01CD010E94ED2936
S1133730DC01CB0120E030E048EC52E4BC01CD01D7
S11337400E945429DC01CB012FA138A5F9018487FB
S11337509587A687B7878FA198A5FC018485958551
S1133760A685B78520E030E040E051E4BC01CD01FE
S11337700E94A32ADC01CB01BC01CD010E94BC291B
S1133780DC01CB019A8F898F8FA198A5FC018281DE
S113379089838FA198A5FC018281882F90E08C33C6
S11337A0910509F477C18D33910564F48130910555
S11337B00CF44FC28D309105CCF0C297039708F0FA
S11337C048C2C5C08436910509F484C18536910583
S11337D02CF4813691050CF43CC29CC18B3C9105C0
S11337E009F498C18C3C910509F033C289818C3C61
S11337F011F488E089838981815089838981882FA4
S113380090E08B57984FFC018081880F8B8F82E06A
S11338108A838981882F90E0880F991F8759984F50
S1133820FC01808191819D8F8C8F8C8D9D8DFC01FD
S1133830808191819C838B838C8D9D8DFC01828101
S113384093819E838D8372C08A8191E0980F9A83BD
S1133850882F90E0880F991F2C8D3D8D820F931F28
S1133860FC018081918198878F838A8191E0980FF0
S11338709A83882F90E0880F991F2C8D3D8D820F9D
S1133880931FFC01808191819F8F8E8F2E8D3F8DA0
S1133890898D9A8D281739070CF040C02D813E81FF
S11338A0898D9A8DA901481B590BCA019C01990F56
S11338B0440B550B6B817C818F819885FB01E81B40
S11338C0F90BCF01092E000CAA0BBB0BBC01CD01D7
S11338D00E94062B7B018C012D813E818E8D9F8D54
S11338E0A901481B590BCA019C01990F440B550BA4
S11338F0C801B7010E94372BDA01C9019C018B81F1
S11339009C81F901E81BF90BCF018450904F9C0175
S11339108FA198A5FC01378326839BC18E8D9F8D33
S11339209E838D838F8198859C838B839A818B8DD5
S1133930981708F489CF2CEF3FE08F819885281BD6
S1133940390B8FA198A5FC013783268382C1898115
S11339508E5289838981882F90E08B57984FFC0180
S11339608081880F88A382E089878981882F90E0ED
S1133970880F991F8759984FFC01808191819AA3E0
S113398089A389A19AA1FC01808191819B878A875F
S113399089A19AA1FC01828193819D878C876DC046
S11339A0898591E0980F9987882F90E0880F991F57
S11339B029A13AA1820F931FFC01808191819F87E5
S11339C08E87898591E0980F9987882F90E0880FDA
S11339D0991F29A13AA1820F931FFC018081918133
S11339E09CA38BA32BA13CA1898D9A8D821793074D
S11339F0E4F52C853D85898D9A8DA901481B590BC9
S1133A00CA019C01990F440B550B6A857B858E85F1
S1133A109F85FB01E81BF90BCF01092E000CAA0BB3
S1133A20BB0BBC01CD010E94062B7B018C012C85B4
S1133A303D858BA19CA1A901481B590BCA019C017E
S1133A40990F440B550BC801B7010E94372BDA01BB
S1133A50C9019C018A859B85820F931F9C018FA1BC
S1133A6098A5FC0137832683F4C08BA19CA19D8774
S1133A708C878E859F859B878A87998588A19817CF
S1133A8008F48ECF8FA198A52E853F85FC0137833E
S1133A902683DFC0898D9A8D092E000CAA0BBB0BDF
S1133AA0072E7CE0880F991FAA1FBB1F7A95D1F7B8
S1133AB0702D28EE33E040E050E0BC01CD010E94BF
S1133AC0372BDA01C9019C018FA198A5FC0137832A
S1133AD02683BFC0898D9A8D092E000CAA0BBB0BBF
S1133AE0072E7CE0880F991FAA1FBB1F7A95D1F778
S1133AF0702D24EF31E040E050E0BC01CD010E9484
S1133B00372BDA01C9019C018FA198A5FC013783E9
S1133B1026839FC089818B3C11F481E6898382E0EE
S1133B20888B8981813621F487EC9AE09A8B898B82
S1133B3089899A89FC01808191819C8B8B8B8989ED
S1133B409A89FC01828193819E8B8D8B72C08889B6
S1133B5091E0980F988B882F90E0880F991F2989FE
S1133B603A89820F931FFC0180819181988F8F8BFA
S1133B70888991E0980F988B882F90E0880F991F7F
S1133B8029893A89820F931FFC01808191819EA328
S1133B908DA32DA13EA1898D9A8D281739070CF08C
S1133BA040C02D893E89898D9A8DA901481B590BE6
S1133BB0CA019C01990F440B550B6B897C898F8931
S1133BC0988DFB01E81BF90BCF01092E000CAA0B01
S1133BD0BB0BBC01CD010E94062B7B018C012D89FE
S1133BE03E898DA19EA1A901481B590BCA019C01C4
S1133BF0990F440B550BC801B7010E94372BDA010A
S1133C00C9019C018B899C89F901E81BF90BCF013F
S1133C108450904F9C018FA198A5FC013783268383
S1133C2018C08DA19EA19E8B8D8B8F89988D9C8BA6
S1133C308B8B8889823408F48ACF2CEF3FE08F89FC
S1133C40988D281B390B8FA198A5FC0137832683F7
S1133C500000EE960FB6F894DEBF0FBECDBFDF9125
S1133C60CF911F910F91FF90EF900895CF93DF9321
S1133C70CDB7DEB760970FB6F894DEBF0FBECDBFE9
S1133C8087E091E027E031E0F90120812062FC0126
S1133C90208388E091E028E031E0F90120812F7D44
S1133CA0FC01208387E091E027E031E0F9012081E5
S1133CB02860FC01208388E091E028E031E0F901EC
S1133CC02081277FFC01208387E091E027E031E019
S1133CD0F90120812F7EFC01208388E091E028E017
S1133CE031E0F90120812F7EFC01208387E091E0FF
S1133CF027E031E0F90120812460FC01208388E081
S1133D0091E028E031E0F90120812B7FFC01208340
S1133D101A8219824AC089810E94D12829813A8154
S1133D204FE0429FC001439F900D11248E5A944F3F
S1133D30FC011182108229813A814FE0429FC00127
S1133D40439F900D1124885A944FFC0111821082D4
S1133D5029813A814FE0429FC001439F900D112475
S1133D608C5A944FFC011182108229813A814FE0D0
S1133D70429FC001439F900D1124845A944FFC012B
S1133D80108229813A814FE0429FC001439F900DE8
S1133D901124835A944FFC011082118212821382DF
S1133DA089819A8101969A83898389819A8102976C
S1133DB00CF4B1CF88E091E028E031E0F9012081F2
S1133DC02B7FFC01208380E090E0A0E2B1E48B83B0
S1133DD09C83AD83BE8320E030E04AE755E46B81E9
S1133DE07C818D819E810E94A32ADC01CB018F837B
S1133DF09887A987BA8720E030E040E85FE36F81C5
S1133E00788589859A850E94502988232CF481E03D
S1133E1090E09C878B873FC020E03FEF4FE757E45B
S1133E206F81788589859A850E949F2A18164CF59A
S1133E3020E030E040E251E46B817C818D819E8101
S1133E400E94A32ADC01CB01BC01CD010E94C1293F
S1133E50DC01CB019C878B870FC080E991E09E87B2
S1133E608D878D859E850197F1F79E878D878B853C
S1133E709C8501979C878B878B859C85892B69F70B
S1133E8014C06F81788589859A850E94C129DC01D7
S1133E90CB019C878B878B859C85988B8F878F859F
S1133EA098890197F1F7988B8F8788E091E028E053
S1133EB031E0F90120812460FC01208388E091E055
S1133EC028E031E0F90120812F7DFC0120836096F8
S1133ED00FB6F894DEBF0FBECDBFDF91CF9108952A
S1133EE00F931F93CF93DF93CDB7DEB7C155D1099D
S1133EF00FB6F894DEBF0FBECDBF19821CC288E096
S1133F0091E028E031E0F90120812860FC01208360
S1133F1080E090E0A0E0B0E48A839B83AC83BD831F
S1133F202BEA3AEA4AEA50E46A817B818C819D81DA
S1133F300E94A32ADC01CB018E839F83A887B987C3
S1133F4020E030E040E850E46A817B818C819D81EF
S1133F500E94A32ADC01CB018A879B87AC87BD879B
S1133F6020E030E040E85FE36E817F8188859985B9
S1133F700E94502988231CF481E08E87B6C020E07B
S1133F803FEF4FE757E46A857B858C859D850E94CA
S1133F909F2A18160CF07FC020E030E04AE754E472
S1133FA06A817B818C819D810E945429DC01CB0133
S1133FB08F87988BA98BBA8B20E030E04AE755E4D1
S1133FC06F85788989899A890E94A32ADC01CB01AB
S1133FD08B8B9C8BAD8BBE8B20E030E040E85FE3A5
S1133FE06B897C898D899E890E94502988232CF4B1
S1133FF081E090E0988F8F8B41C020E03FEF4FE746
S113400057E46B897C898D899E890E949F2A1816A2
S11340105CF520E030E040E251E46F8578898989DD
S11340209A890E94A32ADC01CB01BC01CD010E9424
S1134030C129DC01CB01988F8F8B0FC080E991E0FF
S11340409A8F898F898D9A8D0197F1F79A8F898F2D
S11340508F89988D0197988F8F8B8F89988D892B55
S113406069F78AA18E8741C06B897C898D899E8975
S11340700E94C129DC01CB01988F8F8B8F89988D89
S11340809C8F8B8F8B8D9C8D0197F1F79C8F8B8FE1
S11340908AA18E872AC020E030E04FE753E46E8186
S11340A07F81888599850E949F2A1816ACF46A85B9
S11340B07B858C859D850E94C129DC01CB019E8F67
S11340C08D8F8D8D9E8D98A38F8F8F8D98A1019745
S11340D0F1F798A38F8F0FC06E817F8188859985B2
S11340E00E94C129DC01CB018E878E8589A389A119
S11340F08A95F1F789A388E091E028E031E0F9019D
S11341002081277FFC01208380E090E0A0E0B0E4E0
S11341108BA39CA3ADA3BEA32BEA3AEA4AEA50E4DC
S11341206BA17CA18DA19EA10E94A32ADC01CB01DD
S11341308FA398A7A9A7BAA720E030E040E850E4ED
S11341406BA17CA18DA19EA10E94A32ADC01CB01BD
S11341508BA79CA7ADA7BEA720E030E040E85FE3B3
S11341606FA178A589A59AA50E94502988231CF4DB
S113417081E08FA7CAC020E03FEF4FE757E46BA56B
S11341807CA58DA59EA50E949F2A18160CF087C0B9
S113419020E030E04AE754E46BA17CA18DA19EA10C
S11341A00E945429DC01CB0188AB99ABAAABBBAB11
S11341B020E030E04AE755E468A979A98AA99BA9D7
S11341C00E94A32ADC01CB018CAB9DABAEABBFAB91
S11341D020E030E040E85FE36CA97DA98EA99FA9A7
S11341E00E94502988232CF481E090E099AF88AF95
S11341F045C020E03FEF4FE757E46CA97DA98EA9A5
S11342009FA90E949F2A18167CF520E030E040E226
S113421051E468A979A98AA99BA90E94A32ADC016F
S1134220CB01BC01CD010E94C129DC01CB0199AFB6
S113423088AF0FC080E991E09BAF8AAF8AAD9BAD98
S11342400197F1F79BAF8AAF88AD99AD019799AF0C
S113425088AF88AD99AD892B69F7CE018D5B9F4FEF
S1134260FC0180818FA751C06CA97DA98EA99FA94B
S11342700E94C129DC01CB0199AF88AF88AD99AD0B
S11342809DAF8CAF8CAD9DAD0197F1F79DAF8CAF19
S1134290CE018D5B9F4FFC0180818FA736C020E04B
S11342A030E04FE753E46FA178A589A59AA50E9451
S11342B09F2A18160CF56BA57CA58DA59EA50E94BA
S11342C0C129DC01CB019FAF8EAFCE01805C9F4F33
S11342D02EAD3FADFC0131832083CE01805C9F4F26
S11342E0FC01808191810197F1F79E01205C3F4F91
S11342F0F901918380831CC06FA178A589A59AA533
S11343000E94C129DC01CB018FA7CE018E5B9F4F98
S11343102FA5FC012083CE018E5B9F4FFC01808181
S1134320282F2A95F1F7CE018E5B9F4FFC01208345
S113433089818F5F898389818A3108F4E0CD9E0168
S11343402C5B3F4F80E090E8ABEBB4E4F901808351
S11343509183A283B3838E01085B1F4FCE018C5BD4
S11343609F4F20E030E04AE755E4FC016081718111
S1134370828193810E94A32ADC01CB01F80180830E
S11343809183A283B383CE01885B9F4F20E030E00A
S113439040E85FE3FC01608171818281938180D771
S11343A088234CF4CE01845B9F4F21E030E0FC0174
S11343B0318320836BC0CE01885B9F4F20E03FEFA9
S11343C04FE757E4FC0160817181828193810E94EF
S11343D09F2A18160CF049C0CE018C5B9F4F20E039
S11343E030E040E251E4FC0160817181828193817B
S11343F00E94A32ADC01CB018E01045B1F4FBC0188
S1134400CD01BFD7DC01CB01F8019183808324C0A7
S1134410CE01825B9F4F20E931E0FC013183208390
S1134420CE01825B9F4FFC01808191810197F1F75E
S11344309E01225B3F4FF90191838083CE01845B0F
S11344409F4F9E01245B3F4FF90120813181215010
S11344503109FC0131832083CE01845B9F4FFC0131
S113446080819181892BA1F62BC08E01045B1F4FA3
S1134470CE01885B9F4FFC016081718182819381B1
S113448080D7DC01CB01F80191838083CE01805B6E
S11344909F4F9E01245B3F4FF90120813181FC0134
S11344A031832083CE01805B9F4FFC018081918109
S11344B00197F1F79E01205B3F4FF90191838083BF
S11344C0CF5ADF4F0FB6F894DEBF0FBECDBFDF91DA
S11344D0CF911F910F9108950F931F93CF93DF9363
S11344E0CDB7DEB7C758D1090FB6F894DEBF0FBEFB
S11344F0CDBF19821A821B821C82000086E091E0E3
S1134500FC018081882F90E080719927892BB1F775
S11345101D8233C289819A81AB81BC81880F991F26
S1134520AA1FBB1F89839A83AB83BC8388E091E075
S113453028E031E0F90120812860FC01208380E03B
S113454090E0A0E0B0E48E839F83A887B9872BEA2C
S11345503AEA4AEA50E46E817F8188859985F3D7E7
S1134560DC01CB018A879B87AC87BD8720E030E0E4
S113457040E850E46E817F8188859985E4D7DC0129
S1134580CB018E879F87A88BB98B20E030E040E871
S11345905FE36A857B858C859D8582D688231CF4A0
S11345A081E08A8BABC020E03FEF4FE757E46E8594
S11345B07F8588899989C3D718160CF078C020E0C4
S11345C030E04AE754E46E817F81888599856CD612
S11345D0DC01CB018B8B9C8BAD8BBE8B20E030E060
S11345E04AE755E46B897C898D899E89ACD7DC01C7
S11345F0CB018F8B988FA98FBA8F20E030E040E8F1
S11346005FE36F89788D898D9A8D4AD688232CF43F
S113461081E090E09C8F8B8F3DC020E03FEF4FE71F
S113462057E46F89788D898D9A8D89D718164CF542
S113463020E030E040E251E46B897C898D899E89D9
S113464082D7DC01CB01BC01CD019BD6DC01CB01BF
S11346509C8F8B8F0FC080E991E09E8F8D8F8D8D05
S11346609E8D0197F1F79E8F8D8F8B8D9C8D019779
S11346709C8F8B8F8B8D9C8D892B69F78EA18A8B58
S11346803DC06F89788D898D9A8D7BD6DC01CB01F5
S11346909C8F8B8F8B8D9C8D98A38F8F8F8D98A1E2
S11346A00197F1F798A38F8F8EA18A8B27C020E002
S11346B030E04FE753E46A857B858C859D853FD741
S11346C01816A4F46E857F85888999895AD6DC01E9
S11346D0CB019AA389A389A19AA19CA38BA38BA1A3
S11346E09CA10197F1F79CA38BA30EC06A857B85DF
S11346F08C859D8546D6DC01CB018A8B8A898DA366
S11347008DA18A95F1F78DA386E091E0FC0180816B
S1134710882F90E080719927892B49F089819A81AB
S1134720AB81BC81816089839A83AB83BC8388E03D
S113473091E028E031E0F9012081277FFC0120830A
S113474080E090E0A0E0B0E48FA398A7A9A7BAA75F
S11347502BEA3AEA4AEA50E46FA178A589A59AA51A
S1134760F2D6DC01CB018BA79CA7ADA7BEA720E0A6
S113477030E040E850E46FA178A589A59AA5E3D676
S1134780DC01CB018FA798ABA9ABBAAB20E030E03A
S113479040E85FE36BA57CA58DA59EA581D5882304
S11347A01CF481E08BABD3C020E03FEF4FE757E42C
S11347B06FA578A989A99AA9C2D618160CF08CC03D
S11347C020E030E04AE754E46FA178A589A59AA5D2
S11347D06BD5DC01CB018CAB9DABAEABBFAB20E0AA
S11347E030E04AE755E46CA97DA98EA99FA9ABD610
S11347F0DC01CB0188AF99AFAAAFBBAF20E030E0BA
S113480040E85FE368AD79AD8AAD9BAD49D58823B7
S11348102CF481E090E09DAF8CAF41C020E03FEFED
S11348204FE757E468AD79AD8AAD9BAD88D61816CD
S11348306CF520E030E040E251E46CA97DA98EA93A
S11348409FA981D6DC01CB01BC01CD019AD5DC0145
S1134850CB019DAF8CAF0FC080E991E09FAF8EAFCD
S11348608EAD9FAD0197F1F79FAF8EAF8CAD9DAD2F
S113487001979DAF8CAF8CAD9DAD892B69F7CE01AF
S1134880895B9F4FFC0180818BAB61C068AD79ADC2
S11348908AAD9BAD76D5DC01CB019DAF8CAFCE014B
S11348A0805C9F4F2CAD3DADFC0131832083CE0154
S11348B0805C9F4FFC01808191810197F1F79E01FB
S11348C0205C3F4FF90191838083CE01895B9F4F28
S11348D0FC0180818BAB3BC020E030E04FE753E428
S11348E06BA57CA58DA59EA52AD6181644F58E0128
S11348F00E5B1F4F6FA578A989A99AA942D5DC013F
S1134900CB01F80191838083CE018C5B9F4F9E0184
S11349102E5B3F4FF90120813181FC0131832083DB
S1134920CE018C5B9F4FFC01808191810197F1F74F
S11349309E012C5B3F4FF901918380831BC06BA5C3
S11349407CA58DA59EA51DD5DC01CB018BABCE012D
S11349508A5B9F4F2BA9FC012083CE018A5B9F4F6A
S1134960FC018081282F2A95F1F7CE018A5B9F4FA5
S1134970FC0120838D818F5F8D838D81883108F4C4
S1134980C9CD88E091E028E031E0F9012081286078
S1134990FC0120839E01285B3F4F80E090E0A0E073
S11349A0B0E4F90180839183A283B3838E01045B15
S11349B01F4FCE01885B9F4F2BEA3AEA4AEA50E444
S11349C0FC016081718182819381BDD5DC01CB01C1
S11349D0F80180839183A283B3838E01005B1F4F10
S11349E0CE01885B9F4F20E030E040E850E4FC01BA
S11349F06081718182819381A6D5DC01CB01F801AC
S1134A0080839183A283B383CE01845B9F4F20E094
S1134A1030E040E85FE3FC01608171818281938131
S1134A203FD488233CF4CE018C5A9F4F21E0FC01F3
S1134A30208325C1CE01805B9F4F20E03FEF4FE7ED
S1134A4057E4FC01608171818281938178D51816C5
S1134A500CF0CAC0CE01885B9F4F20E030E04AE7EB
S1134A6054E4FC0160817181828193811DD4DC0155
S1134A70CB019E012B5A3F4FF90180839183A2837E
S1134A80B3838E01075A1F4FCE018B5A9F4F20E0EC
S1134A9030E04AE755E4FC016081718182819381B1
S1134AA052D5DC01CB01F80180839183A283B383C7
S1134AB0CE01875A9F4F20E030E040E85FE3FC01DD
S1134AC06081718182819381EBD388234CF4CE0180
S1134AD0835A9F4F21E030E0FC013183208369C079
S1134AE0CE01875A9F4F20E03FEF4FE757E4FC0188
S1134AF0608171818281938122D518160CF048C09F
S1134B00CE018B5A9F4F20E030E040E251E4FC019B
S1134B10608171818281938116D5DC01CB018E0184
S1134B20035A1F4FBC01CD012CD4DC01CB01F80189
S1134B309183808324C0CE01815A9F4F20E931E0C4
S1134B40FC0131832083CE01815A9F4FFC01808177
S1134B5091810197F1F79E01215A3F4FF901918309
S1134B608083CE01835A9F4F9E01235A3F4FF90100
S1134B702081318121503109FC0131832083CE0110
S1134B80835A9F4FFC0180819181892BA1F677C0C4
S1134B908E01035A1F4FCE01875A9F4FFC0160813B
S1134BA0718182819381EDD3DC01CB01F801918382
S1134BB08083CE018F599F4F9E01235A3F4FF901A5
S1134BC020813181FC0131832083CE018F599F4F95
S1134BD0FC01808191810197F1F79E012F593F4F8C
S1134BE0F901918380834BC0CE01845B9F4F20E009
S1134BF030E04FE753E4FC0160817181828193814D
S1134C009ED4181664F58E010D591F4FCE01805B9A
S1134C109F4FFC016081718182819381B2D3DC0159
S1134C20CB01F80191838083CE018B599F4F9E0164
S1134C302D593F4FF90120813181FC0131832083BB
S1134C40CE018B599F4FFC01808191810197F1F72F
S1134C509E012B593F4FF9019183808327C08E0118
S1134C600C5A1F4FCE01845B9F4FFC016081718100
S1134C708281938186D3DC01CB01F8018083CE014C
S1134C8089599F4F9E012C5A3F4FF9012081FC0105
S1134C902083CE0189599F4FFC018081282F2A95BA
S1134CA0F1F7CE0189599F4FFC01208388E091E000
S1134CB028E031E0F9012081277FFC0120839E0157
S1134CC028593F4F80E090E0A0E0B0E4F9018083F0
S1134CD09183A283B3838E0104591F4FCE01885957
S1134CE09F4F2BEA3AEA4AEA50E4FC016081718161
S1134CF08281938128D4DC01CB01F80180839183E4
S1134D00A283B3838E0100591F4FCE0188599F4F50
S1134D1020E030E040E850E4FC0160817181828150
S1134D20938111D4DC01CB01F80180839183A283A8
S1134D30B383CE0184599F4F20E030E040E85FE325
S1134D40FC016081718182819381AAD288233CF421
S1134D50CE018C589F4F21E0FC01208325C1CE0158
S1134D6080599F4F20E03FEF4FE757E4FC016081FB
S1134D70718182819381E3D318160CF0CAC0CE01ED
S1134D8088599F4F20E030E04AE754E4FC016081F9
S1134D9071818281938188D2DC01CB019E012B58E1
S1134DA03F4FF90180839183A283B3838E01075817
S1134DB01F4FCE018B589F4F20E030E04AE755E467
S1134DC0FC016081718182819381BDD3DC01CB01BF
S1134DD0F80180839183A283B383CE0187589F4FC8
S1134DE020E030E040E85FE3FC0160817181828172
S1134DF0938156D288234CF4CE0183589F4F21E0EF
S1134E0030E0FC013183208369C0CE0187589F4F75
S1134E1020E03FEF4FE757E4FC016081718182811C
S1134E2093818DD318160CF048C0CE018B589F4F38
S1134E3020E030E040E251E4FC0160817181828134
S1134E40938181D3DC01CB018E0103581F4FBC0138
S1134E50CD0197D2DC01CB01F8019183808324C07A
S1134E60CE0181589F4F20E931E0FC01318320833A
S1134E70CE0181589F4FFC01808191810197F1F708
S1134E809E0121583F4FF90191838083CE018358BD
S1134E909F4F9E0123583F4FF901208131812150BA
S1134EA03109FC0131832083CE0183589F4FFC01DB
S1134EB080819181892BA1F677C08E0103581F4F01
S1134EC0CE0187589F4FFC0160817181828193815B
S1134ED058D2DC01CB01F80191838083CE018F5736
S1134EE09F4F9E0123583F4FF90120813181FC01DE
S1134EF031832083CE018F579F4FFC0180819181A4
S1134F000197F1F79E012F573F4FF9019183808359
S1134F104BC0CE0184599F4F20E030E04FE753E46B
S1134F20FC01608171818281938109D3181664F533
S1134F308E010D571F4FCE0180599F4FFC01608198
S1134F407181828193811DD2DC01CB01F8019183AF
S1134F508083CE018B579F4F9E012D573F4FF90100
S1134F6020813181FC0131832083CE018B579F4FF7
S1134F70FC01808191810197F1F79E012B573F4FEE
S1134F80F9019183808327C08E010C581F4FCE01F5
S1134F9084599F4FFC016081718182819381F1D199
S1134FA0DC01CB01F8018083CE0189579F4F9E011C
S1134FB02C583F4FF9012081FC012083CE018957F1
S1134FC09F4FFC018081282F2A95F1F7CE01895744
S1134FD09F4FFC0120838091B107882F90E04FE020
S1134FE0489F9001499F300D1124245A344FF901F0
S1134FF0408151E0540F6FE0689F9001699F300D2C
S11350001124C901845A944FFC015083443008F0A0
S11350106FC08091B107682F70E08091B107282F8D
S113502030E04FE0429FC001439F900D1124835A0A
S1135030944FFC01208131814281538189819A817D
S1135040AB81BC81892F9A2FAB2FBB27A7FDBA95C3
S1135050820F931FA41FB51F4FE0469F9001479FE7
S1135060300D1124235A344FF90180839183A28394
S1135070B3838091B107282F30E04FE0429FC001F5
S1135080439F900D1124835A944FFC018081918198
S1135090A281B38188279078AA27BB27892B8A2BE2
S11350A08B2B09F472C08091B107482F50E0809196
S11350B0B107282F30E06FE0629FC001639F900D1D
S11350C01124835A944FFC0180819181A281B38180
S11350D0AF6FBF6F6FE0649F9001659F300D112427
S11350E0235A344FF90180839183A283B3834DC043
S11350F08091B107282F30E08091B107482F50E00C
S11351006FE0649FC001659F900D1124835A944FF2
S1135110FC0180819181A281B381BB231CF403969D
S1135120A11DB11DB595A79597958795B595A7959B
S113513097958795AC016FE0629FC001639F900DC6
S113514011248E5A944FFC01518340838091B107FE
S1135150282F30E04FE0429FC001439F900D11245F
S1135160845A944FFC0110828091B107282F30E0BB
S11351704FE0429FC001439F900D1124835A944FE6
S1135180FC011082118212821382C957DF4F0FB6BD
S1135190F894DEBF0FBECDBFDF91CF911F910F9169
S11351A00895CF93DF931F92CDB7DEB789838981AA
S11351B0282F30E04FE0429FC001439F900D1124FF
S11351C08A5A944F24E630E0FC01318320830F9007
S11351D0DF91CF9108955058BB27AA270ED075C1EF
S11351E066D130F06BD120F031F49F3F11F41EF4FE
S11351F05BC10EF4E095E7FB51C1E92F77D180F351
S1135200BA17620773078407950718F071F49EF5BF
S11352108FC10EF4E0950B2EBA2FA02D0B01B9010E
S113522090010C01CA01A0011124FF27591B99F018
S1135230593F50F4503E68F11A16F040A22F232F24
S1135240342F4427585FF3CF469537952795A79574
S1135250F0405395C9F77EF41F16BA0B620B730B1B
S1135260840BBAF09150A1F0FF0FBB1F661F771F8C
S1135270881FC2F70EC0BA0F621F731F841F48F441
S1135280879577956795B795F7959E3F08F0B3CFC7
S11352909395880F08F09927EE0F979587950895B1
S11352A0D9D008F481E008950CD00FC107D140F0A3
S11352B0FED030F021F45F3F19F0F0C0511139C134
S11352C0F3C014D198F39923C9F35523B1F3951B73
S11352D0550BBB27AA2762177307840738F09F5F13
S11352E05F4F220F331F441FAA1FA9F333D00E2E82
S11352F03AF0E0E830D091505040E695001CCAF7EF
S113530029D0FE2F27D0660F771F881FBB1F2617B3
S113531037074807AB07B0E809F0BB0B802DBF0186
S1135320FF2793585F4F2AF09E3F510568F0B6C09F
S113533000C15F3FECF3983EDCF386957795679563
S1135340B795F7959F5FC9F7880F911D9695879537
S113535097F90895E1E0660F771F881FBB1F621756
S113536073078407BA0720F0621B730B840BBA0B14
S1135370EE1F88F7E095089504D06894B111D9C060
S11353800895BCD088F09F5790F0B92F9927B75152
S1135390A0F0D1F0660F771F881F991F1AF0BA95F5
S11353A0C9F712C0B13081F0C3D0B1E00895C0C0D4
S11353B0672F782F8827B85F39F0B93FCCF38695EB
S11353C077956795B395D9F73EF490958095709548
S11353D061957F4F8F4F9F4F0895E89409C097FBC5
S11353E03EF490958095709561957F4F8F4F9F4FB8
S11353F09923A9F0F92F96E9BB279395F6958795FC
S113540077956795B795F111F8CFFAF4BB0F11F4BE
S113541060FF1BC06F5F7F4F8F4F9F4F16C0882365
S113542011F096E911C0772321F09EE8872F762F9B
S113543005C0662371F096E8862F70E060E02AF0DC
S11354409A95660F771F881FDAF7880F96958795C8
S113545097F90895990F0008550FAA0BE0E8FEEF9D
S113546016161706E807F907C0F012161306E40724
S1135470F50798F0621B730B840B950B39F40A261D
S113548061F0232B242B252B21F408950A2609F4FB
S1135490A140A6958FEF811D811D089597F99F67FF
S11354A080E870E060E008959FEF80EC08950024A8
S11354B00A941616170618060906089500240A9475
S11354C012161306140605060895092E0394000CFB
S11354D011F4882352F0BB0F40F4BF2B11F460FF8A
S11354E004C06F5F7F4F8F4F9F4F089557FD9058B3
S11354F0440F551F59F05F3F71F04795880F97FB94
S1135500991F61F09F3F79F087950895121613064D
S11355101406551FF2CF4695F1DF08C0161617067C
S11355201806991FF1CF86957105610508940895B1
S1135530E894BB2766277727CB0197F908958ADF7C
S113554008F48FEF08950BD0C0CFB1DF28F0B6DF99
S113555018F0952309F0A2CFA7CF1124EACFC6DF14
S1135560A0F3959FD1F3950F50E0551F629FF00172
S1135570729FBB27F00DB11D639FAA27F00DB11DCB
S1135580AA1F649F6627B00DA11D661F829F222754
S1135590B00DA11D621F739FB00DA11D621F839FDB
S11355A0A00D611D221F749F3327A00D611D231FB1
S11355B0849F600D211D822F762F6A2F11249F57FF
S11355C050408AF0E1F088234AF0EE0FFF1FBB1F22
S11355D0661F771F881F91505040A9F79E3F5105C1
S11355E070F05CCFA6CF5F3FECF3983EDCF386957A
S11355F077956795B795F795E7959F5FC1F7FE2B6C
S1135600880F911D9695879597F90895DB018F93DF
S11356109F9351D0BF91AF91A29F800D911DA39FE5
S1135620900DB29F900D11240895A1E21A2EAA1B89
S1135630BB1BFD010DC0AA1FBB1FEE1FFF1FA2173E
S1135640B307E407F50720F0A21BB30BE40BF50B3B
S1135650661F771F881F991F1A9469F760957095C4
S1135660809590959B01AC01BD01CF010895052E55
S113567097FB16F400940FD057FD05D0D6DF07FC36
S113568002D046F408C050954095309521953F4F7F
S11356904F4F5F4F089590958095709561957F4F1A
S11356A08F4F9F4F0895EE0FFF1F881F8BBF0790EA
S11356B0F691E02D199409D0A59F900DB49F900DFB
S11356C0A49F800D911D11240895A29FB001B39F42
S11356D0C001A39F700D811D1124911DB29F700DF7
S10F56E0811D1124911D0895F894FFCF42
S11356EC90D00300FF0000A00F5C0060096900105B
S11356FC097900C0088C007008A2002008BD00D0F5
S113570C07DE008007050130073401E0066D0190C7
S113571C06B20140060702F0056D02A005E802502E
S113572C057B0300052B04B004F8046004EB06C0ED
S113573C03350920037F0B8002650DE001B00E4098
S113574C011D0FF000480FC8006C0FA000ED0F6096
S113575CFFFE0F48FE0400801AD8009808AC012004
S113576C07800250065403C80528045805FC04009D
S113577C05D005B004A4066804780728044C08E88E
S113578C032009B003F4097003C80A38039C0BF80E
S113579C02700CB002440D6802180E0802EC0E885C
S11357AC01C00F8800F00F00000400001B540060BF
S11357BC09640010097400C008840070089C00205F
S11357CC08B800D007D8008007000130072C01E08E
S11357DC0668019006AC0140060002F0056802A0C0
S11357EC05E0025005740300052404B004F00460C1
S11357FC04DC051004E406C003040870033009201B
S113580C03780B8002600DE001A80E4001680FA024
S113581C00C00F0000E80F60FF0400700DD80048B2
S113582C04AC0158038002D80254038002280438C3
S113583C02FC040002D005C801A406980178077084
S113584C014C08480120091801F409F000C80AC8E1
S113585C009C0BA000700C7000440D3800180E0056
S113586C00EC0EA8FFC00FE8FE0000401F450060CE
S113587C094F0010095C00C0086B0070087D002003
S113588C089200D007AC008007CC003007DE00E0A3
S113589C06230190065E014006A601F005FF01A057
S11358AC056D025005F30200059603B0045A04601A
S11358BC04400510044806C0036E077003A80820B2
S11358CC03EB09D002230B8002410C3002390DE0AA
S11358DC01040E9001A20E4001170FF000690FA0F5
S11358EC00A20F5000C60F0000DD0FB0FFEB0F60DD
S11358FCFF0400681D4C00500B94005809DC005048
S113590C082401A8076C012807B401C006FC017027
S113591C06440228068C02F005D402B8051C038840
S113592C0564035805AC033005F40310053C04E886
S113593C048404C804CC04A804140590045C057005
S113594C04A4055804EC053804340620047C060829
S113595C04C406F0030C07D8035407C8039C07B00F
S113596C03E40798032C08800374087003BC0858DC
S113597C03040948034C09300394091803DC09088F
S113598C03240AF0026C0AE002B40AC802FC0AB04E
S113599C02440BA0028C0B8802D40B70021C0C5812
S11359AC02640C4002AC0C2802F40C10023C0DF006
S11359BC01840DD801CC0DB801140E98015C0E7045
S11359CC01A40E4801EC0E1801340FD8007C0F888A
S11359DC00C40F0800FC0F000000000000000000D1
S11359EC00000000000000000000000000000000A7
S11359FC0000000000000000000000000004000093
S1135A0C16D800C006AC0178058002C004540348C3
S1135A1C042804E803FC049803D0055003A40618D6
S1135A2C037807D8024C08A80220097002F409383C
S1135A3C02C80A08029C0BD001700C9001440D5052
S1135A4C01180EF800EC0E8800C00F000004004092
S1135A5C1D900060091C01B007A801D0063402385F
S1135A6C06C002C8054C036805D80318056404D89D
S1135A7C04F00498047C05600408063004940600C1
S1135A8C042007D003AC07A80338088003C40858C3
S1135A9C0350093003DC090803680AE002F40AB86D
S1135AAC02800B88020C0C6002980C3002240DF856
S1135ABC01B00DC0013C0E8001C80E3001540FB86A
S1135ACC00B40F2800E00F00000400081D900058DB
S1135ADC091C01B007A801C80634023006C002C074
S1135AEC054C036805D80318056404D004F0049825
S1135AFC047C05600408063004940600042007D0D6
S1135B0C03AC07A80338088003C4085803500930B1
S1135B1C03DC090803680AD802F40AB002800B8873
S1135B2C020C0C6002980C3002240DF801B00DC06C
S1135B3C013C0E8001C80E3001540FB800B40F287C
S1135B4C00E00F0000000000008C030800AE0350BE
S1135B5C00D603A000F703F00018044001380490A9
S1135B6C015904E0017A0430029A048002BB04D087
S1135B7C02FC0470032605C003860630079709A0AF
S1135B8C0F750D201C520E401F1F0F6022FF0F803B
S1135B9C3E0400501D7C00D009A4001009CC0080E8
S1135BAC08F40010081C01B807440168076C0128AC
S1135BBC079401E806BC01B806E40188060C0260EF
S1135BCC06340238065C0218068402F005AC02D8CE
S1135BDC05D402B805FC029805240380057403500F
S1135BEC05C4032805140400056404D804B404B0E3
S1135BFC042C058004A40558041C062804940600EF
S1135C0C040C07D803AC07A8034C087803EC084829
S1135C1C038C092003A40AD0021C0BA802AC0C2888
S1135C2C02FC0C0802C40DB801140E9801B40E3811
S1135C3C012C0FE000540FB8007C0F8800A40F480F
S1135C4C00F40F28FFFC0FC0F905027502C90239D4
S1135C5C03000000000000890311041D056D05E913
S1135C6C056506B1061C151C140000002243141F04
S1075C7C1F132E00C0
S9030000FC
