S018000046696C616D656E74426F78426F6172642E73726563CB
S113000089C30000A7C30000A5C30000A3C3000068
S1130010A1C300009FC300009DC300009BC3000058
S113002099C3000097C3000095C3000093C3000068
S113003091C300008FC300008DC300008BC3000078
S113004089C3000095C4000085C3000083C3000079
S113005081C30000FDC400007DC300007BC3000019
S113006079C3000077C3000075C3000073C30000A8
S113007071C300004DC600006DC300006BC30000D7
S113008069C3000067C3000065C3000063C30000C8
S113009061C300005FC300005DC300005BC30000D8
S11300A059C3000057C3000055C3000053C30000E8
S11300B051C300004FC300004DC300004BC30000F8
S11300C049C3000047C3000045C300000C94400925
S11300D00C9473083FC300003DC300003BC3000001
S11300E039C300002F1E2F1E1B1E201E2F1E251E6F
S11300F02F1E2F1E2F1E2F1E2F1E2F1E2F1E2F1E94
S11301002F1E2A1EE127E527EB27EB27D927EB270C
S1130110EB27EB27DD27DB27EB27EB27EB27EB2769
S1130120EB27EB27E327E327EB27EB27EB27EB274B
S1130130EB27EB27DF27EB27EB27EB27EB27EB2737
S1130140EB27EB27E727EB27EB27EB27EB27EB271F
S1130150EB27EB27EB27EB27EB27EB27EB27EB270B
S1130160EB27EB27EB27EB27EB27EB27EB27EB27FB
S1130170EB27EB27EB27EB27EB27EB27EB27EB27EB
S1130180EB27EB27E9270000A00F5C00600969005A
S113019010097900C0088C007008A2002008BD0076
S11301A0D007DE008007050130073401E0066D0149
S11301B09006B20140060702F0056D02A005E802B0
S11301C050057B0300052B04B004F8046004EB061F
S11301D0C003350920037F0B8002650DE001B00EDA
S11301E040011D0FF000480FC8006C0FA000ED0F78
S11301F060FFFE0F48FE0400801AD8009808AC0186
S11302002007800250065403C80528045805FC043E
S11302100005D005B004A4066804780728044C0837
S1130220E8032009B003F4097003C80A38039C0BDF
S1130230F802700CB002440D6802180E0802EC0EAD
S11302408801C00F8800F00F00000400001B540058
S11302506009640010097400C008840070089C00E0
S11302602008B800D007D8008007000130072C010F
S1130270E00668019006AC0140060002F005680241
S1130280A005E0025005740300052404B004F00442
S11302906004DC051004E406C0030408700330099C
S11302A02003780B8002600DE001A80E4001680F66
S11302B0A000C00F0000E80F60FF0400700DD8001C
S11302C04804AC0158038002D80254038002280475
S11302D03802FC040002D005C801A406980178077E
S11302E070014C08480120091801F409F000C80AFB
S11302F0C8009C0BA000700C7000440D3800180E50
S11303000000EC0EA8FFC00FE8FE0000401F4500EF
S113031060094F0010095C00C0086B0070087D0084
S113032020089200D007AC008007CC003007DE0024
S1130330E006230190065E014006A601F005FF01D8
S1130340A0056D025005F30200059603B0045A049B
S11303506004400510044806C0036E077003A80833
S11303602003EB09D002230B8002410C3002390D2B
S1130370E001040E9001A20E4001170FF000690F76
S1130380A000A20F5000C60F0000DD0FB0FFEB0F5E
S113039060FF0400681D4C00500B94005809DC00F9
S11303A050082401A8076C012807B401C006FC0109
S11303B07006440228068C02F005D402B8051C031A
S11303C0880564035805AC033005F40310053C04A8
S11303D0E8048404C804CC04A804140590045C054F
S11303E07004A4055804EC053804340620047C0683
S11303F00804C406F0030C07D8035407C8039C0779
S1130400B003E40798032C08800374087003BC0845
S11304105803040948034C09300394091803DC0900
S11304200803240AF0026C0AE002B40AC802FC0AB7
S1130430B002440BA0028C0B8802D40B70021C0C7B
S11304405802640C4002AC0C2802F40C10023C0D5F
S1130450F001840DD801CC0DB801140E98015C0E86
S11304607001A40E4801EC0E1801340FD8007C0F63
S11304708800C40F0800FC0F00000000000000000A
S11304800000000000000000000000000000000068
S11304900000000000000000000000000000040054
S11304A00016D800C006AC0178058002C0045403CD
S11304B048042804E803FC049803D0055003A40668
S11304C018037807D8024C08A80220097002F4091E
S11304D03802C80A08029C0BD001700C9001440D2C
S11304E05001180EF800EC0E8800C00F0000040044
S11304F0401D900060091C01B007A801D006340219
S11305003806C002C8054C036805D80318056404FE
S1130510D804F00498047C056004080630049406AA
S113052000042007D003AC07A80338088003C408DC
S1130530580350093003DC090803680AE002F40A8E
S1130540B802800B88020C0C6002980C3002240D57
S1130550F801B00DC0013C0E8001C80E3001540FEB
S1130560B800B40F2800E00F00000400081D90003C
S113057058091C01B007A801C80634023006C0029D
S1130580C0054C036805D80318056404D004F004BE
S113059098047C05600408063004940600042007CF
S11305A0D003AC07A80338088003C40858035009D3
S11305B03003DC090803680AD802F40AB002800B8D
S11305C088020C0C6002980C3002240DF801B00D66
S11305D0C0013C0E8001C80E3001540FB800B40FA6
S11305E02800E00F0000000000008C030800AE03A8
S11305F05000D603A000F703F000180440013804AB
S113060090015904E0017A0430029A048002BB0488
S1130610D002FC0470032605C00386063007970940
S1130620A00F750D201C520E401F1F0F6022FF0FDC
S1130630803E0400501D7C00D009A4001009CC00A9
S11306408008F40010081C01B807440168076C0115
S113065028079401E806BC01B806E40188060C02E8
S11306606006340238065C0218068402F005AC0207
S1130670D805D402B805FC02980524038005740348
S11306805005C4032805140400056404D804B40404
S1130690B0042C058004A40558041C062804940600
S11306A000040C07D803AC07A8034C087803EC0833
S11306B048038C092003A40AD0021C0BA802AC0C2A
S11306C02802FC0C0802C40DB801140E9801B40EE3
S11306D038012C0FE000540FB8007C0F8800A40FE1
S11306E04800F40F28FFFC0FC0F98601F6014A0206
S11306F0BA020000000000000A0392039E04EE0404
S11307006A05E60532061C151C1400000022431479
S11307101F1F132E11241FBECFEFD1E2DEBFCDBFAA
S113072000E00CBF13E0A0E0B2E0E8E8F1E700E08D
S11307300BBF02C007900D92A233B107D9F727E08F
S1130740A2E3B3E001C01D92AE33B207E1F7BBD31D
S11307500C94C23855CCCF93DF93CDB7DEB71BD002
S113076013D0BAD0E0D08091000290910102A09100
S11307700202B0910302BC01CD0147D40E947B2B3D
S11307807894DF91CF910895CF93DF93CDB7DEB7FF
S1130790DF91CF910895CF93DF93CDB7DEB781E298
S11307A090E0FC01808181E290E02FEFFC01208346
S11307B082E290E0FC01808182E290E0FC01108200
S11307C084E290E024E230E0F9012081216FFC0111
S11307D0208385E290E025E230E0F90120812E704B
S11307E0FC01208387E290E0FC01808187E290E0B5
S11307F02FEFFC01208388E290E0FC01808188E2F5
S113080090E0FC0110828AE290E0FC0180818AE29F
S113081090E02FEFFC0120838BE290E0FC018081CB
S11308208BE290E0FC0110828DE290E0FC0180817B
S11308308DE290E02FEFFC0120838EE290E0FC013A
S113084080818EE290E0FC01108283E390E0FC0161
S1130850808183E390E02FEFFC01208384E390E028
S1130860FC01808184E390E0FC01108281E091E04E
S1130870FC01808181E091E02FEFFC01208382E084
S113088091E0FC01808182E091E0FC01108284E02F
S113089091E0FC01808184E091E02FEFFC01208352
S11308A085E091E0FC01808185E091E0FC0110820B
S11308B08AE091E0FC0180818AE091E02FEFFC0165
S11308C020838BE091E0FC0180818BE091E0FC01CE
S11308D01082DF91CF910895CF93DF93CDB7DEB728
S11308E084E490E024E430E0F90120812260FC01FA
S11308F0208385E490E025E430E0F9012081236041
S1130900FC01208387E490E020E4FC0120838EE650
S113091090E02EE630E0F90120812260FC01208382
S1130920DF91CF910895CF93DF93CDB7DEB781E800
S113093090E021E830E0F90120812860FC01208367
S113094081E890E021E830E0F90120812360FC0196
S1130950208388E890E029EF30E0FC013183208394
S11309608FE690E022E0FC012083DF91CF9108958F
S11309701F920F9200905F000F9211248F939F9308
S1130980AF93BF93CF93DF931F921F92CDB7DEB780
S11309908091320390913303A0913403B0913503D5
S11309A00196A11DB11D8093320390933303A0934C
S11309B03403B093350380913603909137039A83BF
S11309C0898389819A81892B59F089819A81019738
S11309D09A83898389819A8190933703809336031C
S11309E080913803909139039A83898389819A810C
S11309F0892B59F089819A8101979A838983898106
S1130A009A81909339038093380380913A039091AB
S1130A103B039A83898389819A81892B59F089813F
S1130A209A8101979A83898389819A8190933B0360
S1130A3080933A030F900F90DF91CF91BF91AF91C4
S1130A409F918F910F9000925F000F901F901895C7
S1130A501F920F9200905F000F92112400905B0090
S1130A600F922F933F938F939F93EF93FF93CF9383
S1130A70DF93CDB7DEB787E490E027E430E0F901F7
S1130A802081205CFC01208380913E03882309F0AF
S1130A9066C08091530380933F0380913F03882372
S1130AA049F08BE091E02BE031E0F90120812061F5
S1130AB0FC01208380915403809340038091400380
S1130AC0882349F08BE091E02BE031E0F9012081AB
S1130AD02062FC012083809155038093410380911F
S1130AE04103882349F08EE290E02EE230E0F901E0
S1130AF020812061FC01208380915603809342036E
S1130B0080914203882349F08EE290E02EE230E0A7
S1130B10F90120812860FC01208380915703809390
S1130B20430380914303882349F084E390E024E362
S1130B3030E0F90120812062FC0120838091580378
S1130B408093440380914403882349F08BE091E02F
S1130B502BE031E0F90120812860FC0120838091A1
S1130B604503882311F58091900680934603809174
S1130B704603882349F085E091E025E031E0F9015E
S1130B8020812068FC012083809192068093470392
S1130B9080914703882349F085E290E025E230E024
S1130BA0F90120812068FC01208390913F0380910A
S1130BB03E03981769F480913F038F3F49F08BE01F
S1130BC091E02BE031E0F90120812F7EFC012083AC
S1130BD09091460380914503981769F480914603E8
S1130BE08F3F49F085E091E025E031E0F901208173
S1130BF02F77FC0120839091400380913E03981746
S1130C0069F4809140038F3F49F08BE091E02BE041
S1130C1031E0F90120812F7DFC012083909147036D
S1130C2080914503981769F4809147038F3F49F0F9
S1130C3085E290E025E230E0F90120812F77FC0184
S1130C4020839091410380913E03981769F4809129
S1130C5041038F3F49F08EE290E02EE230E0F9014B
S1130C6020812F7EFC0120839091420380913E03DA
S1130C70981769F4809142038F3F49F08EE290E027
S1130C802EE230E0F9012081277FFC01208390913E
S1130C90430380913E03981769F4809143038F3F87
S1130CA049F084E390E024E330E0F90120812F7DD2
S1130CB0FC0120839091440380913E03981769F4CA
S1130CC0809144038F3F49F08BE091E02BE031E0C9
S1130CD0F9012081277FFC012083809145038F5FE8
S1130CE08093450380913E038F5F80933E03DF91A1
S1130CF0CF91FF91EF919F918F913F912F910F9001
S1130D0000925B000F9000925F000F901F90189567
S1130D101F920F9200905F000F92112400905B00CD
S1130D200F922F933F934F935F938F939F93EF93E0
S1130D30FF93CF93DF931F921F92CDB7DEB788E75F
S1130D4090E0FC012081318180913D03882F90E067
S1130D5040913D03442F50E0440F551F41595C4FCF
S1130D60FA0140815181240F351F880F991F815941
S1130D709C4FFC013183208380913D03882F90E0B8
S1130D809C01265A3C4FF901208141E0420F9C010D
S1130D90265A3C4FF9014083865A9C4FFC018081BE
S1130DA0803208F472C080913D03882F90E0209136
S1130DB03D03222F30E0220F331F21593C4FF9010C
S1130DC02081318136952795369527953695279537
S1130DD0880F991F8F599C4FFC0131832083809188
S1130DE03D03882F90E0880F991F81599C4FFC0187
S1130DF01182108280913D03882F90E0865A9C4F87
S1130E00FC01108280913D038F5F80933D038091AC
S1130E103D03873010F010923D0380913D03282F4D
S1130E2030E042E4429FC001439F900D11248C5353
S1130E309B4FFC01808189838981882F90E0887091
S1130E409927892B51F08BE790E02BE730E0F901EB
S1130E5020812860FC01208309C08BE790E02BE708
S1130E6030E0F9012081277FFC0120838CE790E0AA
S1130E70FC018081982F907E89818770892B8A83D9
S1130E808CE790E02A81FC0120838AE790E02AE73E
S1130E9030E0F90120812064FC0120830F900F9041
S1130EA0DF91CF91FF91EF919F918F915F914F913E
S1130EB03F912F910F9000925B000F9000925F0082
S1130EC00F901F901895CF93DF93CDB7DEB781EDC8
S1130ED09DE125D085EF9EE10E94351E3CDC0E94F9
S1130EE03F1F0E94B52C88EE93E090933B038093C0
S1130EF03A0384E594E026D00E946A280E94481EA2
S1130F0080913A0390913B03892B41F40E94B12FC5
S1130F1088EE93E090933B0380933A03EACFCF9318
S1130F20DF931F921F92CDB7DEB79A83898389819D
S1130F309A8190934903809348030F900F90DF9117
S1130F40CF910895CF93DF931F921F92CDB7DEB751
S1130F509A83898380917E038823B1F0809148032A
S1130F6090914903892B61F089819A8122D1209142
S1130F7048033091490389819A81F901199504C084
S1130F8080911304809312040F900F90DF91CF91FE
S1130F900895CF93DF931F921F92CDB7DEB78A8354
S1130FA019828A81803338F08A818A3320F48A81D5
S1130FB08053898309C08A81813430F08A818734DF
S1130FC018F48A818753898389810F900F90DF9168
S1130FD0CF910895CF93DF931F92CDB7DEB7898366
S1130FE089818A3020F48981805D898309C089815F
S1130FF08A3030F08981803118F48981895C898351
S113100089810F90DF91CF910895CF93DF93CDB76E
S1131010DEB72A970FB6F894DEBF0FBECDBF6B8341
S11310207C838D839E8380E492E4AFE0B0E02B81E7
S11310303C814D815E81BC01CD010E945A38DA01A8
S1131040C90101979A83898385ED90E029813A81CA
S1131050232F3327FC01208384ED90E02981FC01B8
S1131060208381ED90E021ED30E0F90120812869B1
S1131070FC01208382ED90E026E0FC0120832A9687
S11310800FB6F894DEBF0FBECDBFDF91CF910895A8
S1131090CF93DF931F921F92CDB7DEB78A838091DF
S11310A07D038F5F8F7789830000809191039981FD
S11310B09817D9F38981882F90E08E569C4F2A8106
S11310C0FC012083898180937D0381ED90E021EDF3
S11310D030E0F90120812062FC0120830F900F9001
S11310E0DF91CF9108951F920F9200905F000F92AD
S11310F0112400905B000F922F933F938F939F9343
S1131100EF93FF93CF93DF93CDB7DEB790917D0339
S113111080919103981799F0809191038F5F8F7755
S11311208093910386ED90E020919103222F30E08B
S11311302E563C4FF9012081FC01208309C081ED2A
S113114090E021ED30E0F90120812F7DFC01208326
S1131150DF91CF91FF91EF919F918F913F912F91CB
S11311600F9000925B000F9000925F000F901F9011
S11311701895CF93DF93CDB7DEB790911204809189
S11311801304981719F48FEF9FEF10C08091130484
S11311908F5F8F738093130480911304882F90E0E2
S11311A08C5E9B4FFC018081882F90E0DF91CF9172
S11311B00895FF920F931F93CF93DF93CDB7DEB7BC
S11311C028970FB6F894DEBF0FBECDBF98878F83E4
S11311D08F8198859D838C8319821A821B828F81CB
S11311E09885019698878F8380917E038823D1F117
S11311F02AC08E818D3009F42BC089818823E9F0BF
S11312008A818823B9F08B818F5F8B830F81188546
S1131210C801019698878F838A81BBDEF82EFF0C64
S1131220FF0CFF0CFF0C8E81B4DE8F0DF801808360
S11312301A8209C08E818A8306C08E818A3319F48A
S113124081E089831A8295DF8E838E81882389F6D3
S11312508C819D812B81FC01208380917E038150B0
S113126080937E038C819D8128960FB6F894DEBF0F
S11312700FBECDBFDF91CF911F910F91FF900895C5
S11312801F920F9200905F000F92112400905B0058
S11312900F920F931F938F939F93EF93FF93CF938B
S11312A0DF93CDB7DEB786ED90E0FC01008180913D
S11312B012048F5F182F1F7380911304181729F4D9
S11312C080911304809312041AC0802F90E08A3016
S11312D09105A1F08D30910519F0892B79F005C0A5
S11312E080917E038F5F80937E0310931204812F7D
S11312F090E08C5E9B4FFC01008301C00000DF91F5
S1131300CF91FF91EF919F918F911F910F910F902A
S113131000925B000F9000925F000F901F90189551
S1131320CF93DF9300D01F921F92CDB7DEB79C837B
S11313308B836D83198281E08A830FC08A81882F11
S113134090E02B813C81820F931FFC018081998165
S1131350890F89838A818F5F8A839A818D81981707
S113136068F3898181950F900F900F900F900F90E3
S1131370DF91CF910895CF93DF9300D000D0CDB704
S1131380DEB79E838D838D819E819C0140E050E079
S11313908091320390913303A0913403B0913503CB
S11313A0820F931FA41FB51F89839A83AB83BC83C9
S11313B0000029813A814B815C81809132039091B4
S11313C03303A0913403B091350382179307A40724
S11313D0B50778F326960FB6F894DEBF0FBECDBFDF
S11313E0DF91CF910895CF93DF9300D0CDB7DEB7CF
S11313F08B838B8182958F708983998180EF989FED
S1131400902D11248B81890F8A838981E3DD89835F
S11314108A81E0DD8A8389813BDE8A8139DE0F900F
S11314200F900F90DF91CF9108951F93CF93DF9387
S113143000D0CDB7DEB79B838A838AE329DE198285
S11314400FC08981882F90E001962A813B81820F09
S1131450931FFC011081812FC6DF89818F5F8983EF
S11314608A819B81FC0190818981891750F38DE0E9
S11314700FDE8AE00DDE82E090E07DDF0F900F90BA
S11314800F90DF91CF911F910895CF93DF9300D0F8
S113149000D0CDB7DEB79E838D838D819E81FC0104
S11314A08081882F90E002972D813E81820F931FC7
S11314B0FC018081882F90E0382F22278D819E8126
S11314C0FC018081882F90E001974D815E81840F1B
S11314D0951FFC018081882F90E0820F931F9A83CF
S11314E089838D819E810396FC018081882F90E001
S11314F0382F22278D819E810496FC018081882FBC
S113150090E0820F931F9C838B838B819C8181311C
S1131510F4E09F0709F4CDC4823124E0920708F077
S1131520C5C0893FE3E09E0709F4ADC28A3FF3E0FA
S11315309F0708F05FC08E3E23E0920709F431C292
S11315408F3EE3E09E0750F5893EF3E09F0709F4E0
S1131550C6C18A3E23E0920768F48436910509F4F3
S113156097C1883EE3E09E0709F4B5C1019709F4E9
S11315705FC161C68B3EF3E09F0709F4D2C18B3E85
S113158023E0920708F4AFC18C3EE3E09E0709F420
S1131590E6C18D3E934009F400C24DC6843F23E06A
S11315A0920709F40EC2853FE3E09E0778F4823F78
S11315B0F3E09F0709F4FDC1833F23E0920708F09D
S11315C0FCC18F3E934009F4F0C135C6863FF3E079
S11315D09F0709F432C2863F23E0920708F40FC242
S11315E0873FE3E09E0709F446C2883F934009F42D
S11315F046C221C6863024E0920709F4E8C3873046
S1131600E4E09E0760F58F3FF3E09F0709F4CEC244
S1131610811524E0920778F48D3FE3E09E0709F4F6
S113162043C28E3FF3E09F0708F04BC28C3F9340C8
S113163009F42DC200C68130E4E09E0709F4A0C37A
S11316408130F4E09F0708F426C3823024E0920737
S113165009F4A3C38330944009F4ACC3ECC58A30C5
S1131660F4E09F0709F4F7C38B3024E0920750F4A9
S11316708830E4E09E0709F4B2C38930944008F04E
S1131680CCC3A9C38C3024E0920709F406C48C307F
S1131690E4E09E0708F4FDC38D30F4E09F0709F4ED
S11316A000C48031944009F400C4C5C58732E4E025
S11316B09E0709F4FCC48832F4E09F0708F05BC07D
S11316C08C3124E0920709F466C48D31E4E09E076E
S11316D038F58531F4E09F0709F449C4863124E0E4
S11316E0920750F48331E4E09E0709F404C4843182
S11316F0944008F01EC4E1C3873124E0920709F442
S11317003EC48731E4E09E0708F435C48A31F4E02E
S11317109F0709F438C48B31944009F438C48BC54D
S11317208032E4E09E0709F494C48132F4E09F0718
S113173050F48E3124E0920709F469C48F31944047
S113174008F083C446C48432F4E09F0709F489C4D2
S1131750853224E0920728F48132944009F47DC450
S11317606AC58532F4E09F0709F47FC48632944049
S113177009F47FC460C58233E4E09E0709F423C5FD
S11317808333F4E09F0758F58B3224E0920709F481
S1131790D2C48C32E4E09E0750F48932F4E09F070F
S11317A009F4C1C48A32944008F0C1C49EC48F3283
S11317B0E4E09E0709F4C7C48033F4E09F0728F4EB
S11317C08E32944009F4BBC436C58033E4E09E07EE
S11317D009F4BDC48133944009F4D7C42CC58032C4
S11317E02EE4920741F18132EEE49E0778F48433CB
S11317F0F4E09F0709F409C5843324E0920708F450
S113180000C58533944009F404C515C58232FEE44D
S11318109F0709F182322EE49207A8F08438EEE49F
S11318209E0709F4FAC48E389E4409F4FDC403C526
S11318300E947D2800C589819A81BC0181EC94E0D5
S11318400E94C228F8C489819A81BC0183E095E092
S11318500E94C228F0C489819A81BC0185E495E084
S11318600E94C22889819A81BC0187E895E00E9480
S1131870C22889819A81BC0189EC95E00E94C22822
S113188089819A81BC018BE096E00E94C228D3C46E
S113189089819A8180789927892B59F080913C031A
S11318A08F7380933C0380913C03806880933C0356
S11318B011C089819A8180749927892B59F080916C
S11318C03C038F7380933C0380913C03806480933A
S11318D03C03B1C4B0C489818093C304ACC489817E
S11318E08093D504A8C489819A81CC01A0E0B0E09A
S11318F0BC01CD010E943237DC01CB0120E030E095
S113190048EC52E4BC01CD010E949936DC01CB01C4
S11319108093DC049093DD04A093DE04B093DF0491
S11319208AC489819A81CC01A0E0B0E0BC01CD01D8
S11319300E943237DC01CB0120E030E048EC52E475
S1131940BC01CD010E949936DC01CB018093E004F7
S11319509093E104A093E204B093E3046CC48981FE
S11319609A81CC01A0E0B0E0BC01CD010E943237E5
S1131970DC01CB0120E030E048EC52E4BC01CD01B5
S11319800E949936DC01CB018093E4049093E50432
S1131990A093E604B093E7044EC489818093DA04EB
S11319A04AC489818093DB0446C489818093E80416
S11319B042C48981809305053EC4898180931705BB
S11319C03AC489819A81CC01A0E0B0E0BC01CD0188
S11319D00E943237DC01CB0120E030E048EC52E4D5
S11319E0BC01CD010E949936DC01CB0180931E0518
S11319F090931F05A0932005B09321051CC48981F1
S1131A009A81CC01A0E0B0E0BC01CD010E94323744
S1131A10DC01CB0120E030E048EC52E4BC01CD0114
S1131A200E949936DC01CB01809322059093230513
S1131A30A0932405B0932505FEC389819A81CC0126
S1131A40A0E0B0E0BC01CD010E943237DC01CB0143
S1131A5020E030E048EC52E4BC01CD010E9499360C
S1131A60DC01CB018093260590932705A0932805DC
S1131A70B0932905E0C3898180931C05DCC3898167
S1131A8080931D05D8C3898180932A05D4C3898195
S1131A908093470589818093890589818093CB054B
S1131AA0898180930D06C7C38981809359058981F3
S1131AB080939B0589818093DD05898180931F062E
S1131AC0BAC389819A81CC01A0E0B0E0BC01CD0108
S1131AD00E943237DC01CB0120E030E048EC52E4D4
S1131AE0BC01CD010E949936DC01CB0180936405D1
S1131AF090936505A0936605B093670589819A81E3
S1131B00CC01A0E0B0E0BC01CD010E943237DC0181
S1131B10CB0120E030E048EC52E4BC01CD010E944E
S1131B209936DC01CB018093A6059093A705A09379
S1131B30A805B093A90589819A81CC01A0E0B0E001
S1131B40BC01CD010E943237DC01CB0120E030E042
S1131B5048EC52E4BC01CD010E949936DC01CB0172
S1131B608093E8059093E905A093EA05B093EB050B
S1131B7089819A81CC01A0E0B0E0BC01CD010E9432
S1131B803237DC01CB0120E030E048EC52E4BC0108
S1131B90CD010E949936DC01CB0180932A069093F3
S1131BA02B06A0932C06B0932D0645C389819A81F8
S1131BB0CC01A0E0B0E0BC01CD010E943237DC01D1
S1131BC0CB0120E030E048EC52E4BC01CD010E949E
S1131BD09936DC01CB018093640590936505A0934D
S1131BE06605B093670589819A81CC01A0E0B0E0D5
S1131BF0BC01CD010E943237DC01CB0120E030E092
S1131C0048EC52E4BC01CD010E949936DC01CB01C1
S1131C108093A6059093A705A093A805B093A90562
S1131C2089819A81CC01A0E0B0E0BC01CD010E9481
S1131C303237DC01CB0120E030E048EC52E4BC0157
S1131C40CD010E949936DC01CB018093E805909385
S1131C50E905A093EA05B093EB0589819A81CC014B
S1131C60A0E0B0E0BC01CD010E943237DC01CB0121
S1131C7020E030E048EC52E4BC01CD010E949936EA
S1131C80DC01CB0180932A0690932B06A0932C06AB
S1131C90B0932D06D0C289819A81CC01A0E0B0E036
S1131CA0BC01CD010E943237DC01CB0120E030E0E1
S1131CB048EC52E4BC01CD010E949936DC01CB0111
S1131CC08093680590936905A0936A05B0936B05AA
S1131CD089819A81CC01A0E0B0E0BC01CD010E94D1
S1131CE03237DC01CB0120E030E048EC52E4BC01A7
S1131CF0CD010E949936DC01CB018093AA05909313
S1131D00AB05A093AC05B093AD0589819A81CC0154
S1131D10A0E0B0E0BC01CD010E943237DC01CB0170
S1131D2020E030E048EC52E4BC01CD010E94993639
S1131D30DC01CB018093EC059093ED05A093EE05B7
S1131D40B093EF0589819A81CC01A0E0B0E0BC0199
S1131D50CD010E943237DC01CB0120E030E048ECB9
S1131D6052E4BC01CD010E949936DC01CB01809381
S1131D702E0690932F06A0933006B09331065BC2D3
S1131D80898180935E0589818093A00589818093F0
S1131D90E2058981809324064EC2898180935F0580
S1131DA089818093A10589818093E305898180934A
S1131DB0250641C2898180936C0589818093AE0593
S1131DC089818093F00589818093320634C28981A8
S1131DD080934F0630C28981809361062CC2898129
S1131DE09A81CC01A0E0B0E0BC01CD010E94323761
S1131DF0DC01CB0120E030E048EC52E4BC01CD0131
S1131E000E949936DC01CB018093680690936906A1
S1131E10A0936A06B0936B060EC289819A81CC01A5
S1131E20A0E0B0E0BC01CD010E943237DC01CB015F
S1131E3020E030E048EC52E4BC01CD010E94993628
S1131E40DC01CB0180936C0690936D06A0936E0623
S1131E50B0936F06F0C189819A81CC01A0E0B0E013
S1131E60BC01CD010E943237DC01CB0120E030E01F
S1131E7048EC52E4BC01CD010E949936DC01CB014F
S1131E808093700690937106A0937206B0937306C4
S1131E90D2C1898180936606CEC189818093670609
S1131EA0CAC1898180937406C6C18981809347051C
S1131EB0C2C1898180935905BEC189819A81CC01AF
S1131EC0A0E0B0E0BC01CD010E943237DC01CB01BF
S1131ED020E030E048EC52E4BC01CD010E94993688
S1131EE0DC01CB018093600590936105A0936205AA
S1131EF0B0936305A0C189819A81CC01A0E0B0E0D0
S1131F00BC01CD010E943237DC01CB0120E030E07E
S1131F1048EC52E4BC01CD010E949936DC01CB01AE
S1131F208093640590936505A0936605B093670557
S1131F3082C189819A81CC01A0E0B0E0BC01CD01CD
S1131F400E943237DC01CB0120E030E048EC52E45F
S1131F50BC01CD010E949936DC01CB018093680558
S1131F6090936905A0936A05B0936B0564C1898158
S1131F7080935E0560C1898180935F055CC189811E
S1131F8080936C0558C189818093890554C18981E6
S1131F9080939B0550C189819A81CC01A0E0B0E077
S1131FA0BC01CD010E943237DC01CB0120E030E0DE
S1131FB048EC52E4BC01CD010E949936DC01CB010E
S1131FC08093A2059093A305A093A405B093A505BF
S1131FD032C189819A81CC01A0E0B0E0BC01CD017D
S1131FE00E943237DC01CB0120E030E048EC52E4BF
S1131FF0BC01CD010E949936DC01CB018093A6057A
S11320009093A705A093A805B093A90514C189814D
S11320109A81CC01A0E0B0E0BC01CD010E9432372E
S1132020DC01CB0120E030E048EC52E4BC01CD01FE
S11320300E949936DC01CB018093AA059093AB05ED
S1132040A093AC05B093AD05F6C089818093A0053B
S1132050F2C089818093A105EEC089818093AE0589
S1132060EAC089818093CB05E6C089818093DD0530
S1132070E2C089819A81CC01A0E0B0E0BC01CD012D
S11320800E943237DC01CB0120E030E048EC52E41E
S1132090BC01CD010E949936DC01CB018093E4059B
S11320A09093E505A093E605B093E705C4C0898144
S11320B09A81CC01A0E0B0E0BC01CD010E9432378E
S11320C0DC01CB0120E030E048EC52E4BC01CD015E
S11320D00E949936DC01CB018093E8059093E905D1
S11320E0A093EA05B093EB05A6C089819A81CC013F
S11320F0A0E0B0E0BC01CD010E943237DC01CB018D
S113210020E030E048EC52E4BC01CD010E94993655
S1132110DC01CB018093EC059093ED05A093EE05D3
S1132120B093EF0588C089818093E20584C08981DA
S11321308093E30580C089818093F0057CC0898108
S113214080930D0678C0898180931F0674C08981AD
S11321509A81CC01A0E0B0E0BC01CD010E943237ED
S1132160DC01CB0120E030E048EC52E4BC01CD01BD
S11321700E949936DC01CB018093260690932706B2
S1132180A0932806B093290656C089819A81CC0170
S1132190A0E0B0E0BC01CD010E943237DC01CB01EC
S11321A020E030E048EC52E4BC01CD010E949936B5
S11321B0DC01CB0180932A0690932B06A0932C0676
S11321C0B0932D0638C089819A81CC01A0E0B0E09B
S11321D0BC01CD010E943237DC01CB0120E030E0AC
S11321E048EC52E4BC01CD010E949936DC01CB01DC
S11321F080932E0690932F06A0933006B093310659
S11322001AC089818093240616C08981809325068B
S113221012C08981809332060EC089819A8190937D
S113222029078093280707C089819A8190933807EA
S11322308093370700008D819E81F7D881E0269630
S11322400FB6F894DEBF0FBECDBFDF91CF910895D6
S11322500F931F93CF93DF93CDB7DEB765970FB678
S1132260F894DEBF0FBECDBF9D8B8C8B8C899D896E
S11322700596FC018081882F90E0382F22278C89D5
S11322809D890696FC018081882F90E0820F931F20
S11322909F838E838C899D890396FC018081882F7E
S11322A090E0382F22278C899D890496FC01808137
S11322B0882F90E0820F931F998788871B861A8640
S11322C080E090E0A8E4B2E48C879D87AE87BF8766
S11322D0198A188A19821B821A821B8A1A8A1C82FA
S11322E01092190710921A0710921B0710921C07DC
S11322F010921D0710921E0710921F071D82CEC058
S11323008D81282F30E088859985820F931F853F22
S1132310F1E09F07A1F1863F21E0920709F47CC018
S1132320843F914009F0B4C08C81882F90E00896D6
S11323309C018C899D89820F931FFC018081882FC9
S113234090E0982F88279B878A878C818F5F8C8366
S11323508C81882F90E008969C018C899D89820F3E
S1132360931FFC018081882F90E02A853B85822B76
S1132370932B9B878A878A858093190789C08C81D0
S1132380882F90E008969C018C899D89820F931F69
S1132390FC018081882F90E0982F88279B8B8A8B63
S11323A08C818F5F8C838C81882F90E008969C01B0
S11323B08C899D89820F931FFC018081882F90E076
S11323C02A893B89822B932B9B8B8A8B8A899B89B5
S11323D0CC01A0E0B0E0BC01CD010E943237DC01A9
S11323E0CB0120E030E048EC52E4BC01CD010E9476
S11323F09936DC01CB018C879D87AE87BF878C859E
S11324009D85AE85BF8580931A0790931B07A09383
S11324101C07B0931D073CC08C81882F90E0089660
S11324209C018C899D89820F931FFC018081882FD8
S113243090E0982F88279B838A838C818F5F8C837D
S11324408C81882F90E008969C018C899D89820F4D
S1132450931FFC018081882F90E02A813B81822B8D
S1132460932B9B838A838A819B8199233CF481E00B
S113247089838A819B819F779B838A838A818093C6
S11324801E07898180931F0781E080934A0300001F
S11324908C818F5F8C838D818F5F8D838D81282FBD
S11324A030E08E819F812817390708F429CF8C8961
S11324B09D8927E0FC0120838C899D89FC01808112
S11324C0882F90E02C893D898901080F191F8C8978
S11324D09D89FC0120818C899D89622F0E9490092D
S11324E0F80180838C899D890E94150A81E0659694
S11324F00FB6F894DEBF0FBECDBFDF91CF911F9111
S11325000F910895CF93DF93CDB7DEB729970FB618
S1132510F894DEBF0FBECDBF9D838C837F836E8313
S1132520598748878C819D81892F992789838E813A
S11325309F81FC0180818A838A818F5F8A838A815B
S1132540882F90E0039628853985820F931F29816F
S1132550FC0120838C818B838A818F5F8A838A81AB
S1132560882F90E0039628853985820F931F2B814D
S1132570FC0120838E819F812A81FC01208329967E
S11325800FB6F894DEBF0FBECDBFDF91CF91089593
S1132590EF92FF920F931F93CF93DF93CDB7DEB7E4
S11325A02E970FB6F894DEBF0FBECDBF9E878D87E2
S11325B08D859E85FC018081882F90E001972D8573
S11325C03E85820F931FFC018081882F90E09B83BE
S11325D08A838D859E850396FC018081882F90E0F7
S11325E0382F22278D859E850496FC018081882FB3
S11325F090E0820F931F9D838C831C861F821E8212
S1132600188619861A861B8619820C94931D898153
S1132610282F30E08C819D81820F931F8A31F4E052
S11326209F0709F48DC78B3124E0920708F001C19C
S11326308F3FE3E09E0709F4A5C58115F4E09F07E9
S113264008F07EC0823F23E0920709F481C4833FEF
S1132650E3E09E07C0F58B3EF3E09F0709F4F2C365
S11326608C3E23E09207D0F4883EE3E09E0709F411
S11326709FC3893EF3E09F0730F48835924009F404
S113268072C30C94901D893EE3E09E0709F49CC339
S11326908A3E934009F4A5C30C94901D8D3E23E01B
S11326A0920709F431C48D3EE3E09E0708F4FBC3AE
S11326B08E3EF3E09F0709F433C48F3E934009F440
S11326C03BC40C94901D873FE3E09E0709F4ECC4DF
S11326D0883FF3E09F07A8F4843F23E0920709F4BE
S11326E050C4843FE3E09E0708F43EC4853FF3E012
S11326F09F0709F477C4863F934009F4A4C40C945B
S1132700901D8C3FE3E09E0709F4F2C48D3FF3E093
S11327109F0758F4883F23E0920709F4D1C4893F06
S1132720934009F4D9C40C94901D8D3FF3E09F07A6
S113273009F4EAC48E3F934009F4F3C40C94901D49
S11327408B30E4E09E0709F404C68C30F4E09F0764
S113275098F5863024E0920709F49AC58730E4E0BE
S11327609E07A8F48130F4E09F0709F46DC5813019
S113277024E0920708F437C58230E4E09E0709F4A8
S11327806FC58330944009F477C50C94901D88304C
S113279024E0920709F495C58830E4E09E0708F424
S11327A083C58930F4E09F0709F4A3C58A309440B7
S11327B009F4B7C50C94901D8231E4E09E0709F436
S11327C005C68331F4E09F07A8F48D3024E0920716
S11327D009F4D7C58D30E4E09E0708F4C6C58031FE
S11327E0F4E09F0709F4D9C58131944009F4E1C5A7
S11327F00C94901D8531E4E09E0709F47AC6863175
S1132800F4E09F0758F4833124E0920709F40FC6DB
S11328108431944009F43CC60C94901D8631F4E054
S11328209F0709F473C68731944009F47CC60C945D
S1132830901D8333E4E09E0711F40C94011D84334E
S1132840F4E09F0708F07BC0863224E0920709F485
S11328506AC78732E4E09E0798F58F31F4E09F075A
S113286009F41FC7803224E09207A8F48C31E4E015
S11328709E0709F480C68C31F4E09F0708F46DC606
S11328808D3124E0920709F4A8C68E31944009F4EE
S1132890D6C60C94901D8132F4E09F0709F41BC73F
S11328A0813224E0920708F409C78432E4E09E07E9
S11328B009F41EC78532944009F427C70C94901D6F
S11328C08B3224E0920709F4DEC78C32E4E09E07E1
S11328D0A8F48832F4E09F0709F489C7883224E019
S11328E0920708F452C78932E4E09E0709F4B1C79D
S11328F08A32944009F4BAC70C94901D803324E0C2
S1132900920709F4E8C78133E4E09E0758F48E3255
S1132910F4E09F0709F4C4C78F32944009F4CDC78B
S11329200C94901D8133E4E09E0711F40C949D1CDB
S11329308233944011F40C94CF1C0C94901D8A346F
S11329402CE9920709F49BC18B34ECE99E0708F04B
S11329503FC08234FCE99F0709F4B6C083342CE9F4
S11329609207B8F48533E4E09E0711F40C941B1D20
S11329708533F4E09F0710F40C940E1D80342CE989
S1132980920709F46FC081349C4909F47AC00C940D
S1132990901D8534FCE99F0709F4F0C086342CE9C6
S11329A0920758F48334ECE99E0709F49CC08434FC
S11329B09C4909F4BAC00C94901D86342CE9920702
S11329C009F4B4C188349C4909F43CC10C94901DA9
S11329D0863AFCE99F0711F40C94421D873A2CE9CE
S11329E09207E0F48E34ECE99E0709F482C18F3437
S11329F0FCE99F0730F48C349C4909F45DC10C94C4
S1132A00901D843AECE99E0711F40C94281D853A34
S1132A109C4911F40C94351D0C94901D8F3A2CE9AB
S1132A20920711F40C94691D803BECE99E0768F44D
S1132A30873AFCE99F0711F40C944F1D8E3A9C4988
S1132A4011F40C945C1D0C94901D803BECE99E07E2
S1132A5011F40C94761D813B9C4911F40C94831D54
S1132A600C94901D8091C5049091C604FC012D85A1
S1132A703E85CE010C96A901BC01CF0143DD0C9427
S1132A80901D8091C9049091CA04A091CB04B09187
S1132A90CC0420E030E048EC52E4BC01CD010E94BB
S1132AA0E837DC01CB01BC01CD010E940637DC0113
S1132AB0CB01FC012D853E85CE010C96A901BC01FC
S1132AC0CF0120DD0C94901D80910705909108059D
S1132AD0FC012D853E85CE010C96A901BC01CF01D8
S1132AE011DD0C94901D80910B0590910C05A09123
S1132AF00D05B0910E0520E030E048EC52E4BC0135
S1132B00CD010E94E837DC01CB01BC01CD010E945C
S1132B100637DC01CB01FC012D853E85CE010C96E8
S1132B20A901BC01CF01EEDCFBC72091490530911E
S1132B304A0580918B0590918C05280F391F80914F
S1132B40CD059091CE05280F391F80910F069091E5
S1132B501006820F931F99230CF40396959587957D
S1132B60959587959F838E834D855E859E01245F11
S1132B703F4F8E819F81B901C5DCD2C780914D053D
S1132B8090914E05A0914F05B091500520918F056D
S1132B90309190054091910550919205BC01CD0171
S1132BA00E943136DC01CB017C018D018091D1057D
S1132BB09091D205A091D305B091D4059C01AD01AB
S1132BC0C801B7010E943136DC01CB017C018D01C3
S1132BD08091130690911406A0911506B0911606E3
S1132BE09C01AD01C801B7010E943136DC01CB0163
S1132BF020E030E040E850E4BC01CD010E94993669
S1132C00DC01CB0120E030E048EC52E4BC01CD0112
S1132C100E94E837DC01CB0188879987AA87BB87A4
S1132C20688579858A859B850E940637DC01CB01FE
S1132C30FC012D853E85CE010C96A901BC01CF0176
S1132C4061DC6EC780914D0590914E05A0914F05B2
S1132C50B0915005BC01CD010E940637DC01CB01C7
S1132C609C0144E6429FC001439F900D11244D8571
S1132C705E859E01245F3F4FB90144DC51C78091BA
S1132C808F0590919005A0919105B0919205BC019A
S1132C90CD010E940637DC01CB019C0144E6429F32
S1132CA0C001439F900D11244D855E859E01245FD4
S1132CB03F4FB90127DC34C78091D1059091D205EB
S1132CC0A091D305B091D405BC01CD010E94063773
S1132CD0DC01CB019C0144E6429FC001439F900D5F
S1132CE011244D855E859E01245F3F4FB9010ADCA6
S1132CF017C78091130690911406A0911506B09100
S1132D001606BC01CD010E940637DC01CB019C01F3
S1132D1044E6429FC001439F900D11244D855E857A
S1132D209E01245F3F4FB901EDDBFAC68091550641
S1132D3090915606A0915706B0915806BC01CD015A
S1132D400E940637DC01CB019C0144E6429FC0018E
S1132D50439F900D11244D855E859E01245F3F4F56
S1132D60B901D0DBDDC68C858F5F8C878C85882F7D
S1132D7090E003962D853E85820F931F20914E038C
S1132D8030914F03232F3327FC0120838C858F5FE1
S1132D908C878C85882F90E003962D853E85820F45
S1132DA0931F20914E0330914F03FC012083B8C63A
S1132DB08091C304882F90E04D855E859E01245F39
S1132DC03F4FB9019FDBACC68091D504082E000C9F
S1132DD0990B4D855E859E01245F3F4FB90192DBBF
S1132DE09FC68091DC049091DD04A091DE04B09133
S1132DF0DF04BC01CD010E940637DC01CB01CC010C
S1132E00A0E0B0E0BC01CD010E943237DC01CB016F
S1132E1020E030E048EC52E4BC01CD010E94E837E8
S1132E20DC01CB01BC01CD010E940637DC01CB01E2
S1132E30FC012D853E85CE010C96A901BC01CF0174
S1132E4061DB6EC68091E0049091E104A091E204FC
S1132E50B091E304BC01CD010E940637DC01CB0133
S1132E60CC01A0E0B0E0BC01CD010E943237DC010E
S1132E70CB0120E030E048EC52E4BC01CD010E94DB
S1132E80E837DC01CB01BC01CD010E940637DC012F
S1132E90CB01FC012D853E85CE010C96A901BC0118
S1132EA0CF0130DB3DC68091E4049091E504A0910C
S1132EB0E604B091E704BC01CD010E940637DC01B1
S1132EC0CB01CC01A0E0B0E0BC01CD010E943237BF
S1132ED0DC01CB0120E030E048EC52E4BC01CD0140
S1132EE00E94E837DC01CB01BC01CD010E9406370A
S1132EF0DC01CB01FC012D853E85CE010C96A90198
S1132F00BC01CF01FFDA0CC68091DA04882F90E06F
S1132F104D855E859E01245F3F4FB901F3DA00C6FB
S1132F208091DB04882F90E04D855E859E01245FAF
S1132F303F4FB901E7DAF4C58091E804882F90E0A7
S1132F404D855E859E01245F3F4FB901DBDAE8C5FC
S1132F5080910505882F90E04D855E859E01245F54
S1132F603F4FB901CFDADCC580911705082E000C5C
S1132F70990B4D855E859E01245F3F4FB901C2DAEE
S1132F80CFC580911E0590911F05A0912005B09199
S1132F902105BC01CD010E940637DC01CB01CC0127
S1132FA0A0E0B0E0BC01CD010E943237DC01CB01CE
S1132FB020E030E048EC52E4BC01CD010E94E83747
S1132FC0DC01CB01BC01CD010E940637DC01CB0141
S1132FD0FC012D853E85CE010C96A901BC01CF01D3
S1132FE091DA9EC58091220590912305A091240534
S1132FF0B0912505BC01CD010E940637DC01CB014F
S1133000CC01A0E0B0E0BC01CD010E943237DC016C
S1133010CB0120E030E048EC52E4BC01CD010E9439
S1133020E837DC01CB01BC01CD010E940637DC018D
S1133030CB01FC012D853E85CE010C96A901BC0176
S1133040CF0160DA6DC58091260590912705A09186
S11330502805B0912905BC01CD010E940637DC0189
S1133060CB01CC01A0E0B0E0BC01CD010E9432371D
S1133070DC01CB0120E030E048EC52E4BC01CD019E
S11330800E94E837DC01CB01BC01CD010E94063768
S1133090DC01CB01FC012D853E85CE010C96A901F6
S11330A0BC01CF012FDA3CC580911C05882F90E02C
S11330B04D855E859E01245F3F4FB90123DA30C5FB
S11330C080911D05882F90E04D855E859E01245FCB
S11330D03F4FB90117DA24C580912A05882F90E063
S11330E04D855E859E01245F3F4FB9010BDA18C5FB
S11330F080916C05882F90E04D855E859E01245F4C
S11331003F4FB901FFD90CC580915905082E000C19
S1133110990B4D855E859E01245F3F4FB901F2D91D
S1133120FFC48091640590916505A0916605B091F6
S11331306705BC01CD010E940637DC01CB01CC013F
S1133140A0E0B0E0BC01CD010E943237DC01CB012C
S113315020E030E048EC52E4BC01CD010E94E837A5
S1133160DC01CB01BC01CD010E940637DC01CB019F
S1133170FC012D853E85CE010C96A901BC01CF0131
S1133180C1D9CEC48091640590916505A09166056E
S1133190B0916705BC01CD010E940637DC01CB016B
S11331A0CC01A0E0B0E0BC01CD010E943237DC01CB
S11331B0CB0120E030E048EC52E4BC01CD010E9498
S11331C0E837DC01CB01BC01CD010E940637DC01EC
S11331D0CB01FC012D853E85CE010C96A901BC01D5
S11331E0CF0190D99DC48091680590916905A09103
S11331F06A05B0916B05BC01CD010E940637DC0164
S1133200CB01CC01A0E0B0E0BC01CD010E9432377B
S1133210DC01CB0120E030E048EC52E4BC01CD01FC
S11332200E94E837DC01CB01BC01CD010E940637C6
S1133230DC01CB01FC012D853E85CE010C96A90154
S1133240BC01CF015FD96CC480915E05882F90E0EA
S11332504D855E859E01245F3F4FB90153D960C4FB
S113326080915F05882F90E04D855E859E01245FE7
S11332703F4FB90147D954C480916C05882F90E021
S11332804D855E859E01245F3F4FB9013BD948C4FB
S113329080914F06882F90E04D855E859E01245FC6
S11332A03F4FB9012FD93CC480916106082E000C10
S11332B0990B4D855E859E01245F3F4FB90122D94C
S11332C02FC48091680690916906A0916A06B09116
S11332D06B06BC01CD010E940637DC01CB01FC0169
S11332E02D853E85CE010C96A901BC01CF010AD9DA
S11332F017C480916C0690916D06A0916E06B091F2
S11333006F06BC01CD010E940637DC01CB01FC0134
S11333102D853E85CE010C96A901BC01CF01F2D8C2
S1133320FFC38091700690917106A0917206B091CE
S11333307306BC01CD010E940637DC01CB01FC0100
S11333402D853E85CE010C96A901BC01CF01DAD8AA
S1133350E7C380916606882F90E04D855E859E01C7
S1133360245F3F4FB901CED8DBC380916706882F15
S113337090E04D855E859E01245F3F4FB901C2D820
S1133380CFC380917406882F90E04D855E859E01A1
S1133390245F3F4FB901B6D8C3C380914705882F36
S11333A090E04D855E859E01245F3F4FB901AAD808
S11333B0B7C380915905082E000C990B4D855E8585
S11333C09E01245F3F4FB9019DD8AAC38091600537
S11333D090916105A0916205B0916305BC01CD0196
S11333E00E940637DC01CB01CC01A0E0B0E0BC01B7
S11333F0CD010E943237DC01CB0120E030E048EC03
S113340052E4BC01CD010E94E837DC01CB01BC01D0
S1133410CD010E940637DC01CB01FC012D853E85E0
S1133420CE010C96A901BC01CF016CD879C380915F
S1133430640590916505A0916605B0916705BC018E
S1133440CD010E940637DC01CB01CC01A0E0B0E045
S1133450BC01CD010E943237DC01CB0120E030E019
S113346048EC52E4BC01CD010E94E837DC01CB01F9
S1133470BC01CD010E940637DC01CB01FC012D8586
S11334803E85CE010C96A901BC01CF013BD848C3AF
S11334908091680590916905A0916A05B0916B05CA
S11334A0BC01CD010E940637DC01CB01CC01A0E0B8
S11334B0B0E0BC01CD010E943237DC01CB0120E039
S11334C030E048EC52E4BC01CD010E94E837DC0155
S11334D0CB01BC01CD010E940637DC01CB01FC010C
S11334E02D853E85CE010C96A901BC01CF010AD8D9
S11334F017C380915E05882F90E04D855E859E01FF
S1133500245F3F4FB9010E9482120AC380915F0574
S1133510882F90E04D855E859E01245F3F4FB90161
S11335200E948212FDC280916C05882F90E04D8527
S11335305E859E01245F3F4FB9010E948212F0C252
S113354080918905882F90E04D855E859E01245FDA
S11335503F4FB9010E948212E3C280919B05082E5D
S1133560000C990B4D855E859E01245F3F4FB90188
S11335700E948212D5C28091A2059091A305A091C8
S1133580A405B091A505BC01CD010E940637DC015C
S1133590CB01CC01A0E0B0E0BC01CD010E943237E8
S11335A0DC01CB0120E030E048EC52E4BC01CD0169
S11335B00E94E837DC01CB01BC01CD010E94063733
S11335C0DC01CB01FC012D853E85CE010C96A901C1
S11335D0BC01CF010E948212A3C28091A6059091E2
S11335E0A705A091A805B091A905BC01CD010E9431
S11335F00637DC01CB01CC01A0E0B0E0BC01CD0179
S11336000E943237DC01CB0120E030E048EC52E488
S1133610BC01CD010E94E837DC01CB01BC01CD0126
S11336200E940637DC01CB01FC012D853E85CE01CD
S11336300C96A901BC01CF010E94821271C2809133
S1133640AA059091AB05A091AC05B091AD05BC0164
S1133650CD010E940637DC01CB01CC01A0E0B0E033
S1133660BC01CD010E943237DC01CB0120E030E007
S113367048EC52E4BC01CD010E94E837DC01CB01E7
S1133680BC01CD010E940637DC01CB01FC012D8574
S11336903E85CE010C96A901BC01CF010E94821285
S11336A03FC28091A005882F90E04D855E859E01E4
S11336B0245F3F4FB9010E94821232C28091A1055A
S11336C0882F90E04D855E859E01245F3F4FB901B0
S11336D00E94821225C28091AE05882F90E04D850C
S11336E05E859E01245F3F4FB9010E94821218C279
S11336F08091CB05882F90E04D855E859E01245FE7
S11337003F4FB9010E9482120BC28091DD05082E41
S1133710000C990B4D855E859E01245F3F4FB901D6
S11337200E948212FDC18091E4059091E505A0916B
S1133730E605B091E705BC01CD010E940637DC0126
S1133740CB01CC01A0E0B0E0BC01CD010E94323736
S1133750DC01CB0120E030E048EC52E4BC01CD01B7
S11337600E94E837DC01CB01BC01CD010E94063781
S1133770DC01CB01FC012D853E85CE010C96A9010F
S1133780BC01CF010E948212CBC18091E8059091C7
S1133790E905A091EA05B091EB05BC01CD010E94B9
S11337A00637DC01CB01CC01A0E0B0E0BC01CD01C7
S11337B00E943237DC01CB0120E030E048EC52E4D7
S11337C0BC01CD010E94E837DC01CB01BC01CD0175
S11337D00E940637DC01CB01FC012D853E85CE011C
S11337E00C96A901BC01CF010E94821299C180915B
S11337F0EC059091ED05A091EE05B091EF05BC01AB
S1133800CD010E940637DC01CB01CC01A0E0B0E081
S1133810BC01CD010E943237DC01CB0120E030E055
S113382048EC52E4BC01CD010E94E837DC01CB0135
S1133830BC01CD010E940637DC01CB01FC012D85C2
S11338403E85CE010C96A901BC01CF010E948212D3
S113385067C18091E205882F90E04D855E859E01C9
S1133860245F3F4FB9010E9482125AC18091E3053F
S1133870882F90E04D855E859E01245F3F4FB901FE
S11338800E9482124DC18091F005882F90E04D85F1
S11338905E859E01245F3F4FB9010E94821240C1A0
S11338A080910D06882F90E04D855E859E01245FF2
S11338B03F4FB9010E94821233C180911F06082E26
S11338C0000C990B4D855E859E01245F3F4FB90125
S11338D00E94821225C18091260690912706A0910C
S11338E02806B0912906BC01CD010E940637DC01EF
S11338F0CB01CC01A0E0B0E0BC01CD010E94323785
S1133900DC01CB0120E030E048EC52E4BC01CD0105
S11339100E94E837DC01CB01BC01CD010E940637CF
S1133920DC01CB01FC012D853E85CE010C96A9015D
S1133930BC01CF010E948212F3C080912A069091AB
S11339402B06A0912C06B0912D06BC01CD010E943E
S11339500637DC01CB01CC01A0E0B0E0BC01CD0115
S11339600E943237DC01CB0120E030E048EC52E425
S1133970BC01CD010E94E837DC01CB01BC01CD01C3
S11339800E940637DC01CB01FC012D853E85CE016A
S11339900C96A901BC01CF010E948212C1C0809182
S11339A02E0690912F06A0913006B0913106BC01ED
S11339B0CD010E940637DC01CB01CC01A0E0B0E0D0
S11339C0BC01CD010E943237DC01CB0120E030E0A4
S11339D048EC52E4BC01CD010E94E837DC01CB0184
S11339E0BC01CD010E940637DC01CB01FC012D8511
S11339F03E85CE010C96A901BC01CF010E94821222
S1133A008FC080912406882F90E04D855E859E01AD
S1133A10245F3F4FB9010E94821282C08091250623
S1133A20882F90E04D855E859E01245F3F4FB9014C
S1133A300E94821275C080913206882F90E04D85D5
S1133A405E859E01245F3F4FB9010E94821268C0C7
S1133A5080912007909121074D855E859E01245F0A
S1133A603F4FB9010E9482125BC08091220790915E
S1133A7023074D855E859E01245F3F4FB9010E9457
S1133A8082124EC080912607909127074D855E854E
S1133A909E01245F3F4FB9010E94821241C0809170
S1133AA02407909125074D855E859E01245F3F4F35
S1133AB0B9010E94821234C080912F07909130077F
S1133AC04D855E859E01245F3F4FB9010E9482129D
S1133AD027C080913107909132074D855E859E0104
S1133AE0245F3F4FB9010E9482121AC080913507AA
S1133AF0909136074D855E859E01245F3F4FB90145
S1133B000E9482120DC080913307909134074D8535
S1133B105E859E01245F3F4FB9010E94821200001E
S1133B2089818F5F89838981282F30E08A819B81F5
S1133B302817390710F40C9407138C8524E0280FF8
S1133B408D859E85FC0120838D859E8503962C851D
S1133B50FC0120838C85882F90E004969C018D8540
S1133B609E858C01020F131F8D859E85FC0120818B
S1133B708D859E85622F0E949009F80180838D8532
S1133B809E850E94150A81E02E960FB6F894DEBF3A
S1133B900FBECDBFDF91CF911F910F91FF90EF909A
S1133BA008951F93CF93DF931F921F92CDB7DEB773
S1133BB09A83898389819A810196FC018081843664
S1133BC041F089819A810196FC018081882309F062
S1133BD046C089819A81FC018081882F90E02981E7
S1133BE03A81820F931FFC01108189819A81FC0123
S1133BF0208189819A81622F0E949009181779F592
S1133C0089819A810296FC018081882F90E0092E97
S1133C10000CAA0BBB0B41E050E02FE030E0841B0A
S1133C20950B28173907D8F0FC018827EE58FF4F69
S1133C308F4F0C94983889819A810E94C8120FC0C2
S1133C4089819A810E94C8120AC089819A810E943E
S1133C50450A05C089819A810E94281100000F90AD
S1133C600F90DF91CF911F910895CF93DF931F920F
S1133C701F92CDB7DEB79A83898389819A81909305
S1133C804D0380934C030F900F90DF91CF910895D3
S1133C90CF93DF93CDB7DEB780914C0390914D0362
S1133CA0892B31F080914C0390914D03FC011995BF
S1133CB0DF91CF910895CF93DF9300D01F921F928D
S1133CC0CDB7DEB79D838C831B821A8219820EC006
S1133CD089819A812C813D81820F931FFC0180810F
S1133CE08B8389819A8101969A83898389819A81B8
S1133CF0409774F30F900F900F900F900F90DF91F7
S1133D00CF910895CF93DF93CDB7DEB7A8970FB6C1
S1133D10F894DEBF0FBECDBF0E94F027882311F4B4
S1133D2080E05AC00E941228882311F480E054C015
S1133D3080919F040E94B927898381E08A8384E06B
S1133D408B8380E1E5E0F2E0DE01169601900D92AE
S1133D508A95E1F787E08C8382E188A724E934E03F
S1133D604AEB54E06C8180E667D78D838D8188238C
S1133D7011F080E031C09E01285D3F4FCE01469690
S1133D80A901BC018B81E4D78D838D81882311F037
S1133D9080E022C0CE01069640E1BC018B810E94E6
S1133DA0F8268D838D81882311F080E015C09E0153
S1133DB0285D3F4FCE014696A901BC018B81C8D72F
S1133DC08D838D81882311F080E006C0F3D6B6D7A9
S1133DD0CE01469670DF81E0A8960FB6F894DEBF58
S1133DE00FBECDBFDF91CF910895CF93DF93CDB7B1
S1133DF0DEB710924B0386DF81E080934B0382DFB2
S1133E00DF91CF910895CF93DF93CDB7DEB7809143
S1133E104B03882351F082E290E022E230E0F90182
S1133E202081277FFC01208309C082E290E022E206
S1133E3030E0F90120812D7FFC012083DF91CF91B7
S1133E400895CF93DF93CDB7DEB780914B038823DA
S1133E5051F082E290E022E230E0F9012081286012
S1133E60FC01208309C082E290E022E230E0F90103
S1133E7020812260FC012083DF91CF910895CF93AC
S1133E80DF931F92CDB7DEB70E94252810924B0313
S1133E90BED181E080934B03BAD1198211C08981CC
S1133EA0882F90E02981222F30E02E5D3C4FF901CC
S1133EB0208186549B4FFC01208389818F5F8983F5
S1133EC08981863060F30F90DF91CF910895CF936D
S1133ED0DF931F921F92CDB7DEB789836A8393DF86
S1133EE089818E770E9450288A810E945028A9DFF8
S1133EF00F900F90DF91CF910895CF93DF9300D06F
S1133F001F921F92CDB7DEB78A836B835D834C8388
S1133F107ADF8A818E770E94502819820EC08981A7
S1133F20882F90E02C813D81820F931FFC018081BA
S1133F300E94502889818F5F898399818B8198178A
S1133F4070F37FDF0F900F900F900F900F90DF9121
S1133F50CF910895CF93DF931F921F92CDB7DEB711
S1133F608A8351DF8A818E7780680E94502880E09E
S1133F700E945028898365DF89810F900F90DF911B
S1133F80CF9108950F931F93CF93DF93CDB7DEB7EF
S1133F902A970FB6F894DEBF0FBECDBF8E836F8312
S1133FA0598748872A878F81882309F469C08E81BD
S1133FB08E7780688C83198226DF8F8181508F836E
S1133FC08C810E94502849C089818823B1F58A8553
S1133FD0882399F11A828A858B8311C08B81282FBB
S1133FE030E081E090E002C0880F991F2A95E2F743
S1133FF0982F8A81892B8A838B818F5F8B838B8116
S1134000883060F38C810E9450288D838981882FA9
S113401090E028853985820F931FFC018081982FB9
S11340208A81809589232D819A819223892B282F37
S113403088859985FC0120830DC08981882F90E0B3
S1134040288539858901080F191F8C810E94502801
S1134050F801808389818F5F898399818F81981783
S113406008F4B2CF8981882F90E0288539858901A9
S1134070080F191F80E00E945028F8018083E1DEB8
S11340802A960FB6F894DEBF0FBECDBFDF91CF9155
S11340901F910F910895CF93DF9300D0CDB7DEB772
S11340A08A836B838A8156DF898399818B81892BEB
S11340B0682F8A810CDF0F900F900F90DF91CF91C2
S11340C00895CF93DF9300D0CDB7DEB78A836B8397
S11340D08A8140DF89838B81982F909589818923F8
S11340E0682F8A81F4DE0F900F900F90DF91CF91AB
S11340F008950F931F93CF93DF93CDB7DEB728971F
S11341000FB6F894DEBF0FBECDBF9D838C836E8344
S113411058874F8360E082E0DADE64E08AE0D7DE2D
S113412060E884E1B8DF8C819D81AC016E8182E11D
S1134130E4DE63E082E0CBDE88E893E19A8389835E
S11341408AE008DF8B838B81882F90E08470992725
S1134150892BB1F0000060E082E0B9DE84E4FADE8D
S1134160282F8F819885FC0120838F8198858C016D
S11341700F5F1F4F82E4EEDEF801808380E00CC005
S113418089819A8101979A83898389819A81892B6C
S113419011F483E001C0D4CF28960FB6F894DEBFA3
S11341A00FBECDBFDF91CF911F910F910895CF9393
S11341B0DF93CDB7DEB780914B03882399F081E27A
S11341C090E021E230E0F90120812460FC012083A9
S11341D082E290E022E230E0F90120812460FC01D7
S11341E0208312C081E290E021E230E0F9012081D5
S11341F02160FC01208382E290E022E230E0F901B8
S113420020812160FC012083DF91CF910895CF9319
S1134210DF93CDB7DEB715DECADF16D060E884E5DC
S113422056DE69EA86E553DE63E088E550DE68EE33
S11342308AE54DDE60E48AE24ADE6DE382E247DE2F
S113424094D0DF91CF910895CF93DF93CDB7DEB7AC
S11342502E970FB6F894DEBF0FBECDBF6FE082E09D
S113426036DE80E090E0A8E4B2E489839A83AB83ED
S1134270BC8320E030E04AE755E469817A818B8190
S11342809C810E94E837DC01CB018D839E83AF8340
S1134290B88720E030E040E85FE36D817E818F8164
S11342A098850E94953688232CF481E090E09A87C3
S11342B089873FC020E03FEF4FE757E46D817E815F
S11342C08F8198850E94E43718164CF520E030E081
S11342D040E251E469817A818B819C810E94E837B4
S11342E0DC01CB01BC01CD010E940637DC01CB010E
S11342F09A8789870FC080E991E09C878B878B859B
S11343009C850197F1F79C878B8789859A8501970E
S11343109A87898789859A85892B69F714C06D8165
S11343207E818F8198850E940637DC01CB019A87B4
S1134330898789859A859E878D878D859E85019736
S1134340F1F79E878D87000082E004DE882F90E0DD
S113435080719927892BC1F72E960FB6F894DEBF8A
S11343600FBECDBFDF91CF910895CF93DF931F92FE
S1134370CDB7DEB788E2EEDD89838981882F90E0AE
S113438083709927039729F089818360682F88E2D5
S11343909EDD0F90DF91CF9108958F92AF92CF92CF
S11343A0DF92EF92FF920F931F93CF93DF93CDB7DA
S11343B0DEB72C970FB6F894DEBF0FBECDBF9B833C
S11343C08A836C835E834D8338872F831A8709879A
S11343D0EB86CC8680E3898369857A854F8158850D
S11343E02D813E818A819B818C84AB846B017A010F
S11343F089012C81AC0169818CE011D02C960FB617
S1134400F894DEBF0FBECDBFDF91CF911F910F9106
S1134410FF90EF90DF90CF90AF908F9008958F92A0
S1134420AF92CF92DF92EF92FF920F931F93CF93AD
S1134430DF93CDB7DEB767970FB6F894DEBF0FBE34
S1134440CDBF8B876C875E874D872F87198B088B31
S1134450FB8AEA8ADD8ACC8AAE8A8F8A8C899D8916
S1134460892B29F08C899D89FC01808101C080E021
S11344708C838E89982F9295907F8C81890F8D8360
S113448060E082E024DD6FE788E021DD60E884E11C
S113449002DE8D859E85AC016F8582E12EDD6D8106
S11344A08AE115DD6B8582E012DD8B858C3019F491
S11344B060E88AE1F0DD80ED97E09B838A8388E001
S11344C049DD8E839E818C858923882361F00000D9
S11344D08CE040DD8F838F81882F90E08371992752
S11344E0892BC1F015C08E81882F90E081709927A7
S11344F0892B11F083E09EC08A819B8101979B8365
S11345008A838A819B81892B11F483E093C0D7CF5E
S113451081E090C088899989892B49F18A899B898E
S1134520892B29F184E116DD8E838A899B89FC011C
S113453090818E81981710F484E07CC08A899B89CD
S11345402E81FC012083888999892E89AC016E8192
S113455082E118DD88E1FEDC877089838C899D897E
S1134560892B29F08C899D892981FC0120838F81E5
S1134570882F90E088709927892B11F082E05AC027
S113458088899989892B09F454C08A899B89892B44
S113459009F44FC08F89882309F44BC08A899B8909
S11345A0FC018081813029F48981843011F48FEFFA
S11345B041C08A899B89FC018081823018F08981FD
S11345C0882311F087E036C08A899B89FC018081A9
S11345D06EEF680F9E01275F3F4F88899989A90173
S11345E088DD88878885882311F0888523C08A8997
S11345F09B89FC018081882F90E002972889398962
S1134600820F931FFC0190818985981781F48A8910
S11346109B89FC018081882F90E001972889398942
S1134620820F931FFC0190818A85981711F087E00F
S113463001C080E067960FB6F894DEBF0FBECDBF11
S1134640DF91CF911F910F91FF90EF90DF90CF906A
S1134650AF908F900895CF93DF9300D01F92CDB782
S1134660DEB79A8389837C836B832B813C81898128
S11346709A81A901BC0186E207D00F900F900F9098
S11346800F90DF91CF910895CF92EF920F931F93E4
S1134690CF93DF93CDB7DEB727970FB6F894DEBF7D
S11346A00FBECDBF8B837D836C835F834E838C81F0
S11346B09D81892B31F08E819F81FC018081823024
S11346C010F484E025C060E88CE1FBDC87E08A8399
S11346D0BE016E5F7F4F2E813F814C815D81CE0193
S11346E00396C12CE12C8B0161E057DE898389811B
S11346F0882311F089810CC08E819F81FC01808107
S1134700823019F48A81882311F081E001C080E0AD
S113471027960FB6F894DEBF0FBECDBFDF91CF91C1
S11347201F910F91EF90CF900895CF92EF920F9336
S11347301F93CF93DF93CDB7DEB76F970FB6F8947F
S1134740DEBF0FBECDBF9E8F8D8F6F8F81E08C83B8
S11347508F8D813510F086E020C260E88CE1B1DCF9
S113476019820CC28C81882F90E082309105C1F0AF
S11347708330910549F1019769F583E98A8B1F829A
S11347808F8D882349F08D8D9E8DFC01808185302D
S113479018F081E090E002C080E090E08B831CC0C0
S11347A085E98A8B83E08F838F8D882349F08D8DF3
S11347B09E8DFC018081883018F081E090E002C079
S11347C080E090E08B8308C087E98A8B86E08F8342
S11347D01B8202C085E0E1C19F8180E0891B880FB4
S11347E0880F880F982F8F8D890F88878885882355
S11347F00CF4188682E08E838B81882371F08E817D
S113480091E0980F9E83882F90E09E012E5E3F4F8B
S1134810820F931F28E8FC012083888588230CF4E9
S1134820895F859585958595282F8885982F97701C
S113483081E0992309F480E0820F8C878C8588239A
S113484099F18B81882311F083E001C084E08E8785
S11348509C858E85891710F48E858C871D8220C0D7
S11348608E8191E0980F9E83882F90E02F81422FB4
S113487050E02D81222F30E0240F351F4D8D5E8DA9
S1134880240F351F2F5F3F4FF90140819E012E5E9B
S11348903F4F820F931FFC0140838D818F5F8D8377
S11348A09D818C859817E0F28B81882319F0888587
S11348B0885F88871A82E9C0888580322CF180E776
S11348C08B8B9C898D8998278E8998278F89892736
S11348D0888FCE0142969C01295F3F4FCE014296BC
S11348E0A90167E006DC8F878F85882311F08F8507
S11348F054C11B8E89E08987CE01429606969B8718
S11349008A8783E08C8F33C08885877888231CF45A
S11349108150886F8F5F8B8F888588230CF4895F23
S11349208595859585958D838D818E5F8E838E810A
S1134930982F9295907F8B8D890F8B8B9B8D81E027
S1134940992309F480E0982F8E81890F89878E81BD
S1134950882F90E09E012E5E3F4F820F931F9B870E
S11349608A8799E08E81F92FF81B8F2F8C8F8B8D7E
S1134970888B8889982F9295907F8B8D890F682FCB
S11349808AE1A5DABE01655E7F4F9E01245E3F4F3A
S11349904A855B85CE014296C12CE8888B016985E6
S11349A0FCDC8F878F85823009F062C08CE1D2DA1B
S11349B0898B8989882F90E080729927892B11F03F
S11349C082E0EBC089898F718D878D85882311F4EE
S11349D080E28D878D85282F30E08885082E000C95
S11349E0990B8217930714F085E0D7C08D858887CB
S11349F08885082E000C990B01978770907899236D
S1134A0024F40197886F9F6F01968D83888588238E
S1134A100CF4895F859585958595282F81E09D8186
S1134A20992309F480E0820F8F5F8E838E81882F13
S1134A3090E02E81222F30E0AE014E5E5F4F240FB6
S1134A40351FF9012081622F2D81422F50E021E092
S1134A5030E002C0220F331F4A95E2F7262B422F83
S1134A609E012E5E3F4F820F931FFC0140830DC0B9
S1134A708F85882311F08F8590C0888580321CF043
S1134A8081E08A8302C080E288878A81882309F4CE
S1134A9013CF8C89883811F483E001C082E08E83BF
S1134AA08C89883811F483E001C084E08C871D82EE
S1134AB01FC08F81282F30E08D81882F90E0820FD6
S1134AC0931F2E8131E0320F3E83222F30E0AE015E
S1134AD04E5E5F4F240F351FF90140812D8D3E8DB1
S1134AE0820F931F0196FC0140838D818F5F8D831C
S1134AF09D818C859817E8F28C8D833019F48B8D09
S1134B00882311F081E049C0CE0142969C012E5FBA
S1134B103F4F8A859B85A90161E0EBDA8F878F85FA
S1134B20882311F08F8539C02C898A859B8501964D
S1134B30FC018081281741F42D898A859B85029682
S1134B40FC018081281711F087E027C08A859B85A6
S1134B50FC018081882F90E084709927892B21F0B3
S1134B608C818F5F8C830AC081E089838A859B85D1
S1134B70FC0120818D8D9E8DFC01238789818823F2
S1134B8009F4F0CD9C81892F880F890F21E0280F2B
S1134B908D8D9E8DFC01208380E06F960FB6F89476
S1134BA0DEBF0FBECDBFDF91CF911F910F91EF906C
S1134BB0CF900895CF92EF920F931F93CF93DF93EB
S1134BC000D01F921F92CDB7DEB780E58A831B8287
S1134BD0CE0102969C012E5F3F4FCE010296A901A1
S1134BE062E087DA89838981882311F0898118C07A
S1134BF0CE010296C12CE12C00E010E020E030E070
S1134C0040E050E064E0C9DB89838981833011F49A
S1134C1080E006C08981882311F481E001C0898184
S1134C200F900F900F900F900F90DF91CF911F91E5
S1134C300F91EF90CF9008958F92AF92CF92DF9221
S1134C40EF92FF920F931F93CF93DF93CDB7DEB70D
S1134C5065970FB6F894DEBF0FBECDBF888B698B06
S1134C605B8B4A8B3D8B2C8B80E18B8388898C8377
S1134C7089898D83198217C08981882F90E00296D3
S1134C802981222F30E04A895B89240F351FF901DD
S1134C9040819E012C5F3F4F820F931FFC01408394
S1134CA089818F5F89838981863030F31A8223C09A
S1134CB08A81882F90E008962A81422F50E02C891F
S1134CC03D89F9012081222F30E0240F351F245023
S1134CD031094C895D89240F351F2F5F3F4FF9013E
S1134CE040819E012C5F3F4F820F931FFC01408344
S1134CF08A818F5F8A838A818430D0F2CE010496C0
S1134D00812CA12CC12CD12CE12CF12C00E010E041
S1134D102CE0AC016B818EE082DB65960FB6F894D3
S1134D20DEBF0FBECDBFDF91CF911F910F91FF90DA
S1134D30EF90DF90CF90AF908F900895CF93DF9353
S1134D40CDB7DEB768E080E1BCD9DF91CF9108959B
S1134D50CF92EF920F931F93CF93DF9300D000D0A5
S1134D60CDB7DEB78A837C836B835E834D838B816F
S1134D709C81892B31F08D819E81FC01808182315F
S1134D8010F484E028C08B819C8120E3FC01208303
S1134D908B819C8101962A81FC0120838B819C81DB
S1134DA09C012E5F3F4F8B819C81A90162E0A1D9B8
S1134DB089838981882311F089810DC02D813E81E9
S1134DC04B815C818B819C81CC24C394E12C00E0D9
S1134DD010E064E0E2DA26960FB6F894DEBF0FBE68
S1134DE0CDBFDF91CF911F910F91EF90CF90089598
S1134DF0CF93DF93CDB7DEB727970FB6F894DEBF16
S1134E000FBECDBF8C837E836D834F838D819E8146
S1134E10892B19F08F81803110F486E01BC080EA61
S1134E208A838C818B83CE01029640E062E01BD0A2
S1134E3089838981882311F089810CC08D819E81A9
S1134E4040E06F8110D089838981882311F08981A2
S1134E5001C080E027960FB6F894DEBF0FBECDBF29
S1134E60DF91CF9108958F92AF92CF92DF92EF921C
S1134E70FF920F931F93CF93DF93CDB7DEB76A975B
S1134E800FB6F894DEBF0FBECDBF988F8F8B698F9E
S1134E904A8F8F89988D892B19F0898D813110F073
S1134EA086E056C0898D482F50E02F89388DCE0179
S1134EB00396B9010E94B938898D882F90E09E012C
S1134EC02D5F3F4F280F391FCE010396A901698D2D
S1134ED010D989838981882311F0898139C0898D0A
S1134EE08E5F898F80E38A8382E18D8B1E8ABE0167
S1134EF06A5E7F4FAE014B5E5F4F9E012D5F3F4F59
S1134F00CE010396812CA12C6B017A018901298D94
S1134F10AC016A818CE083DA89838A8D882329F045
S1134F208981833011F480E013C08981882311F0D2
S1134F3089810EC08D89813019F48E89843011F0F5
S1134F4081E006C08B818A3011F08FEF01C080E0D0
S1134F506A960FB6F894DEBF0FBECDBFDF91CF9136
S1134F601F910F91FF90EF90DF90CF90AF908F90B3
S1134F700895CF93DF931F92CDB7DEB789838981DC
S1134F808F7789838981882F90E0092E000CAA0BE2
S1134F90BB0B40E050E020E430E0841B950B281765
S1134FA03907C8F0FC018827EE57FF4F8F4F0C9448
S1134FB098388FEF11C083E00FC084E00DC085E006
S1134FC00BC086E009C087E007C088E005C081E027
S1134FD003C082E001C080E00F90DF91CF9108957B
S1134FE0CF93DF9300D01F92CDB7DEB782E08C83DE
S1134FF09E012C5F3F4FCE010296B9012CDB8983C1
S11350008981882319F08981823019F481E090E044
S113501002C080E090E00F900F900F900F90DF910E
S1135020CF910895CF93DF931F92CDB7DEB760E0A1
S113503084E994E07ADB898381E09981992309F0FA
S113504080E00F90DF91CF910895CF93DF93CDB798
S1135050DEB784E290E024E230E0F90120812760A9
S1135060FC0120838CE490E02CE430E0F901208101
S11350702165FC01208381E290E021E230E0F90126
S113508020812260FC01208381E290E021E230E073
S1135090F90120812860FC012083DF91CF910895DC
S11350A0CF93DF931F92CDB7DEB789838EE490E070
S11350B02981FC01208300008DE490E0FC018081C3
S11350C08823D4F78EE490E0FC0180810F90DF9177
S11350D0CF910895CF93DF93CDB7DEB7809150037E
S11350E090915103892B31F0809150039091510399
S11350F0FC011995DF91CF910895CF93DF931F920F
S1135100CDB7DEB7198234C08981282F30E042E45C
S1135110429FC001439F900D112483539B4FFC0178
S113512010821182128213828981282F30E042E496
S1135130429FC001439F900D112489539B4FFC0152
S1135140118210828981282F30E042E4429FC001FD
S1135150439F900D11248F539B4FFC018081882F16
S113516090E08D5A9C4FFC01108289818F5F898366
S11351708981883048F28FEF809304020F90DF9189
S1135180CF910895EF92FF920F931F93CF93DF93E4
S1135190CDB7DEB7EE970FB6F894DEBF0FBECDBF26
S11351A098A78FA37AA769A789A59AA5CC01A0E09F
S11351B0B0E0BC01CD010E943237DC01CB0120E01C
S11351C030E048EC52E4BC01CD010E949936DC0188
S11351D0CB012FA138A5F90184879587A687B787C6
S11351E08FA198A5FC0184859585A685B78520E0C7
S11351F030E040E051E4BC01CD010E94E837DC011D
S1135200CB01BC01CD010E940137DC01CB019A8F97
S1135210898F8FA198A5FC01828189838FA198A58C
S1135220FC018281882F90E08C33910509F477C1C9
S11352308D33910564F4813091050CF44FC28D30A7
S11352409105CCF0C297039708F048C2C5C08436D4
S1135250910509F484C1853691052CF481369105B4
S11352600CF43CC29CC18B3C910509F498C18C3C64
S1135270910509F033C289818C3C11F488E089835B
S11352808981815089838981882F90E08A5F984F32
S1135290FC018081880F8B8F82E08A838981882F2B
S11352A090E0880F991F8651994FFC01808191816C
S11352B09D8F8C8F8C8D9D8DFC01808191819C8331
S11352C08B838C8D9D8DFC01828193819E838D8344
S11352D072C08A8191E0980F9A83882F90E0880F9A
S11352E0991F2C8D3D8D820F931FFC01808191812C
S11352F098878F838A8191E0980F9A83882F90E012
S1135300880F991F2C8D3D8D820F931FFC01808186
S113531091819F8F8E8F2E8D3F8D898D9A8D281729
S113532039070CF040C02D813E81898D9A8DA901E9
S1135330481B590BCA019C01990F440B550B6B81F7
S11353407C818F819885FB01E81BF90BCF01092E25
S1135350000CAA0BBB0BBC01CD010E944B387B0196
S11353608C012D813E818E8D9F8DA901481B590B87
S1135370CA019C01990F440B550BC801B7010E9447
S11353807C38DA01C9019C018B819C81F901E81BFD
S1135390F90BCF018450904F9C018FA198A5FC017B
S11353A0378326839BC18E8D9F8D9E838D838F81B2
S11353B098859C838B839A818B8D981708F489CF69
S11353C02CEF3FE08F819885281B390B8FA198A57E
S11353D0FC013783268382C189818E528983898126
S11353E0882F90E08A5F984FFC018081880F88A302
S11353F082E089878981882F90E0880F991F8651E0
S1135400994FFC01808191819AA389A389A19AA1D2
S1135410FC01808191819B878A8789A19AA1FC01E3
S1135420828193819D878C876DC0898591E0980FD7
S11354309987882F90E0880F991F29A13AA1820F9C
S1135440931FFC01808191819F878E87898591E0DC
S1135450980F9987882F90E0880F991F29A13AA166
S1135460820F931FFC01808191819CA38BA32BA1AC
S11354703CA1898D9A8D82179307E4F52C853D858F
S1135480898D9A8DA901481B590BCA019C01990F5A
S1135490440B550B6A857B858E859F85FB01E81B34
S11354A0F90BCF01092E000CAA0BBB0BBC01CD01DB
S11354B00E944B387B018C012C853D858BA19CA1DE
S11354C0A901481B590BCA019C01990F440B550BA8
S11354D0C801B7010E947C38DA01C9019C018A85A0
S11354E09B85820F931F9C018FA198A5FC01378394
S11354F02683F4C08BA19CA19D878C878E859F8574
S11355009B878A87998588A1981708F48ECF8FA1E5
S113551098A52E853F85FC0137832683DFC0898DBE
S11355209A8D092E000CAA0BBB0B072E7CE0880F6A
S1135530991FAA1FBB1F7A95D1F7702D28EE33E06F
S113554040E050E0BC01CD010E947C38DA01C90181
S11355509C018FA198A5FC0137832683BFC0898D48
S11355609A8D092E000CAA0BBB0B072E7CE0880F2A
S1135570991FAA1FBB1F7A95D1F7702D24EF31E034
S113558040E050E0BC01CD010E947C38DA01C90141
S11355909C018FA198A5FC01378326839FC0898134
S11355A08B3C11F481E6898382E0888B8981813682
S11355B021F485E996E09A8B898B89899A89FC0183
S11355C0808191819C8B8B8B89899A89FC01828152
S11355D093819E8B8D8B72C0888991E0980F988BF4
S11355E0882F90E0880F991F29893A89820F931F89
S11355F0FC0180819181988F8F8B888991E0980F2D
S1135600988B882F90E0880F991F29893A89820FF7
S1135610931FFC01808191819EA38DA32DA13EA1A6
S1135620898D9A8D281739070CF040C02D893E8941
S1135630898D9A8DA901481B590BCA019C01990FA8
S1135640440B550B6B897C898F89988DFB01E81B72
S1135650F90BCF01092E000CAA0BBB0BBC01CD0129
S11356600E944B387B018C012D893E898DA19EA11E
S1135670A901481B590BCA019C01990F440B550BF6
S1135680C801B7010E947C38DA01C9019C018B89E9
S11356909C89F901E81BF90BCF018450904F9C01C0
S11356A08FA198A5FC013783268318C08DA19EA1E4
S11356B09E8B8D8B8F89988D9C8B8B8B8889823464
S11356C008F48ACF2CEF3FE08F89988D281B390B83
S11356D08FA198A5FC01378326830000EE960FB6B0
S11356E0F894DEBF0FBECDBFDF91CF911F910F9114
S11356F0FF90EF900895CF93DF93CDB7DEB7609717
S11357000FB6F894DEBF0FBECDBF87E091E027E06F
S113571031E0F90120812062FC01208388E091E0DE
S113572028E031E0F90120812F7DFC01208387E00E
S113573091E027E031E0F90120812860FC01208319
S113574088E091E028E031E0F9012081277FFC0125
S1135750208387E091E027E031E0F90120812F7E6A
S1135760FC01208388E091E028E031E0F901208108
S11357702F7EFC01208387E091E027E031E0F901EE
S113578020812460FC01208388E091E028E031E05E
S1135790F90120812B7FFC0120831A8219824AC0DF
S11357A089810E94163629813A814FE0429FC001C7
S11357B0439F900D1124805E984FFC01118210824A
S11357C029813A814FE0429FC001439F900D1124EB
S11357D08A5D984FFC011182108229813A814FE041
S11357E0429FC001439F900D11248E5D984FFC0190
S11357F01182108229813A814FE0429FC001439F68
S1135800900D1124865D984FFC01108229813A8104
S11358104FE0429FC001439F900D1124855D984F36
S1135820FC01108211821282138289819A8101966D
S11358309A83898389819A8102970CF4B1CF88E095
S113584091E028E031E0F90120812B7FFC012083E5
S113585080E090E0A0E2B1E48B839C83AD83BE83BF
S113586020E030E04AE755E46B817C818D819E81A4
S11358700E94E837DC01CB018F839887A987BA8718
S113588020E030E040E85FE36F81788589859A8580
S11358900E94953688232CF481E090E09C878B87C6
S11358A03FC020E03FEF4FE757E46F81788589855B
S11358B09A850E94E43718164CF520E030E040E267
S11358C051E46B817C818D819E810E94E837DC01EB
S11358D0CB01BC01CD010E940637DC01CB019C87C2
S11358E08B870FC080E991E09E878D878D859E858B
S11358F00197F1F79E878D878B859C8501979C87FF
S11359008B878B859C85892B69F714C06F8178857B
S113591089859A850E940637DC01CB019C878B8799
S11359208B859C85988B8F878F8598890197F1F754
S1135930988B8F8788E091E028E031E0F90120819D
S11359402460FC01208388E091E028E031E0F90143
S113595020812F7DFC01208360960FB6F894DEBF72
S11359600FBECDBFDF91CF9108950F931F93CF93B7
S1135970DF93CDB7DEB7C155D1090FB6F894DEBFBA
S11359800FBECDBF19821CC288E091E028E031E04F
S1135990F90120812860FC01208380E090E0A0E0F0
S11359A0B0E48A839B83AC83BD832BEA3AEA4AEA58
S11359B050E46A817B818C819D810E94E837DC01FF
S11359C0CB018E839F83A887B98720E030E040E82D
S11359D050E46A817B818C819D810E94E837DC01DF
S11359E0CB018A879B87AC87BD8720E030E040E805
S11359F05FE36E817F81888599850E94953688232F
S1135A001CF481E08E87B6C020E03FEF4FE757E4F7
S1135A106A857B858C859D850E94E43718160CF079
S1135A207FC020E030E04AE754E46A817B818C81C6
S1135A309D810E949936DC01CB018F87988BA98BBD
S1135A40BA8B20E030E04AE755E46F85788989898C
S1135A509A890E94E837DC01CB018B8B9C8BAD8B40
S1135A60BE8B20E030E040E85FE36B897C898D8960
S1135A709E890E94953688232CF481E090E0988FCB
S1135A808F8B41C020E03FEF4FE757E46B897C895F
S1135A908D899E890E94E43718165CF520E030E079
S1135AA040E251E46F85788989899A890E94E837B0
S1135AB0DC01CB01BC01CD010E940637DC01CB0126
S1135AC0988F8F8B0FC080E991E09A8F898F898D91
S1135AD09A8D0197F1F79A8F898F8F89988D019705
S1135AE0988F8F8B8F89988D892B69F78AA18E87E0
S1135AF041C06B897C898D899E890E940637DC01AF
S1135B00CB01988F8F8B8F89988D9C8F8B8F8B8DEA
S1135B109C8D0197F1F79C8F8B8F8AA18E872AC069
S1135B2020E030E04FE753E46E817F8188859985DA
S1135B300E94E4371816ACF46A857B858C859D85B4
S1135B400E940637DC01CB019E8F8D8F8D8D9E8D3B
S1135B5098A38F8F8F8D98A10197F1F798A38F8FBA
S1135B600FC06E817F81888599850E940637DC018C
S1135B70CB018E878E8589A389A18A95F1F789A3A4
S1135B8088E091E028E031E0F9012081277FFC01E1
S1135B90208380E090E0A0E0B0E48BA39CA3ADA3BD
S1135BA0BEA32BEA3AEA4AEA50E46BA17CA18DA198
S1135BB09EA10E94E837DC01CB018FA398A7A9A777
S1135BC0BAA720E030E040E850E46BA17CA18DA1AD
S1135BD09EA10E94E837DC01CB018BA79CA7ADA74F
S1135BE0BEA720E030E040E85FE36FA178A589A577
S1135BF09AA50E94953688231CF481E08FA7CAC019
S1135C0020E03FEF4FE757E46BA57CA58DA59EA54B
S1135C100E94E43718160CF087C020E030E04AE711
S1135C2054E46BA17CA18DA19EA10E949936DC0154
S1135C30CB0188AB99ABAAABBBAB20E030E04AE721
S1135C4055E468A979A98AA99BA90E94E837DC01CF
S1135C50CB018CAB9DABAEABBFAB20E030E040E8FA
S1135C605FE36CA97DA98EA99FA90E94953688231C
S1135C702CF481E090E099AF88AF45C020E03FEF7D
S1135C804FE757E46CA97DA98EA99FA90E94E43728
S1135C9018167CF520E030E040E251E468A979A9C7
S1135CA08AA99BA90E94E837DC01CB01BC01CD0184
S1135CB00E940637DC01CB0199AF88AF0FC080E9A1
S1135CC091E09BAF8AAF8AAD9BAD0197F1F79BAF93
S1135CD08AAF88AD99AD019799AF88AF88AD99AD7A
S1135CE0892B69F7CE018D5B9F4FFC0180818FA7C3
