:1000000081C000009FC000009DC000009BC0000098
:1000100099C0000097C0000095C0000093C0000088
:1000200091C000008FC000008DC000008BC0000098
:1000300089C0000087C0000085C0000083C00000A8
:1000400081C000001DC500007DC000007BC0000015
:1000500079C000009AC5000075C0000073C00000A0
:1000600071C000006FC000006DC000006BC00000D8
:1000700069C000006EC6000065C0000063C00000DB
:1000800061C000005FC000005DC000005BC00000F8
:1000900059C0000057C0000055C0000053C0000008
:1000A00051C000004FC000004DC000004BC0000018
:1000B00049C0000047C0000045C0000043C0000028
:1000C00041C000003FC000003DC000000C949609F4
:1000D0000C94C90837C0000035C0000033C00000D0
:1000E00031C00000C10FC10FB10FB50FC10FB90F63
:1000F000C10FC10FC10FC10FC10FC10FC10FC10F80
:10010000C10FBD0F11241FBECFEFD1E2DEBFCDBFA7
:1001100000E00CBF18E0A0E0B2E0E8E7F9E400E09E
:100120000BBF02C007900D92A833B107D9F72CE09E
:10013000A8E3B8E001C01D92AE32B207E1F7E4D601
:100140000C94BA245DCFCF93DF93CDB7DEB7ABD39A
:10015000A3D34AD470D4BFD160E970ED83E090E0BE
:1001600068D70E94ED127894DF91CF910895CF93D4
:10017000DF931F921F92CDB7DEB79A83898389815F
:100180009A8190933F0880933E080F900F90DF91E3
:10019000CF910895CF93DF93CDB7DEB780913E081E
:1001A00090913F08892B31F080913E0890913F0853
:1001B000FC011995DF91CF910895CF93DF93CDB7CF
:1001C000DEB78DE290E02DE230E0F901208120627F
:1001D000FC0120838DE290E02DE230E0F9012081E6
:1001E0002061FC0120838DE290E02DE230E0F901F6
:1001F00020812860FC0120838AE091E02AE031E040
:10020000F90120812062FC0120838AE091E02AE04C
:1002100031E0F90120812061FC0120838AE091E036
:100220002AE031E0F90120812860FC0120838EE280
:1002300090E02EE230E0F90120812F7DFC01208347
:100240008EE290E02EE230E0F90120812F7EFC0169
:1002500020838EE290E02EE230E0F9012081277FBA
:10026000FC0120838BE091E02BE031E0F90120815B
:100270002F7DFC0120838BE091E02BE031E0F90140
:1002800020812F7EFC0120838BE091E02BE031E088
:10029000F9012081277FFC0120838AE090E0A0E023
:1002A000B0E08093380890933908A0933A08B0934F
:1002B0003B08DF91CF910895CF93DF93CDB7DEB7A1
:1002C000DF91CF910895CF93DF9300D0CDB7DEB704
:1002D0009A8389836B8389819A816B810E94A4248C
:1002E0000F900F900F90DF91CF910895CF93DF93F0
:1002F00000D01F92CDB7DEB79A8389837C836B834E
:100300002B813C8189819A81B9010E94B7240F9089
:100310000F900F900F90DF91CF910895CF93DF93BF
:1003200000D000D0CDB7DEB79A8389834B835C833E
:100330006D837E838B819C81AD81BE8129813A81D1
:10034000AC01BD01C9010E94B22426960FB6F894F3
:10035000DEBF0FBECDBFDF91CF910895CF93DF9366
:100360001F921F92CDB7DEB79A83898389819A81C4
:100370000E9492240F900F90DF91CF910895CF9318
:10038000DF931F921F92CDB7DEB79A83898389814D
:100390009A810E949F240F900F90DF91CF91089532
:1003A000CF93DF931F921F92CDB7DEB79A838983D5
:1003B00089819A810E949A24DC01CB01BC01CD0184
:1003C0000F900F90DF91CF910895CF93DF9300D0DE
:1003D000CDB7DEB71B821A82198211C089819A813A
:1003E000059709F407C089819A81B8DF982F8B811E
:1003F000890F8B8389819A8101969A838983898168
:100400009A818115984050F38B810F900F900F9037
:10041000DF91CF910895CF93DF93CDB7DEB762E040
:1004200086E090E050DF8091000290910102A0915F
:100430000202B0910302AC01BD0181E090E06EDFE9
:1004400080910F0C9091100CBC0185E690E04EDF7E
:100450008091110C9091120CA091130CB091140C7E
:10046000AC01BD0187E690E059DF8091040C9091CA
:10047000050CBC0189E690E039DF8091260C909153
:10048000270CBC018EE690E031DF8091280C909122
:10049000290CA0912A0CB0912B0CAC01BD0180E776
:1004A00090E03CDF80911B0C90911C0CBC0182E71A
:1004B00090E01CDF8ADF682F85E090E004DFDF91A9
:1004C000CF910895CF93DF93CDB7DEB75FD0A3DF91
:1004D000DF91CF910895CF93DF931F92CDB7DEB711
:1004E00074DF898385E090E039DF982F8981981740
:1004F00009F0E8DF86E090E031DF89833DD082308B
:1005000009F0E0DF85E690E03ADF9093100C8093ED
:100510000F0C87E690E044DFDC01CB018093110CE7
:100520009093120CA093130CB093140C89E690E0F6
:1005300026DF9093050C8093040C8EE690E01FDF7D
:100540009093270C8093260C80E790E029DFDC0154
:10055000CB018093280C9093290CA0932A0CB09384
:100560002B0C82E790E00BDF90931C0C80931B0C0C
:100570000F90DF91CF910895CF93DF93CDB7DEB782
:1005800086E090E0EBDEDF91CF910895CF93DF938B
:10059000CDB7DEB781E08093B5091092A40986EE4D
:1005A0008093BA098CEE91E5AAEBB1E48093BC0983
:1005B0009093BD09A093BE09B093BF098DE39AE063
:1005C000A7E5BFE38093C0099093C109A093C20936
:1005D000B093C30981E79DE3A1E2B3E48093C4092A
:1005E0009093C509A093C609B093C7098FEF809374
:1005F000C80988E28093BB098CEC8093A3098FEF34
:1006000080936F0B81E08093F70981E08093E60986
:1006100086EE8093FC098CEE91E5AAEBB1E4809321
:10062000FE099093FF09A093000AB093010A8DE39D
:100630009AE0A7E5BFE38093020A9093030AA09390
:10064000040AB093050A81E79DE3A1E2B3E4809335
:10065000060A9093070AA093080AB093090A8FEF3D
:1006600080930A0A88E28093FD098BEC8093E50968
:100670008FEF8093710B81E08093390A82E0809341
:10068000280A8FEF80933E0A80E090E0A4E4B3E470
:100690008093400A9093410AA093420AB093430A80
:1006A00080E090E0A4E0B2E48093440A9093450A8D
:1006B000A093460AB093470A80E090E0A1E9B3E432
:1006C0008093480A9093490AA0934A0AB0934B0A30
:1006D0008FEF80934C0A80E580933F0A8BEC8093E8
:1006E000270A81E080937B0A83E080936A0A8FEF78
:1006F0008093800A80E090E0A4E4B3E48093820ACF
:100700009093830AA093840AB093850A80E090E0D6
:10071000A4E0B2E48093860A9093870AA093880AA3
:10072000B093890A80E090E0A1E9B3E480938A0A5B
:1007300090938B0AA0938C0AB0938D0A8FEF8093CD
:100740008E0A80E58093810A8BEC8093690A81E0B0
:100750008093BD0A88E08093AC0A8FEF8093C20A31
:1007600080E090E0A4E4B3E48093C40A9093C50AC7
:10077000A093C60AB093C70A80E090E0A4E0B2E478
:100780008093C80A9093C90AA093CA0AB093CB0A6F
:1007900080E090E0A1E9B3E48093CC0A9093CD0A85
:1007A000A093CE0AB093CF0A8FEF8093D00A80E552
:1007B0008093C30A8BEC8093AB0A81E08093FF0A9D
:1007C00089E08093EE0A8FEF8093040B80E090E045
:1007D000A4E4B3E48093060B9093070BA093080B5B
:1007E000B093090B80E090E0A4E0B2E480930A0BA0
:1007F00090930B0BA0930C0BB0930D0B80E090E04B
:10080000A1E9B3E480930E0B90930F0BA093100B10
:10081000B093110B8FEF8093120B80E58093050B43
:100820008BEC8093ED0A81E08093410B8AE080930A
:10083000300B8FEF8093460B80E090E0A4E4B3E4AC
:100840008093480B9093490BA0934A0BB0934B0BAA
:1008500080E090E0A4E0B2E480934C0B90934D0BC9
:10086000A0934E0BB0934F0B80E090E0A1E9B3E46E
:100870008093500B9093510BA093520BB093530B5A
:100880008FEF8093540B80E58093470B8BEC809324
:100890002F0BDF91CF910895CF93DF93CDB7DEB7C4
:1008A000DF91CF910895CF93DF93CDB7DEB781E28B
:1008B00090E0FC01808181E290E02FEFFC01208339
:1008C00082E290E0FC01808182E290E0FC011082F3
:1008D00084E290E024E230E0F9012081216FFC0104
:1008E000208385E290E025E230E0F90120812E703E
:1008F000FC01208387E290E0FC01808187E290E0A8
:100900002FEFFC01208388E290E0FC01808188E2E7
:1009100090E0FC0110828AE290E0FC0180818AE292
:1009200090E02FEFFC0120838BE290E0FC018081BE
:100930008BE290E0FC0110828DE290E0FC0180816E
:100940008DE290E02FEFFC0120838EE290E0FC012D
:1009500080818EE290E0FC01108283E390E0FC0154
:10096000808183E390E02FEFFC01208384E390E01B
:10097000FC01808184E390E0FC01108281E091E041
:10098000FC01808181E091E02FEFFC01208382E077
:1009900091E0FC01808182E091E0FC01108284E022
:1009A00091E0FC01808184E091E02FEFFC01208345
:1009B00085E091E0FC01808185E091E0FC011082FE
:1009C0008AE091E0FC0180818AE091E02FEFFC0158
:1009D00020838BE091E0FC0180818BE091E0FC01C1
:1009E0001082DF91CF910895CF93DF93CDB7DEB71B
:1009F00084E490E024E430E0F90120812260FC01ED
:100A0000208385E490E025E430E0F9012081236033
:100A1000FC01208387E490E020E4FC0120838EE643
:100A200090E02EE630E0F90120812260FC01208375
:100A3000DF91CF910895CF93DF93CDB7DEB781E8F3
:100A400090E021E830E0F90120812860FC0120835A
:100A500081E890E021E830E0F90120812360FC0189
:100A6000208388E890E029EF30E0FC013183208387
:100A70008FE690E022E0FC012083DF91CF91089582
:100A80001F920F9200905F000F9211248F939F93FB
:100A9000AF93BF93CF93DF931F921F92CDB7DEB773
:100AA0008091400890914108A0914208B09143087C
:100AB0000196A11DB11D8093400890934108A09319
:100AC0004208B093430880914408909145089A8366
:100AD000898389819A81892B59F089819A8101972B
:100AE0009A83898389819A819093450880934408E9
:100AF00080914608909147089A83898389819A81D9
:100B0000892B59F089819A8101979A8389838981F8
:100B10009A81909347088093460880914808909165
:100B200049089A83898389819A81892B59F089811F
:100B30009A8101979A83898389819A819093490840
:100B40008093480880916508909166089A8389830C
:100B500089819A81892B59F089819A8101979A8399
:100B6000898389819A8190936608809365080F90A4
:100B70000F90DF91CF91BF91AF919F918F910F9087
:100B800000925F000F901F9018951F920F92009097
:100B90005F000F92112400905B000F922F933F9300
:100BA0008F939F93AF93BF93EF93FF93CF93DF9375
:100BB000CDB7DEB780913C08882309F459C08091F5
:100BC0004B0890914C08A0914D08B0914E08892B8C
:100BD0008A2B8B2BD1F580914F0881708823B1F03F
:100BE0008EE290E02EE230E0F90120812062FC01EB
:100BF00020838AE090E0A0E0B0E080934B089093DF
:100C00004C08A0934D08B0934E0819C08EE290E0B6
:100C10002EE230E0F90120812F7DFC0120838091BC
:100C2000380890913908A0913A08B0913B08809318
:100C30004B0890934C08A0934D08B0934E088091B8
:100C40004F088F5F80934F0813C080914B0890919D
:100C50004C08A0914D08B0914E080197A109B10927
:100C600080934B0890934C08A0934D08B0934E0886
:100C700080913D08882309F459C0809150089091D3
:100C80005108A0915208B0915308892B8A2B8B2BC5
:100C9000D1F58091540881708823B1F08BE091E008
:100CA0002BE031E0F90120812062FC0120838AE001
:100CB00090E0A0E0B0E08093500890935108A0939A
:100CC0005208B093530819C08BE091E02BE031E05B
:100CD000F90120812F7DFC012083809138089091BB
:100CE0003908A0913A08B0913B088093500890933E
:100CF0005108A0935208B0935308809154088F5F15
:100D00008093540813C08091500890915108A0918D
:100D10005208B09153080197A109B1098093500876
:100D200090935108A0935208B0935308DF91CF914C
:100D3000FF91EF91BF91AF919F918F913F912F9133
:100D40000F9000925B000F9000925F000F901F9039
:100D500018951F920F9200905F000F92112400903F
:100D60005B000F922F933F934F935F938F939F93CB
:100D7000EF93FF93CF93DF931F921F92CDB7DEB710
:100D800088E790E0FC012081318180914A08882F1A
:100D900090E040914A08442F50E0440F551F4458BA
:100DA000574FFA0140815181240F351F880F991F39
:100DB0008458974FFC013183208380914A08882F03
:100DC00090E09C012959374FF901208141E0420F01
:100DD0009C012959374FF90140838959974FFC01EC
:100DE0008081803208F472C080914A08882F90E098
:100DF00020914A08222F30E0220F331F2458374F0A
:100E0000F9012081318136952795369527953695BC
:100E10002795880F991F8259974FFC0131832083B2
:100E200080914A08882F90E0880F991F8458974F27
:100E3000FC011182108280914A08882F90E0895924
:100E4000974FFC01108280914A088F5F80934A0877
:100E500080914A08873010F010924A0880914A0821
:100E6000282F30E042E4429FC001439F900D11249F
:100E70008C55964FFC01808189838981882F90E071
:100E800088709927892B51F08BE790E02BE730E0B1
:100E9000F90120812860FC01208309C08BE790E0E4
:100EA0002BE730E0F9012081277FFC0120838CE7CC
:100EB00090E0FC018081982F907E89818770892B3A
:100EC0008A838CE790E02A81FC0120838AE790E006
:100ED0002AE730E0F90120812064FC0120830F9093
:100EE0000F90DF91CF91FF91EF919F918F915F9143
:100EF0004F913F912F910F9000925B000F900092C5
:100F00005F000F901F901895CF93DF93CDB7DEB79A
:100F10008FE59FE018D085E092E20E94C7128CE531
:100F200091E025D910D949D90E94C51788EE93E0E0
:100F3000909349088093480881E699E017D00E9471
:100F4000DA1228D9F9CFCF93DF931F921F92CDB732
:100F5000DEB79A83898389819A8190935708809319
:100F600056080F900F90DF91CF910895CF93DF93A4
:100F70001F921F92CDB7DEB79A83898380918B0829
:100F80008823B1F08091560890915708892B61F021
:100F900089819A8164D120915608309157088981BE
:100FA0009A81F901199504C08091200980931F0945
:100FB0000F900F90DF91CF910895CF93DF931F9201
:100FC0001F92CDB7DEB78A8319828A81803338F0C9
:100FD0008A818A3320F48A818053898309C08A8177
:100FE000813430F08A81873418F48A818753898369
:100FF00089810F900F90DF91CF910895CF93DF9368
:101000001F92CDB7DEB7898389818A3020F4898128
:10101000805D898309C089818A3030F0898180317F
:1010200018F48981895C898389810F90DF91CF9140
:101030000895CF93DF93CDB7DEB72A970FB6F89414
:10104000DEBF0FBECDBF6B837C838D839E8380E428
:1010500092E4AFE0B0E02B813C814D815E81BC0128
:10106000CD010E94E623DA01C90101979A838983A1
:1010700085ED90E029813A81232F3327FC012083DD
:1010800084ED90E02981FC01208381ED90E021ED49
:1010900030E0F90120812869FC01208382ED90E095
:1010A00026E0FC0120832A960FB6F894DEBF0FBE1F
:1010B000CDBFDF91CF910895CF93DF931F921F9201
:1010C000CDB7DEB78A8380918A088F5F8F77898357
:1010D000000080919E0899819817D9F38981882F03
:1010E00090E08156974F2A81FC012083898180936B
:1010F0008A0881ED90E021ED30E0F9012081206245
:10110000FC0120830F900F90DF91CF9108951F93E2
:10111000CF93DF931F921F92CDB7DEB79A83898357
:1011200002C0812FC9DF89819A819C012F5F3F4FC7
:101130003A832983FC011081112399F70F900F90B6
:10114000DF91CF911F910895CF93DF93CDB7DEB795
:1011500065970FB6F894DEBF0FBECDBF9B8B8A8B11
:101160007D8B6C8B2C893D898A899B89A9019E0185
:101170002F5F3F4FB9010E944524CE010196C7DF82
:1011800065960FB6F894DEBF0FBECDBFDF91CF914D
:1011900008951F920F9200905F000F92112400900B
:1011A0005B000F922F933F938F939F93EF93FF9347
:1011B000CF93DF93CDB7DEB790918A0880919E08D8
:1011C000981799F080919E088F5F8F7780939E0883
:1011D00086ED90E020919E08222F30E02156374F77
:1011E000F9012081FC01208309C081ED90E021ED0F
:1011F00030E0F90120812F7DFC012083DF91CF9128
:10120000FF91EF919F918F913F912F910F900092BD
:101210005B000F9000925F000F901F901895CF9386
:10122000DF93CDB7DEB790911F0980912009981701
:1012300019F48FEF9FEF10C0809120098F5F8F739B
:101240008093200980912009882F90E08F5D964F30
:10125000FC018081882F90E0DF91CF910895FF926B
:101260000F931F93CF93DF93CDB7DEB728970FB6B9
:10127000F894DEBF0FBECDBF98878F838F8198858E
:101280009D838C8319821A821B828F819885019697
:1012900098878F8380918B088823D1F12AC08E8113
:1012A0008D3009F42BC089818823E9F08A81882355
:1012B000B9F08B818F5F8B830F811885C8010196F0
:1012C00098878F838A8179DEF82EFF0CFF0CFF0C44
:1012D000FF0C8E8172DE8F0DF80180831A8209C0A7
:1012E0008E818A8306C08E818A3319F481E08983D6
:1012F0001A8295DF8E838E81882389F68C819D8169
:101300002B81FC01208380918B08815080938B0876
:101310008C819D8128960FB6F894DEBF0FBECDBF9D
:10132000DF91CF911F910F91FF9008951F920F921F
:1013300000905F000F92112400905B000F920F93BA
:101340001F938F939F93EF93FF93CF93DF93CDB72B
:10135000DEB786ED90E0FC01008180911F098F5F70
:10136000182F1F7380912009181729F480912009E4
:1013700080931F092EC0802F90E08A30910541F1A3
:101380008B3091051CF4892B19F119C08D30910512
:1013900019F0CA9789F013C010931F09812F90E0AC
:1013A0008F5D964FFC01008380918B088F5F809347
:1013B0008B08109255080DC081E08093550810935A
:1013C0001F09812F90E08F5D964FFC01008301C0C3
:1013D0000000DF91CF91FF91EF919F918F911F912D
:1013E0000F910F9000925B000F9000925F000F90A2
:1013F0001F901895CF93DF9300D01F921F92CDB707
:10140000DEB79C838B836D83198281E08A830FC052
:101410008A81882F90E02B813C81820F931FFC01F1
:1014200080819981890F89838A818F5F8A839A81DC
:101430008D81981768F3898181950F900F900F9097
:101440000F900F90DF91CF910895CF93DF9300D04D
:1014500000D0CDB7DEB79E838D838D819E819C01A8
:1014600040E050E08091400890914108A0914208EE
:10147000B0914308820F931FA41FB51F89839A83DD
:10148000AB83BC83000029813A814B815C818091D0
:10149000400890914108A0914208B09143088217FA
:1014A0009307A407B50778F326960FB6F894DEBF26
:1014B0000FBECDBFDF91CF910895CF93DF93CDB70E
:1014C000DEB784EF91E0909366088093650808C0CA
:1014D0008091650890916608892B11F480E005C021
:1014E000809155088823A1F781E0DF91CF9108957D
:1014F000CF93DF9300D0CDB7DEB78B838B818295FE
:101500008F708983998180EF989F902D11248B8112
:10151000890F8A83898172DD89838A816FDD8A835D
:101520008981CADD8A81C8DD0F900F900F90DF910D
:10153000CF9108951F93CF93DF9300D0CDB7DEB73F
:101540009B838A83BADF8AE3B7DD19820FC0898162
:10155000882F90E001962A813B81820F931FFC0126
:101560001081812FC5DF89818F5F89838A819B816B
:10157000FC0190818981891750F38DE09DDD8AE01F
:101580009BDD82E090E061DF0F900F900F90DF9184
:10159000CF911F910895CF93DF931F921F92CDB7E4
:1015A000DEB79A83898389DF8AE386DD8BE384DD76
:1015B00089819A81ACDD8DE07FDD8AE07DDD82E08E
:1015C00090E043DF0F900F90DF91CF910895CF937C
:1015D000DF9300D01F92CDB7DEB79A8389837C83D7
:1015E0006B836BDF8AE368DD8BE366DD89819A813B
:1015F0008EDD8B819C816AE070E0A6DD8DE05CDD94
:101600008AE05ADD82E090E020DF0F900F900F908B
:101610000F90DF91CF910895CF93DF9300D000D04A
:10162000CDB7DEB79E838D838D819E81FC01808145
:10163000882F90E002972D813E81820F931FFC013D
:101640008081882F90E0382F22278D819E81FC0198
:101650008081882F90E001974D815E81840F951FD6
:10166000FC018081882F90E0820F931F9A838983E9
:101670008D819E810396FC018081882F90E0382F18
:1016800022278D819E810496FC018081882F90E025
:10169000820F931F9C838B838B819C81843BF4E01E
:1016A0009F0709F4A3C0853B24E09207E8F4803B40
:1016B000E4E09E0709F473C0813BF4E09F0750F417
:1016C00082309105D9F18A30910509F43BC0019728
:1016D00099F1CCC0823B24E0920709F46EC0833BB1
:1016E000944008F073C062C0883BF4E09F0709F49F
:1016F000A0C0893B24E0920750F4863BE4E09E07BB
:1017000009F487C0873B944008F08AC07BC08032D0
:101710002EE49207E9F08132EEE49E0728F4893B3B
:10172000944009F496C0A2C081322EE49207B9F029
:1017300082329E44D9F09AC02CD498C085E092E0C1
:101740002ADF94C00E940B0288E192E024DF8EC061
:1017500089819A81BC0181EA99E060D487C089813E
:101760009A81BC0183EE99E059D480C089819A8125
:10177000BC0189EA9AE052D489819A81BC018BEE3E
:101780009AE04CD489819A81BC018DE29BE046D4D9
:1017900089819A81BC018FE69BE040D467C0898132
:1017A0009A819093070C8093060C60C089819A817E
:1017B0009093050C8093040C59C089819A81909371
:1017C000100C80930F0C0E940B0250C089819A81EB
:1017D000CC01A0E0B0E08093110C9093120CA09388
:1017E000130CB093140C0E940B0240C089819A81A3
:1017F0009093160C8093150C81E0809359081092F9
:101800005A0834C089819A8190931E0C80931D0CD4
:101810002DC089819A8190931C0C80931B0C26C04B
:1018200089819A819093270C8093260C0E940B0249
:101830001DC089819A81CC01A0E0B0E08093280C82
:101840009093290CA0932A0CB0932B0C0E940B02AE
:101850000DC089819A8190932D0C80932C0C81E08E
:101860008093590881E080935A0800008D819E8101
:1018700061DE81E026960FB6F894DEBF0FBECDBFC5
:10188000DF91CF9108950F931F93CF93DF93CDB73F
:10189000DEB765970FB6F894DEBF0FBECDBF9D8B48
:1018A0008C8B8C899D890596FC018081882F90E026
:1018B000382F22278C899D890696FC018081882FEC
:1018C00090E0820F931F9F838E838C899D8903965E
:1018D000FC018081882F90E0382F22278C899D89F8
:1018E0000496FC018081882F90E0820F931F9987D6
:1018F00088871B861A8680E090E0A8E4B2E48C8793
:101900009D87AE87BF87198A188A19821B821A821F
:101910001B8A1A8A1C821092F90B1092FA0B1092F1
:10192000FB0B1092FC0B1092FD0B1092FE0B109211
:10193000FF0B1D82CEC08D81282F30E088859985D0
:10194000820F931F853FF1E09F07A1F1863F21E0C1
:10195000920709F47CC0843F914009F0B4C08C81A7
:10196000882F90E008969C018C899D89820F931F97
:10197000FC018081882F90E0982F88279B878A8799
:101980008C818F5F8C838C81882F90E008969C01DE
:101990008C899D89820F931FFC018081882F90E0A4
:1019A0002A853B85822B932B9B878A878A85809308
:1019B000F90B89C08C81882F90E008969C018C8956
:1019C0009D89820F931FFC018081882F90E0982FC2
:1019D00088279B8B8A8B8C818F5F8C838C81882F4F
:1019E00090E008969C018C899D89820F931FFC01D1
:1019F0008081882F90E02A893B89822B932B9B8BB7
:101A00008A8B8A899B89CC01A0E0B0E0BC01CD0122
:101A10000E94BE22DC01CB0120E030E048EC52E421
:101A2000BC01CD010E942522DC01CB018C879D8762
:101A3000AE87BF878C859D85AE85BF858093FA0B69
:101A40009093FB0BA093FC0BB093FD0B3CC08C81DF
:101A5000882F90E008969C018C899D89820F931FA6
:101A6000FC018081882F90E0982F88279B838A83B0
:101A70008C818F5F8C838C81882F90E008969C01ED
:101A80008C899D89820F931FFC018081882F90E0B3
:101A90002A813B81822B932B9B838A838A819B8122
:101AA00099233CF481E089838A819B819F779B8382
:101AB0008A838A818093FE0B89818093FF0B81E06A
:101AC0008093580800008C818F5F8C838D818F5F9D
:101AD0008D838D81282F30E08E819F8128173907D3
:101AE00008F429CF8C899D8927E0FC0120838C890B
:101AF0009D89FC018081882F90E02C893D89890196
:101B0000080F191F8C899D89FC0120818C899D8972
:101B1000622F70DCF80180838C899D890BDD81E068
:101B200065960FB6F894DEBF0FBECDBFDF91CF91A3
:101B30001F910F910895CF93DF93CDB7DEB729970B
:101B40000FB6F894DEBF0FBECDBF9D838C837F831D
:101B50006E83598748878C819D81892F9927898336
:101B60008E819F81FC0180818A838A818F5F8A8335
:101B70008A81882F90E0039628853985820F931FEC
:101B80002981FC0120838C818B838A818F5F8A83EA
:101B90008A81882F90E0039628853985820F931FCC
:101BA0002B81FC0120838E819F812A81FC0120836F
:101BB00029960FB6F894DEBF0FBECDBFDF91CF914F
:101BC00008950F931F93CF93DF93CDB7DEB72E9772
:101BD0000FB6F894DEBF0FBECDBF9E878D878D8573
:101BE0009E85FC018081882F90E001972D853E85A0
:101BF000820F931FFC018081882F90E09B838A8352
:101C00008D859E850396FC018081882F90E0382F7A
:101C100022278D859E850496FC018081882F90E087
:101C2000820F931F9D838C831C861F821E821886C1
:101C300019861A861B86198209C18981282F30E0EE
:101C40008C819D81820F931F863BF4E09F0709F4EE
:101C5000C4C0873B24E09207E8F4823BE4E09E079F
:101C600009F46DC0833BF4E09F0750F4803B24E00F
:101C7000920709F44CC0813B944009F454C0E3C07E
:101C8000843BF4E09F0709F478C0853B944008F05A
:101C900098C061C0843AECE99E0709F1853AFCE9F5
:101CA0009F0778F4883B24E0920709F4AEC0883B94
:101CB000E4E09E0708F49DC0893B944009F4B7C056
:101CC000C2C0863A2CE9920709F463C0863AECE96F
:101CD0009E0788F0873A9C4909F467C0B4C0809198
:101CE000000C9091010C4D855E859E01245F3F4F55
:101CF000B90121DFA8C08091020C9091030C4D85A1
:101D00005E859E01245F3F4FB90115DF9CC0809125
:101D1000060C9091070C4D855E859E01245F3F4F18
:101D2000B90109DF90C08091040C9091050C4D859C
:101D30005E859E01245F3F4FB901FDDE84C0809126
:101D40000F0C9091100C4D855E859E01245F3F4FD6
:101D5000B901F1DE78C08091110C9091120CA09124
:101D6000130CB091140CFC012D853E85CE010C9610
:101D7000A901BC01CF01DFDE66C08091150C9091F6
:101D8000160C4D855E859E01245F3F4FB901D3DE61
:101D90005AC08091170C9091180C4D855E859E015C
:101DA000245F3F4FB901C7DE4EC08091190C90915E
:101DB0001A0C4D855E859E01245F3F4FB901BBDE45
:101DC00042C080911D0C90911E0C4D855E859E0138
:101DD000245F3F4FB901AFDE36C080911B0C90915C
:101DE0001C0C4D855E859E01245F3F4FB901A3DE2B
:101DF0002AC08091260C9091270C4D855E859E010E
:101E0000245F3F4FB90197DE1EC08091280C90914E
:101E1000290CA0912A0CB0912B0CFC012D853E853C
:101E2000CE010C96A901BC01CF0185DE0CC08091CA
:101E30002C0C90912D0C4D855E859E01245F3F4FAB
:101E4000B90179DE000089818F5F89838981282F1C
:101E500030E08A819B812817390708F4EECE8C8503
:101E600024E0280F8D859E85FC0120838D859E852D
:101E700003962C85FC0120838C85882F90E00496A6
:101E80009C018D859E858C01020F131F8D859E857B
:101E9000FC0120818D859E85622FACDAF80180835C
:101EA0008D859E8547DB81E02E960FB6F894DEBFC8
:101EB0000FBECDBFDF91CF911F910F9108951F935A
:101EC000CF93DF9300D01F92CDB7DEB79C838B8377
:101ED0008B819C810196FC018081853641F08B814C
:101EE0009C810196FC018081882309F04AC08B8186
:101EF0009C81FC018081882F90E02B813C81820FA6
:101F0000931FFC0110818B819C81FC0120818B81BE
:101F10009C81622F6FDA1817A1F58B819C81029644
:101F2000FC018081882F90E09A8389838B819C813A
:101F30000296FC018081882F90E0092E000CAA0BEC
:101F4000BB0B41E050E02FE030E0841B950B2817DD
:101F50003907B8F0FC018827EE58FF4F8F4F0C94DB
:101F600024248B819C812DDE0CC08B819C8129DEF9
:101F700008C08B819C8150DB04C08B819C8183DCF9
:101F800000000F900F900F900F90DF91CF911F9155
:101F90000895CF93DF931F92CDB7DEB7198234C077
:101FA0008981282F30E042E4429FC001439F900D79
:101FB00011248355964FFC011082118212821382E4
:101FC0008981282F30E042E4429FC001439F900D59
:101FD00011248955964FFC01118210828981282F86
:101FE00030E042E4429FC001439F900D11248F5581
:101FF000964FFC018081882F90E0825A974FFC0118
:10200000108289818F5F89838981883048F28FEFC0
:10201000809304020F90DF91CF910895EF92FF9289
:102020000F931F93CF93DF93CDB7DEB7EE970FB625
:10203000F894DEBF0FBECDBF98A78FA37AA769A77C
:1020400089A59AA5CC01A0E0B0E0BC01CD010E9419
:10205000BE22DC01CB0120E030E048EC52E4BC01C0
:10206000CD010E942522DC01CB012FA138A5F90169
:1020700084879587A687B7878FA198A5FC0184855B
:102080009585A685B78520E030E040E051E4BC01AD
:10209000CD010E947423DC01CB01BC01CD010E9463
:1020A0008D22DC01CB019A8F898F8FA198A5FC012D
:1020B000828189838FA198A5FC018281882F90E07D
:1020C0008C33910509F477C18D33910564F4813027
:1020D00091050CF44FC28D309105CCF0C297039757
:1020E00008F048C2C5C08436910509F484C185361C
:1020F00091052CF4813691050CF43CC29CC18B3CBB
:10210000910509F498C18C3C910509F033C289818D
:102110008C3C11F488E0898389818150898389818D
:10212000882F90E08655984FFC018081880F8B8F17
:1021300082E08A838981882F90E0880F991F8257D7
:10214000984FFC01808191819D8F8C8F8C8D9D8D0E
:10215000FC01808191819C838B838C8D9D8DFC0102
:10216000828193819E838D8372C08A8191E0980FD2
:102170009A83882F90E0880F991F2C8D3D8D820FB8
:10218000931FFC018081918198878F838A8191E0E0
:10219000980F9A83882F90E0880F991F2C8D3D8D82
:1021A000820F931FFC01808191819F8F8E8F2E8DD6
:1021B0003F8D898D9A8D281739070CF040C02D81ED
:1021C0003E81898D9A8DA901481B590BCA019C013A
:1021D000990F440B550B6B817C818F819885FB0196
:1021E000E81BF90BCF01092E000CAA0BBB0BBC019D
:1021F000CD010E94D7237B018C012D813E818E8DE4
:102200009F8DA901481B590BCA019C01990F440BD2
:10221000550BC801B7010E940824DA01C9019C01CD
:102220008B819C81F901E81BF90BCF018450904F01
:102230009C018FA198A5FC01378326839BC18E8DBD
:102240009F8D9E838D838F8198859C838B839A81BC
:102250008B8D981708F489CF2CEF3FE08F819885FC
:10226000281B390B8FA198A5FC013783268382C1D7
:1022700089818E5289838981882F90E08655984F75
:10228000FC018081880F88A382E089878981882F5B
:1022900090E0880F991F8257984FFC0180819181AF
:1022A0009AA389A389A19AA1FC01808191819B872E
:1022B0008A8789A19AA1FC01828193819D878C875D
:1022C0006DC0898591E0980F9987882F90E0880FDD
:1022D000991F29A13AA1820F931FFC01808191814E
:1022E0009F878E87898591E0980F9987882F90E046
:1022F000880F991F29A13AA1820F931FFC018081A9
:1023000091819CA38BA32BA13CA1898D9A8D8217CF
:102310009307E4F52C853D85898D9A8DA901481B8D
:10232000590BCA019C01990F440B550B6A857B859B
:102330008E859F85FB01E81BF90BCF01092E000C50
:10234000AA0BBB0BBC01CD010E94D7237B018C01E2
:102350002C853D858BA19CA1A901481B590BCA0165
:102360009C01990F440B550BC801B7010E9408242A
:10237000DA01C9019C018A859B85820F931F9C010C
:102380008FA198A5FC0137832683F4C08BA19CA163
:102390009D878C878E859F859B878A87998588A155
:1023A000981708F48ECF8FA198A52E853F85FC0144
:1023B00037832683DFC0898D9A8D092E000CAA0BE6
:1023C000BB0B072E7CE0880F991FAA1FBB1F7A95B5
:1023D000D1F7702D28EE33E040E050E0BC01CD0194
:1023E0000E940824DA01C9019C018FA198A5FC0173
:1023F00037832683BFC0898D9A8D092E000CAA0BC6
:10240000BB0B072E7CE0880F991FAA1FBB1F7A9574
:10241000D1F7702D24EF31E040E050E0BC01CD0158
:102420000E940824DA01C9019C018FA198A5FC0132
:10243000378326839FC089818B3C11F481E6898391
:1024400082E0888B8981813621F485E79BE09A8B35
:10245000898B89899A89FC01808191819C8B8B8BE6
:1024600089899A89FC01828193819E8B8D8B72C0B0
:10247000888991E0980F988B882F90E0880F991F9A
:1024800029893A89820F931FFC0180819181988F5D
:102490008F8B888991E0980F988B882F90E0880F18
:1024A000991F29893A89820F931FFC0180819181AC
:1024B0009EA38DA32DA13EA1898D9A8D2817390742
:1024C0000CF040C02D893E89898D9A8DA901481B49
:1024D000590BCA019C01990F440B550B6B897C89E0
:1024E0008F89988DFB01E81BF90BCF01092E000C99
:1024F000AA0BBB0BBC01CD010E94D7237B018C0131
:102500002D893E898DA19EA1A901481B590BCA01A5
:102510009C01990F440B550BC801B7010E94082478
:10252000DA01C9019C018B899C89F901E81BF90B2F
:10253000CF018450904F9C018FA198A5FC01378357
:10254000268318C08DA19EA19E8B8D8B8F89988D1F
:102550009C8B8B8B8889823408F48ACF2CEF3FE0E8
:102560008F89988D281B390B8FA198A5FC01378383
:1025700026830000EE960FB6F894DEBF0FBECDBFE7
:10258000DF91CF911F910F91FF90EF900895CF931E
:10259000DF931F921F92CDB7DEB79A83898389811B
:1025A0009A8190935C0880935B080F900F90DF9165
:1025B000CF910895CF93DF93CDB7DEB780915B08BD
:1025C00090915C08892B31F080915B0890915C08B8
:1025D000FC011995DF91CF910895CF93DF93CDB78B
:1025E000DEB760970FB6F894DEBF0FBECDBF87E0B1
:1025F00091E027E031E0F90120812062FC01208395
:1026000088E091E028E031E0F90120812F7DFC0194
:10261000208387E091E027E031E0F9012081286004
:10262000FC01208388E091E028E031E0F90120817D
:10263000277FFC01208387E091E027E031E0F9016A
:1026400020812F7EFC01208388E091E028E031E0AA
:10265000F90120812F7EFC01208387E091E027E0B3
:1026600031E0F90120812460FC01208388E091E0C1
:1026700028E031E0F90120812B7FFC0120831A82C0
:10268000198257C089810E94EB2129813A8147E153
:10269000429FC001439F900D11248050944FFC0134
:1026A0001182108229813A8147E1429FC001439FF4
:1026B000900D11248A5F934FFC01118210822981B1
:1026C0003A8147E1429FC001439F900D11248E5FE4
:1026D000934FFC011182108229813A8147E1429F88
:1026E000C001439F900D1124865F934FFC0110821F
:1026F00029813A8147E1429FC001439F900D1124F7
:10270000855F934FFC01108211821282138229810E
:102710003A8147E1429FC001439F900D1124885F99
:10272000934FFC011182108289819A8101969A83CC
:10273000898389819A8102970CF4A4CF88E091E083
:1027400028E031E0F90120812B7FFC01208380E02B
:1027500090E0A0E2B1E48B839C83AD83BE8320E054
:1027600030E04AE755E46B817C818D819E810E9437
:102770007423DC01CB018F839887A987BA8720E077
:1027800030E040E85FE36F81788589859A850E9413
:10279000212288232CF481E090E09C878B873FC026
:1027A00020E03FEF4FE757E46F81788589859A8570
:1027B0000E94702318164CF520E030E040E251E40E
:1027C0006B817C818D819E810E947423DC01CB0111
:1027D000BC01CD010E949222DC01CB019C878B873A
:1027E0000FC080E991E09E878D878D859E8501973A
:1027F000F1F79E878D878B859C8501979C878B87BA
:102800008B859C85892B69F714C06F8178858985B4
:102810009A850E949222DC01CB019C878B878B8555
:102820009C85988B8F878F8598890197F1F7988B76
:102830008F8788E091E028E031E0F9012081246071
:10284000FC01208388E091E028E031E0F90120815B
:102850002F7DFC01208360960FB6F894DEBF0FBE7B
:10286000CDBFDF91CF910895CF92DF92EF92FF928B
:102870000F931F93CF93DF93CDB7DEB761970FB65A
:10288000F894DEBF0FBECDBF89834A835B836C8320
:102890007D830E831F8328873987CA86DB86EC8673
:1028A000FD862A813B814C815D8188EE93E0DC01CD
:1028B0000E942C24DC01CB018A839B83AC83BD83E3
:1028C0008981082F10E02E813F81488559858A85AE
:1028D0009B85AC85BD8569017A01C81AD90AEA0AC7
:1028E000FB0AD701C6019C01AD018A819B81AC81A5
:1028F000BD81BC01CD010E94E623DA01C9019C0122
:1029000047E1409FC001419F900D1124815F934F8B
:10291000DC012D933C938981E82FF0E08981282FF9
:1029200030E047E1429FC001439F900D1124815F39
:10293000934FDC018D919C919C0140E050E08A8591
:102940009B85AC85BD85BC01CD010E94D723DC01F0
:10295000CB0147E14E9F90014F9F300D11242F5E18
:10296000334FF90180839183A283B3838981482FF8
:1029700050E08981282F30E067E1629FC001639FAA
:10298000900D11248F5E934FFC0180819181A28173
:10299000B381B095A095909581959F4FAF4FBF4F54
:1029A00067E1649F9001659F300D11242F5E334FC6
:1029B000F90180839183A283B38361960FB6F89463
:1029C000DEBF0FBECDBFDF91CF911F910F91FF9062
:1029D000EF90DF90CF900895CF92DF92EF92FF9229
:1029E0000F931F93CF93DF93CDB7DEB7C654D109B2
:1029F0000FB6F894DEBF0FBECDBF80915A08282FC6
:102A000030E047E1429FC001439F900D11248B5E4F
:102A1000934FFC01808191819A87898788EB97E0A9
:102A20000E94CB0A85E090E09A8389837EC08FEE76
:102A300097E029813A81B9010E94E70A80E090E09D
:102A4000AAE7B4E48F87988BA98BBA8B20E030E09B
:102A50004AE755E46F85788989899A890E947423A9
:102A6000DC01CB018B8B9C8BAD8BBE8B20E030E0EF
:102A700040E85FE36B897C898D899E890E942122D1
:102A800088232CF481E090E0988F8F8B3FC020E06A
:102A90003FEF4FE757E46B897C898D899E890E94BF
:102AA000702318164CF520E030E040E251E46F85C9
:102AB000788989899A890E947423DC01CB01BC0141
:102AC000CD010E949222DC01CB01988F8F8B0FC029
:102AD00080E991E09A8F898F898D9A8D0197F1F71E
:102AE0009A8F898F8F89988D0197988F8F8B8F8977
:102AF000988D892B69F714C06B897C898D899E8993
:102B00000E949222DC01CB01988F8F8B8F89988D48
:102B10009C8F8B8F8B8D9C8D0197F1F79C8F8B8F6A
:102B200089819A8101979A83898389819A819923DE
:102B30000CF07DCF1C821B827CC080915A08882FAC
:102B400090E020D580E090E0A8ECB2E48D8F9E8FDD
:102B5000AF8FB8A320E030E04AE755E46D8D7E8D5D
:102B60008F8D98A10E947423DC01CB0189A39AA3C5
:102B7000ABA3BCA320E030E040E85FE369A17AA109
:102B80008BA19CA10E94212288232CF481E090E05B
:102B90009EA38DA33FC020E03FEF4FE757E469A11C
:102BA0007AA18BA19CA10E94702318164CF520E0FD
:102BB00030E040E251E46D8D7E8D8F8D98A10E94B2
:102BC0007423DC01CB01BC01CD010E949222DC0107
:102BD000CB019EA38DA30FC080E991E098A78FA39E
:102BE0008FA198A50197F1F798A78FA38DA19EA11A
:102BF00001979EA38DA38DA19EA1892B69F714C077
:102C000069A17AA18BA19CA10E949222DC01CB0137
:102C10009EA38DA38DA19EA19AA789A789A59AA5F8
:102C20000197F1F79AA789A78B819C8101969C83D4
:102C30008B838B819C8105970CF47FCF80915A0800
:102C4000282F30E047E1429FC001439F900D11249F
:102C50008050944FFC01808191819C878B8788EF05
:102C600097E00E94CB0A85E090E09E838D837EC032
:102C700085E198E02D813E81B9010E94E70A80E05C
:102C800090E0AAE7B4E48BA79CA7ADA7BEA720E07D
:102C900030E04AE755E46BA57CA58DA59EA50E9472
:102CA0007423DC01CB018FA798ABA9ABBAAB20E0B2
:102CB00030E040E85FE36FA578A989A99AA90E944E
:102CC000212288232CF481E090E09CAB8BAB3FC0A9
:102CD00020E03FEF4FE757E46FA578A989A99AA9AB
:102CE0000E94702318164CF520E030E040E251E4D9
:102CF0006BA57CA58DA59EA50E947423DC01CB014C
:102D0000BC01CD010E949222DC01CB019CAB8BABBC
:102D10000FC080E991E09EAB8DAB8DA99EA9019774
:102D2000F1F79EAB8DAB8BA99CA901979CAB8BABAC
:102D30008BA99CA9892B69F714C06FA578A989A9CB
:102D40009AA90E949222DC01CB019CAB8BAB8BA990
:102D50009CA998AF8FAB8FA998AD0197F1F798AF69
:102D60008FAB8D819E8101979E838D838D819E8106
:102D700099230CF07DCF18861F82BFC080915A081E
:102D8000882F90E0FFD380E090E0A8ECB2E489AF18
:102D90009AAFABAFBCAF20E030E04AE755E469AD95
:102DA0007AAD8BAD9CAD0E947423DC01CB019E01FA
:102DB000235C3F4FF90180839183A283B38320E09A
:102DC00030E040E85FE3CE01CD96FC016081718187
:102DD000828193810E94212288234CF4CE018F5B53
:102DE0009F4F21E030E0FC013183208367C020E069
:102DF0003FEF4FE757E4CE01CD96FC016081718132
:102E0000828193810E94702318160CF046C020E046
:102E100030E040E251E469AD7AAD8BAD9CAD0E94EB
:102E20007423DC01CB018E010F5B1F4FBC01CD0170
:102E30000E949222DC01CB01F8019183808324C09F
:102E4000CE018D5B9F4F20E931E0FC01318320836F
:102E5000CE018D5B9F4FFC01808191810197F1F73D
:102E60009E012D5B3F4FF90191838083CE018F5BE3
:102E70009F4F9E012F5B3F4FF901208131812150EF
:102E80003109FC0131832083CE018F5B9F4FFC0110
:102E900080819181892BA1F62BC08E010F5B1F4F82
:102EA000CE01CD96FC0160817181828193810E9467
:102EB0009222DC01CB01F80191838083CE018B5BF0
:102EC0009F4F9E012F5B3F4FF90120813181FC0113
:102ED00031832083CE018B5B9F4FFC0180819181E8
:102EE0000197F1F79E012B5B3F4FF901918380839E
:102EF0008F819885019698878F838F819885059714
:102F00000CF43CCF80915A08282F30E047E1429FD3
:102F1000C001439F900D11248050944FFC0180818B
:102F200091819E878D878B859C857C01990F000BF5
:102F3000110B8D859E859C01990F440B550B89853E
:102F40009A85CC01A0E0B0E0E0915A0867017801D1
:102F500089019A01AC01BD018E2F86DC0E940B0213
:102F60008EE198E00E94CB0A81E0CA5BDF4F0FB68A
:102F7000F894DEBF0FBECDBFDF91CF911F910F91AF
:102F8000FF90EF90DF90CF9008950F931F93CF9312
:102F9000DF93CDB7DEB7C155D1090FB6F894DEBFC8
:102FA0000FBECDBF19821CC288E091E028E031E05D
:102FB000F90120812860FC01208380E090E0A0E0FE
:102FC000B0E48A839B83AC83BD832BEA3AEA4AEA66
:102FD00050E46A817B818C819D810E947423DC0195
:102FE000CB018E839F83A887B98720E030E040E83B
:102FF00050E46A817B818C819D810E947423DC0175
:10300000CB018A879B87AC87BD8720E030E040E812
:103010005FE36E817F81888599850E9421228823C4
:103020001CF481E08E87B6C020E03FEF4FE757E405
:103030006A857B858C859D850E94702318160CF00F
:103040007FC020E030E04AE754E46A817B818C81D4
:103050009D810E942522DC01CB018F87988BA98B53
:10306000BA8B20E030E04AE755E46F85788989899A
:103070009A890E947423DC01CB018B8B9C8BAD8BD6
:10308000BE8B20E030E040E85FE36B897C898D896E
:103090009E890E94212288232CF481E090E0988F61
:1030A0008F8B41C020E03FEF4FE757E46B897C896D
:1030B0008D899E890E94702318165CF520E030E00F
:1030C00040E251E46F85788989899A890E94742346
:1030D000DC01CB01BC01CD010E949222DC01CB01BD
:1030E000988F8F8B0FC080E991E09A8F898F898D9F
:1030F0009A8D0197F1F79A8F898F8F89988D019713
:10310000988F8F8B8F89988D892B69F78AA18E87ED
:1031100041C06B897C898D899E890E949222DC0145
:10312000CB01988F8F8B8F89988D9C8F8B8F8B8DF8
:103130009C8D0197F1F79C8F8B8F8AA18E872AC077
:1031400020E030E04FE753E46E817F8188859985E8
:103150000E9470231816ACF46A857B858C859D854A
:103160000E949222DC01CB019E8F8D8F8D8D9E8DD2
:1031700098A38F8F8F8D98A10197F1F798A38F8FC8
:103180000FC06E817F81888599850E949222DC0123
:10319000CB018E878E8589A389A18A95F1F789A3B2
:1031A00088E091E028E031E0F9012081277FFC01EF
:1031B000208380E090E0A0E0B0E48BA39CA3ADA3CB
:1031C000BEA32BEA3AEA4AEA50E46BA17CA18DA1A6
:1031D0009EA10E947423DC01CB018FA398A7A9A70D
:1031E000BAA720E030E040E850E46BA17CA18DA1BB
:1031F0009EA10E947423DC01CB018BA79CA7ADA7E5
:10320000BEA720E030E040E85FE36FA178A589A584
:103210009AA50E94212288231CF481E08FA7CAC0AE
:1032200020E03FEF4FE757E46BA57CA58DA59EA559
:103230000E94702318160CF087C020E030E04AE7A7
:1032400054E46BA17CA18DA19EA10E942522DC01EA
:10325000CB0188AB99ABAAABBBAB20E030E04AE72F
:1032600055E468A979A98AA99BA90E947423DC0165
:10327000CB018CAB9DABAEABBFAB20E030E040E808
:103280005FE36CA97DA98EA99FA90E9421228823B2
:103290002CF481E090E099AF88AF45C020E03FEF8B
:1032A0004FE757E46CA97DA98EA99FA90E947023BE
:1032B00018167CF520E030E040E251E468A979A9D5
:1032C0008AA99BA90E947423DC01CB01BC01CD011A
:1032D0000E949222DC01CB0199AF88AF0FC080E938
:1032E00091E09BAF8AAF8AAD9BAD0197F1F79BAFA1
:1032F0008AAF88AD99AD019799AF88AF88AD99AD88
:10330000892B69F7CE018D5B9F4FFC0180818FA7D0
:1033100051C06CA97DA98EA99FA90E949222DC01AF
:10332000CB0199AF88AF88AD99AD9DAF8CAF8CAD17
:103330009DAD0197F1F79DAF8CAFCE018D5B9F4F97
:10334000FC0180818FA736C020E030E04FE753E4D6
:103350006FA178A589A59AA50E94702318160CF56F
:103360006BA57CA58DA59EA50E949222DC01CB01B8
:103370009FAF8EAFCE01805C9F4F2EAD3FADFC0165
:1033800031832083CE01805C9F4FFC01808191813D
:103390000197F1F79E01205C3F4FF90191838083F3
:1033A0001CC06FA178A589A59AA50E949222DC0174
:1033B000CB018FA7CE018E5B9F4F2FA5FC012083F1
:1033C000CE018E5B9F4FFC018081282F2A95F1F75B
:1033D000CE018E5B9F4FFC01208389818F5F8983A3
:1033E00089818A3108F4E0CD9E012C5B3F4F80E05B
:1033F00090E8ABEBB4E4F90180839183A283B383BB
:103400008E01085B1F4FCE018C5B9F4F20E030E0A8
:103410004AE755E4FC0160817181828193810E94B9
:103420007423DC01CB01F80180839183A283B383F1
:10343000CE01885B9F4F20E030E040E85FE3FC0175
:103440006081718182819381FCD788234CF4CE0105
:10345000845B9F4F21E030E0FC01318320836CC00E
:10346000CE01885B9F4F20E03FEF4FE757E4FC0120
:1034700060817181828193810E94702318160CF003
:103480004AC0CE018C5B9F4F20E030E040E251E427
:10349000FC0160817181828193810E947423DC012F
:1034A000CB018E01045B1F4FBC01CD010E94922213
:1034B000DC01CB01F8019183808324C0CE01825BC3
:1034C0009F4F20E931E0FC0131832083CE01825BF4
:1034D0009F4FFC01808191810197F1F79E01225B52
:1034E0003F4FF90191838083CE01845B9F4F9E0102
:1034F000245B3F4FF9012081318121503109FC01CA
:1035000031832083CE01845B9F4FFC0180819181B8
:10351000892BA1F62BC08E01045B1F4FCE01885B67
:103520009F4FFC016081718182819381FBD7DC0117
:10353000CB01F80191838083CE01805B9F4F9E0178
:10354000245B3F4FF90120813181FC0131832083CD
:10355000CE01805B9F4FFC01808191810197F1F743
:103560009E01205B3F4FF90191838083CF5ADF4F4B
:103570000FB6F894DEBF0FBECDBFDF91CF911F9184
:103580000F9108950F931F93CF93DF93CDB7DEB7BD
:10359000C359D1090FB6F894DEBF0FBECDBF198253
:1035A0001A821B821C82000086E091E0FC0180816F
:1035B000882F90E080719927892BB1F71D8272C204
:1035C00089819A81AB81BC81880F991FAA1FBB1F7B
:1035D00089839A83AB83BC8388E091E028E031E063
:1035E000F90120812860FC01208380E090E0A0E0C8
:1035F000B0E48E879F87A88BB98B2BEA3AEA4AEA18
:1036000050E46E857F85888999890E947423DC0146
:10361000CB018A8B9B8BAC8BBD8B20E030E040E8EC
:1036200050E46E857F85888999890E947423DC0126
:10363000CB018E8B9F8BA88FB98F20E030E040E8C4
:103640005FE36A897B898C899D89FBD688231CF47A
:1036500081E08A8FAEC020E03FEF4FE757E46E89EC
:103660007F89888D998D0E94702318160CF07AC07E
:1036700020E030E04AE754E46E857F8588899989A7
:10368000E4D6DC01CB018B8F9C8FAD8FBE8F20E009
:1036900030E04AE755E46B8D7C8D8D8D9E8D0E94C8
:1036A0007423DC01CB018F8F98A3A9A3BAA320E0D8
:1036B00030E040E85FE36F8D78A189A19AA1C1D67F
:1036C00088232CF481E090E09CA38BA33EC020E0F3
:1036D0003FEF4FE757E46F8D78A189A19AA10E942F
:1036E000702318164CF520E030E040E251E46B8D79
:1036F0007C8D8D8D9E8DF8D7DC01CB01BC01CD0179
:1037000011D7DC01CB019CA38BA30FC080E991E012
:103710009EA38DA38DA19EA10197F1F79EA38DA3DA
:103720008BA19CA101979CA38BA38BA19CA1892B0E
:1037300069F78EA58A8F3DC06F8D78A189A19AA166
:10374000F1D6DC01CB019CA38BA38BA19CA198A7F4
:103750008FA38FA198A50197F1F798A78FA38EA5A6
:103760008A8F27C020E030E04FE753E46A897B89E5
:103770008C899D89B5D71816A4F46E897F89888DA8
:10378000998DD0D6DC01CB019AA789A789A59AA5E6
:103790009CA78BA78BA59CA50197F1F79CA78BA74E
:1037A0000EC06A897B898C899D89BCD6DC01CB01DE
:1037B0008A8F8A8D8DA78DA58A95F1F78DA786E0D2
:1037C00091E0FC018081882F90E080719927892BFE
:1037D00049F089819A81AB81BC81816089839A8318
:1037E000AB83BC8388E091E028E031E0F9012081DF
:1037F000277FFC01208380E090E0A0E0B0E48FA769
:1038000098ABA9ABBAAB2BEA3AEA4AEA50E46FA507
:1038100078A989A99AA968D7DC01CB018BAB9CABAD
:10382000ADABBEAB20E030E040E850E46FA578A936
:1038300089A99AA959D7DC01CB018FAB98AFA9AF61
:10384000BAAF20E030E040E85FE36BA97CA98DA926
:103850009EA9F7D588231CF481E08BAF0DC120E031
:103860003FEF4FE757E46FA978AD89AD9AAD38D7F0
:1038700018160CF0C6C020E030E04AE754E46FA50B
:1038800078A989A99AA9E1D5DC01CB018CAF9DAFBC
:10389000AEAFBFAF8E01005C1F4F20E030E04AE7C3
:1038A00055E46CAD7DAD8EAD9FAD1ED7DC01CB0177
:1038B000F80180839183A283B383CE01805C9F4F04
:1038C00020E030E040E85FE3FC01608171818281AB
:1038D0009381B7D588234CF4CE018C5B9F4F21E0B8
:1038E00030E0FC01318320836BC0CE01805C9F4FB0
:1038F00020E03FEF4FE757E4FC0160817181828156
:103900009381EED618160CF04AC020E030E040E279
:1039100051E46CAD7DAD8EAD9FADE6D6DC01CB0143
:103920008E010C5B1F4FBC01CD01FCD5DC01CB012E
:10393000F8019183808324C0CE018A5B9F4F20E9E8
:1039400031E0FC0131832083CE018A5B9F4FFC0173
:10395000808191810197F1F79E012A5B3F4FF90128
:1039600091838083CE018C5B9F4F9E012C5B3F4FE8
:10397000F9012081318121503109FC0131832083FB
:10398000CE018C5B9F4FFC0180819181892BA1F638
:10399000CE01815B9F4FFC0180818BAF6DC08E019A
:1039A0000C5B1F4FCE01805C9F4FFC0160817181D9
:1039B00082819381B7D5DC01CB01F80191838083AB
:1039C000CE01885B9F4F9E012C5B3F4FF901208108
:1039D0003181FC0131832083CE01885B9F4FFC0144
:1039E000808191810197F1F79E01285B3F4FF9019A
:1039F00091838083CE01815B9F4FFC0180818BAFDF
:103A00003BC020E030E04FE753E46BA97CA98DA9CF
:103A10009EA966D6181644F58E01065B1F4F6FA946
:103A200078AD89AD9AAD7ED5DC01CB01F8019183EB
:103A30008083CE01845B9F4F9E01265B3F4FF9013F
:103A400020813181FC0131832083CE01845B9F4F33
:103A5000FC01808191810197F1F79E01245B3F4F2A
:103A6000F901918380831BC06BA97CA98DA99EA9B4
:103A700059D5DC01CB018BAFCE01825B9F4F2BADC3
:103A8000FC012083CE01825B9F4FFC018081282FA7
:103A90002A95F1F7CE01825B9F4FFC0120838D8137
:103AA0008F5F8D838D81883108F48ACD88E091E025
:103AB00028E031E0F90120812860FC0120839E018B
:103AC000205B3F4F80E090E0A0E0B0E4F90180830C
:103AD0009183A283B3838E010C5A1F4FCE01805B6A
:103AE0009F4F2BEA3AEA4AEA50E4FC016081718177
:103AF00082819381F9D5DC01CB01F8018083918328
:103B0000A283B3838E01085A1F4FCE01805B9F4F63
:103B100020E030E040E850E4FC0160817181828166
:103B20009381E2D5DC01CB01F80180839183A283EC
:103B3000B383CE018C5A9F4F20E030E040E85FE332
:103B4000FC0160817181828193817BD488233CF464
:103B5000CE01845A9F4F21E0FC01208325C1CE0174
:103B6000885A9F4F20E03FEF4FE757E4FC01608108
:103B7000718182819381B4D518160CF0CAC0CE0130
:103B8000805B9F4F20E030E04AE754E4FC01608115
:103B900071818281938159D4DC01CB019E01235A2A
:103BA0003F4FF90180839183A283B3838E010F5924
:103BB0001F4FCE01835A9F4F20E030E04AE755E483
:103BC000FC0160817181828193818ED5DC01CB0102
:103BD000F80180839183A283B383CE018F599F4FD5
:103BE00020E030E040E85FE3FC0160817181828188
:103BF000938127D488234CF4CE018B599F4F21E029
:103C000030E0FC013183208369C0CE018F599F4F82
:103C100020E03FEF4FE757E4FC0160817181828132
:103C200093815ED518160CF048C0CE01835A9F4F81
:103C300020E030E040E251E4FC016081718182814A
:103C4000938152D5DC01CB018E010B591F4FBC0172
:103C5000CD0168D4DC01CB01F8019183808324C0BD
:103C6000CE0189599F4F20E931E0FC013183208347
:103C7000CE0189599F4FFC01808191810197F1F715
:103C80009E0129593F4FF90191838083CE018B59C1
:103C90009F4F9E012B593F4FF901208131812150C7
:103CA0003109FC0131832083CE018B599F4FFC01E8
:103CB00080819181892BA1F677C08E010B591F4F0E
:103CC000CE018F599F4FFC01608171818281938168
:103CD00029D4DC01CB01F80191838083CE0187597F
:103CE0009F4F9E012B593F4FF90120813181FC01EB
:103CF00031832083CE0187599F4FFC0180819181C0
:103D00000197F1F79E0127593F4FF9019183808375
:103D10004BC0CE018C5A9F4F20E030E04FE753E478
:103D2000FC016081718182819381DAD4181664F577
:103D30008E0105591F4FCE01885A9F4FFC016081AB
:103D4000718182819381EED3DC01CB01F8019183F3
:103D50008083CE0183599F4F9E0125593F4FF90122
:103D600020813181FC0131832083CE0183599F4F13
:103D7000FC01808191810197F1F79E0123593F4F0A
:103D8000F9019183808327C08E01045A1F4FCE0111
:103D90008C5A9F4FFC016081718182819381C2D3D3
:103DA000DC01CB01F8018083CE0181599F4F9E0138
:103DB000245A3F4FF9012081FC012083CE01815913
:103DC0009F4FFC018081282F2A95F1F7CE01815960
:103DD0009F4FFC01208388E091E028E031E0F90169
:103DE0002081277FFC0120839E0120593F4F80E0E6
:103DF00090E0A0E0B0E4F90180839183A283B383D3
:103E00008E010C581F4FCE0180599F4F2BEA3AEA82
:103E10004AEA50E4FC01608171818281938164D41B
:103E2000DC01CB01F80180839183A283B3838E01EF
:103E300008581F4FCE0180599F4F20E030E040E8E6
:103E400050E4FC0160817181828193814DD4DC0159
:103E5000CB01F80180839183A283B383CE018C5878
:103E60009F4F20E030E040E85FE3FC01608171811A
:103E700082819381E6D288233CF4CE0184589F4FFF
:103E800021E0FC01208325C1CE0188589F4F20E00E
:103E90003FEF4FE757E4FC0160817181828193819C
:103EA0001FD418160CF0CAC0CE0180599F4F20E0D5
:103EB00030E04AE754E4FC016081718182819381A2
:103EC000C4D2DC01CB019E0123583F4FF90180830E
:103ED0009183A283B3838E010F571F4FCE01835866
:103EE0009F4F20E030E04AE755E4FC01608171819A
:103EF00082819381F9D3DC01CB01F8018083918326
:103F0000A283B383CE018F579F4F20E030E040E87B
:103F10005FE3FC01608171818281938192D2882369
:103F20004CF4CE018B579F4F21E030E0FC013183F0
:103F3000208369C0CE018F579F4F20E03FEF4FE7AE
:103F400057E4FC016081718182819381C9D3181685
:103F50000CF048C0CE0183589F4F20E030E040E293
:103F600051E4FC016081718182819381BDD3DC01C8
:103F7000CB018E010B571F4FBC01CD01D3D2DC0109
:103F8000CB01F8019183808324C0CE0189579F4FD4
:103F900020E931E0FC0131832083CE0189579F4F16
:103FA000FC01808191810197F1F79E0129573F4FD4
:103FB000F90191838083CE018B579F4F9E012B5730
:103FC0003F4FF9012081318121503109FC013183BA
:103FD0002083CE018B579F4FFC0180819181892BDB
:103FE000A1F677C08E010B571F4FCE018F579F4F01
:103FF000FC01608171818281938194D2DC01CB01CB
:10400000F80191838083CE0187579F4F9E012B57E4
:104010003F4FF90120813181FC0131832083CE01A2
:1040200087579F4FFC01808191810197F1F79E0195
:1040300027573F4FF901918380834BC0CE018C58A5
:104040009F4F20E030E04FE753E4FC016081718135
:104050008281938145D3181664F58E0105571F4F51
:10406000CE0188589F4FFC016081718182819381CC
:1040700059D2DC01CB01F80191838083CE018357B3
:104080009F4F9E0125573F4FF90120813181FC014F
:1040900031832083CE0183579F4FFC018081918122
:1040A0000197F1F79E0123573F4FF90191838083D8
:1040B00027C08E0104581F4FCE018C589F4FFC0122
:1040C00060817181828193812DD2DC01CB01F80165
:1040D0008083CE0181579F4F9E0124583F4FF901A5
:1040E0002081FC012083CE0181579F4FFC018081FC
:1040F000282F2A95F1F7CE0181579F4FFC0120838D
:1041000080915D08482F50E089819A81AB81BC8104
:10411000892F9A2FAB2FBB27A7FDBA9567E1649F24
:104120009001659F300D1124255F334FF901808385
:104130009183A283B38380915D08282F30E047E10B
:10414000429FC001439F900D1124855F934FFC0156
:1041500080819181A281B38188279078AA27BB278B
:10416000892B8A2B8B2B21F180915D08482F50E001
:1041700080915D08282F30E067E1629FC001639F56
:10418000900D1124855F934FFC0180819181A28164
:10419000B381AF6FBF6F67E1649F9001659F300D82
:1041A0001124255F334FF90180839183A283B38368
:1041B00080915D08282F30E080915D08482F50E005
:1041C00067E1649FC001659F900D1124855F934F47
:1041D000FC0180819181A281B381AC0167E1629F82
:1041E000C001639F900D11248050944FFC015183B6
:1041F000408380915D08282F30E047E1429FC00155
:10420000439F900D1124865F934FFC011082809193
:104210005D08282F30E047E1429FC001439F900D89
:104220001124855F934FFC01108211821282138248
:1042300080915D08282F30E047E1429FC001439FF5
:10424000900D1124815F934FFC0180819181CC01FD
:10425000A0E0B0E08E839F83A887B98780915D0836
:10426000282F30E047E1429FC001439F900D112469
:104270008050944FFC0180819181CC01A0E0B0E09E
:104280008A879B87AC87BD872E813F81488559856A
:104290008A859B85AC85BD85BC01CD0188D2DC01BA
:1042A000CB018E839F83A887B98780915D08282FD3
:1042B00030E047E1429FC001439F900D11248F5E83
:1042C000934FFC0180819181A281B3812E813F8136
:1042D00048855985820F931FA41FB51F8E839F8326
:1042E000A887B9878E819F81A885B98528EE33E09C
:1042F00040E050E0BC01CD018BD2DA01C9018E83D0
:104300009F83A887B98780915D08482F50E02E8150
:104310003F8167E1649FC001659F900D11248E5F0E
:10432000934FFC013183208380915D08482F50E03A
:1043300080915D08282F30E067E1629FC001639F94
:10434000900D11248E5F934FFC012081318180916B
:104350005D08682F70E0E7E1E69FC001E79F900DE0
:1043600011248C5F934FFC0180819181281B390BB4
:1043700067E1649FC001659F900D11248A5F934F90
:10438000FC013183208380915D08882361F088E0FF
:1043900091E028E031E0F90120812062FC012083D6
:1043A00010925D080CC088E091E028E031E0F9014E
:1043B00020812F7DFC01208381E080935D08CD5614
:1043C000DF4F0FB6F894DEBF0FBECDBFDF91CF91A8
:1043D0001F910F910895CF93DF931F92CDB7DEB752
:1043E00089838981282F30E047E1429FC001439FA4
:1043F000900D11248C5F934F24E630E0FC01318353
:1044000020830F90DF91CF910895CF93DF93CDB7A5
:10441000DEB78091480890914908892B39F4B2D8C9
:1044200088EE93E09093490880934808809159085A
:10443000882321F00E94EC1410925908DF91CF914B
:104440000895D9D008F481E008950CD00FC107D1A8
:1044500040F0FED030F021F45F3F19F0F0C0511170
:1044600039C1F3C014D198F39923C9F35523B1F39B
:10447000951B550BBB27AA2762177307840738F0D3
:104480009F5F5F4F220F331F441FAA1FA9F333D032
:104490000E2E3AF0E0E830D091505040E695001CE6
:1044A000CAF729D0FE2F27D0660F771F881FBB1FA2
:1044B000261737074807AB07B0E809F0BB0B802D7C
:1044C000BF01FF2793585F4F2AF09E3F510568F0C8
:1044D000B6C000C15F3FECF3983EDCF3869577955C
:1044E0006795B795F7959F5FC9F7880F911D9695CA
:1044F000879597F90895E1E0660F771F881FBB1F26
:10450000621773078407BA0720F0621B730B840BD2
:10451000BA0BEE1F88F7E095089504D06894B111A6
:10452000D9C00895BCD088F09F5790F0B92F992733
:10453000B751A0F0D1F0660F771F881F991F1AF0AE
:10454000BA95C9F712C0B13081F0C3D0B1E0089577
:10455000C0C0672F782F8827B85F39F0B93FCCF3F8
:10456000869577956795B395D9F73EF490958095A4
:10457000709561957F4F8F4F9F4F0895E89409C0C4
:1045800097FB3EF490958095709561957F4F8F4F86
:104590009F4F9923A9F0F92F96E9BB279395F6959C
:1045A000879577956795B795F111F8CFFAF4BB0F1A
:1045B00011F460FF1BC06F5F7F4F8F4F9F4F16C07E
:1045C000882311F096E911C0772321F09EE8872F08
:1045D000762F05C0662371F096E8862F70E060E0C4
:1045E0002AF09A95660F771F881FDAF7880F96953D
:1045F000879597F90895990F0008550FAA0BE0E8E1
:10460000FEEF16161706E807F907C0F01216130694
:10461000E407F50798F0621B730B840B950B39F4D4
:104620000A2661F0232B242B252B21F408950A263A
:1046300009F4A140A6958FEF811D811D089597F97A
:104640009F6780E870E060E008959FEF80EC089538
:1046500000240A9416161706180609060895002461
:104660000A9412161306140605060895092E0394DB
:10467000000C11F4882352F0BB0F40F4BF2B11F44F
:1046800060FF04C06F5F7F4F8F4F9F4F089557FDAE
:104690009058440F551F59F05F3F71F04795880FB0
:1046A00097FB991F61F09F3F79F087950895121647
:1046B00013061406551FF2CF4695F1DF08C01616F3
:1046C00017061806991FF1CF8695710561050894A4
:1046D0000895E894BB2766277727CB0197F90895BB
:1046E0008ADF08F48FEF08950BD0C0CFB1DF28F038
:1046F000B6DF18F0952309F0A2CFA7CF1124EACF97
:10470000C6DFA0F3959FD1F3950F50E0551F629F30
:10471000F001729FBB27F00DB11D639FAA27F00D1A
:10472000B11DAA1F649F6627B00DA11D661F829F41
:104730002227B00DA11D621F739FB00DA11D621F26
:10474000839FA00D611D221F749F3327A00D611D43
:10475000231F849F600D211D822F762F6A2F112425
:104760009F5750408AF0E1F088234AF0EE0FFF1F78
:10477000BB1F661F771F881F91505040A9F79E3FAF
:10478000510570F05CCFA6CF5F3FECF3983EDCF3B1
:10479000869577956795B795F795E7959F5FC1F7EC
:1047A000FE2B880F911D9695879597F90895DB014B
:1047B0008F939F9351D0BF91AF91A29F800D911D78
:1047C000A39F900DB29F900D11240895A1E21A2E7F
:1047D000AA1BBB1BFD010DC0AA1FBB1FEE1FFF1FA5
:1047E000A217B307E407F50720F0A21BB30BE40BF5
:1047F000F50B661F771F881F991F1A9469F760953C
:104800007095809590959B01AC01BD01CF010895F5
:10481000052E97FB16F400940FD057FD05D0D6DF78
:1048200007FC02D046F408C050954095309521957C
:104830003F4F4F4F5F4F08959095809570956195CC
:104840007F4F8F4F9F4F0895EE0FFF1F881F8BBF25
:104850000790F691E02D199409D0A59F900DB49F73
:10486000900DA49F800D911D11240895A29FB00169
:10487000B39FC001A39F700D811D1124911DB29F94
:10488000700D811D1124911D08954532510518F4B4
:10489000423008F004C0FB011082CB010895BB2711
:1048A0004A3031F4992322F4BDE2909581959F4FCF
:1048B00001C0BB27FB015527AA27880F991FAA1FF4
:1048C000A41710F0A41B83955051B9F7A05DAA332B
:1048D00008F0A95DA193009779F7B111B1931192F6
:1048E000CB0100C0DC01FC01672F71917723E1F758
:1048F000329704C07C916D9370836291AE17BF07AD
:10490000C8F30895DC01CB01FC01F999FECF06C084
:10491000F2BDE1BDF89A319600B40D92415050407D
:10492000B8F70895F999FECF92BD81BDF89A9927FD
:1049300080B50895A6E1B0E044E050E0E5CFA8E1FD
:10494000B0E042E050E0E0CF262FF999FECF1FBA49
:1049500092BD81BD20BD0FB6F894FA9AF99A0FBEA8
:1049600001960895242FF1DF252FEFDF00C0ECDF43
:08497000272FEBCFF894FFCFD5
:1049780090D00300FF46696C616D656E7420426FCC
:104988007820416C697665004155583A2045457054
:10499800726F6D207361766564000000A00F5C0083
:1049A8006009690010097900C0088C007008A2002D
:1049B8002008BD00D007DE0080070501300734015C
:1049C800E0066D019006B20140060702F0056D028F
:1049D800A005E80250057B0300052B04B004F80489
:1049E8006004EB06C003350920037F0B8002650DC8
:1049F800E001B00E40011D0FF000480FC8006C0F19
:104A0800A000ED0F60FFFE0F48FE0400801AD800DA
:104A18009808AC012007800250065403C8052804F2
:104A28005805FC040005D005B004A40668047807FE
:104A380028044C08E8032009B003F4097003C80AE5
:104A480038039C0BF802700CB002440D6802180E73
:104A58000802EC0E8801C00F8800F00F0000040067
:104A6800001B54006009640010097400C008840029
:104A780070089C002008B800D007D8008007000103
:104A880030072C01E00668019006AC0140060002E0
:104A9800F0056802A005E00250057403000524042F
:104AA800B004F0046004DC051004E406C003040844
:104AB800700330092003780B8002600DE001A80E16
:104AC8004001680FA000C00F0000E80F60FF04005D
:104AD800700DD8004804AC0158038002D802540372
:104AE800800228043802FC040002D005C801A4068C
:104AF8009801780770014C08480120091801F40949
:104B0800F000C80AC8009C0BA000700C7000440D8F
:104B18003800180E0000EC0EA8FFC00FE8FE0000D9
:104B2800401F450060094F0010095C00C0086B0079
:104B380070087D0020089200D007AC008007CC00E8
:104B48003007DE00E006230190065E014006A6015C
:104B5800F005FF01A0056D025005F302000596035C
:104B6800B0045A046004400510044806C0036E07E8
:104B78007003A8082003EB09D002230B8002410C24
:104B88003002390DE001040E9001A20E4001170F0A
:104B9800F000690FA000A20F5000C60F0000DD0F43
:104BA800B0FFEB0F60FF0400681D4C00500B940031
:104BB8005809DC0050082401A8076C012807B40133
:104BC800C006FC017006440228068C02F005D402D7
:104BD800B8051C03880564035805AC033005F403C5
:104BE80010053C04E8048404C804CC04A804140593
:104BF80090045C057004A4055804EC0538043406D8
:104C080020047C060804C406F0030C07D8035407E4
:104C1800C8039C07B003E40798032C0880037408B2
:104C28007003BC085803040948034C09300394096D
:104C38001803DC090803240AF0026C0AE002B40A2B
:104C4800C802FC0AB002440BA0028C0B8802D40BE9
:104C580070021C0C5802640C4002AC0C2802F40CC4
:104C680010023C0DF001840DD801CC0DB801140ED2
:104C780098015C0E7001A40E4801EC0E1801340F67
:104C8800D8007C0F8800C40F0800FC0F000000004B
:104C9800000000000000000000000000000000000C
:104CA80000000000000000000000000000000000FC
:104CB800000004000016D800C006AC017805800288
:104CC800C004540348042804E803FC049803D005EE
:104CD8005003A40618037807D8024C08A802200934
:104CE8007002F4093802C80A08029C0BD001700C43
:104CF8009001440D5001180EF800EC0E8800C00F0A
:104D080000000400401D900060091C01B007A801C4
:104D1800D00634023806C002C8054C036805D8031B
:104D280018056404D804F00498047C056004080697
:104D38003004940600042007D003AC07A803380801
:104D48008003C408580350093003DC090803680AC3
:104D5800E002F40AB802800B88020C0C6002980C7E
:104D68003002240DF801B00DC0013C0E8001C80EC0
:104D78003001540FB800B40F2800E00F0000040001
:104D8800081D900058091C01B007A801C806340284
:104D98003006C002C0054C036805D8031805640432
:104DA800D004F00498047C056004080630049406D6
:104DB80000042007D003AC07A80338088003C40800
:104DC800580350093003DC090803680AD802F40ABA
:104DD800B002800B88020C0C6002980C3002240D83
:104DE800F801B00DC0013C0E8001C80E3001540F0F
:104DF800B800B40F2800E00F0000000000008C038A
:104E08000800AE035000D603A000F703F000180412
:104E18004001380490015904E0017A0430029A04F0
:104E28008002BB04D002FC0470032605C00386067A
:104E380030079709A00F750D201C520E401F1F0F39
:104E48006022FF0F803E0400501D7C00D009A400A2
:104E58001009CC008008F40010081C01B8074401B0
:104E680068076C0128079401E806BC01B806E4014C
:104E780088060C026006340238065C0218068402B2
:104E8800F005AC02D805D402B805FC029805240345
:104E9800800574035005C403280514040005640440
:104EA800D804B404B0042C058004A40558041C06D6
:104EB8002804940600040C07D803AC07A8034C0880
:104EC8007803EC0848038C092003A40AD0021C0BC1
:104ED800A802AC0C2802FC0C0802C40DB801140E80
:104EE8009801B40E38012C0FE000540FB8007C0F65
:104EF8008800A40F4800F40F28FFFC0FC0F92A020D
:104F08009A02EE025E03000000000000AE033604C1
:104F1800420592050E068A06D6061C151C140000CA
:104F2800002243141F1F132E6B616C696272616348
:104F38006A6120726F7A706F637A657461212120CB
:104F48005A64656A6D696A206F626369617A656E21
:104F58006965207A2062656C6B69207A613A002065
:104F6800436F756E743A20005A616C6F7A206F62D5
:104F78006369617A656E696520746573746F7765B6
:104F8800207A613A0020436F756E743A20004B61B5
:104F98006C69627261636A61207A616B6F6E637AB1
:084FA8006F6E61212121000060
:00000001FF
