:1000000089C30000A7C30000A5C30000A3C300006C
:10001000A1C300009FC300009DC300009BC300005C
:1000200099C3000097C3000095C3000093C300006C
:1000300091C300008FC300008DC300008BC300007C
:1000400089C3000095C4000085C3000083C300007D
:1000500081C30000FDC400007DC300007BC300001D
:1000600079C3000077C3000075C3000073C30000AC
:1000700071C300004DC600006DC300006BC30000DB
:1000800069C3000067C3000065C3000063C30000CC
:1000900061C300005FC300005DC300005BC30000DC
:1000A00059C3000057C3000055C3000053C30000EC
:1000B00051C300004FC300004DC300004BC30000FC
:1000C00049C3000047C3000045C300000C94420927
:1000D0000C9475083FC300003DC300003BC3000003
:1000E00039C30000311E311E1D1E221E311E271E67
:1000F000311E311E311E311E311E311E311E311E88
:10010000311E2C1E5A265E2664266426522664263C
:1001100064266426562654266426642664266426AD
:10012000642664265C265C2664266426642664268F
:10013000642664265826642664266426642664267B
:100140006426642660266426642664266426642663
:10015000642664266426642664266426642664264F
:10016000642664266426642664266426642664263F
:10017000642664266426642664266426642664262F
:100180006426642662260000A00F5C0060096900F6
:1001900010097900C0088C007008A2002008BD007A
:1001A000D007DE008007050130073401E0066D014D
:1001B0009006B20140060702F0056D02A005E802B4
:1001C00050057B0300052B04B004F8046004EB0623
:1001D000C003350920037F0B8002650DE001B00EDE
:1001E00040011D0FF000480FC8006C0FA000ED0F7C
:1001F00060FFFE0F48FE0400801AD8009808AC018A
:100200002007800250065403C80528045805FC0442
:100210000005D005B004A4066804780728044C083B
:10022000E8032009B003F4097003C80A38039C0BE3
:10023000F802700CB002440D6802180E0802EC0EB1
:100240008801C00F8800F00F00000400001B54005C
:100250006009640010097400C008840070089C00E4
:100260002008B800D007D8008007000130072C0113
:10027000E00668019006AC0140060002F005680245
:10028000A005E0025005740300052404B004F00446
:100290006004DC051004E406C003040870033009A0
:1002A0002003780B8002600DE001A80E4001680F6A
:1002B000A000C00F0000E80F60FF0400700DD80020
:1002C0004804AC0158038002D80254038002280479
:1002D0003802FC040002D005C801A4069801780782
:1002E00070014C08480120091801F409F000C80AFF
:1002F000C8009C0BA000700C7000440D3800180E54
:100300000000EC0EA8FFC00FE8FE0000401F4500F3
:1003100060094F0010095C00C0086B0070087D0088
:1003200020089200D007AC008007CC003007DE0028
:10033000E006230190065E014006A601F005FF01DC
:10034000A0056D025005F30200059603B0045A049F
:100350006004400510044806C0036E077003A80837
:100360002003EB09D002230B8002410C3002390D2F
:10037000E001040E9001A20E4001170FF000690F7A
:10038000A000A20F5000C60F0000DD0FB0FFEB0F62
:1003900060FF0400681D4C00500B94005809DC00FD
:1003A00050082401A8076C012807B401C006FC010D
:1003B0007006440228068C02F005D402B8051C031E
:1003C000880564035805AC033005F40310053C04AC
:1003D000E8048404C804CC04A804140590045C0553
:1003E0007004A4055804EC053804340620047C0687
:1003F0000804C406F0030C07D8035407C8039C077D
:10040000B003E40798032C08800374087003BC0849
:100410005803040948034C09300394091803DC0904
:100420000803240AF0026C0AE002B40AC802FC0ABB
:10043000B002440BA0028C0B8802D40B70021C0C7F
:100440005802640C4002AC0C2802F40C10023C0D63
:10045000F001840DD801CC0DB801140E98015C0E8A
:100460007001A40E4801EC0E1801340FD8007C0F67
:100470008800C40F0800FC0F00000000000000000E
:10048000000000000000000000000000000000006C
:100490000000000000000000000000000000040058
:1004A0000016D800C006AC0178058002C0045403D1
:1004B00048042804E803FC049803D0055003A4066C
:1004C00018037807D8024C08A80220097002F40922
:1004D0003802C80A08029C0BD001700C9001440D30
:1004E0005001180EF800EC0E8800C00F0000040048
:1004F000401D900060091C01B007A801D00634021D
:100500003806C002C8054C036805D8031805640402
:10051000D804F00498047C056004080630049406AE
:1005200000042007D003AC07A80338088003C408E0
:10053000580350093003DC090803680AE002F40A92
:10054000B802800B88020C0C6002980C3002240D5B
:10055000F801B00DC0013C0E8001C80E3001540FEF
:10056000B800B40F2800E00F00000400081D900040
:1005700058091C01B007A801C80634023006C002A1
:10058000C0054C036805D80318056404D004F004C2
:1005900098047C05600408063004940600042007D3
:1005A000D003AC07A80338088003C40858035009D7
:1005B0003003DC090803680AD802F40AB002800B91
:1005C00088020C0C6002980C3002240DF801B00D6A
:1005D000C0013C0E8001C80E3001540FB800B40FAA
:1005E0002800E00F0000000000008C030800AE03AC
:1005F0005000D603A000F703F000180440013804AF
:1006000090015904E0017A0430029A048002BB048C
:10061000D002FC0470032605C00386063007970944
:10062000A00F750D201C520E401F1F0F6022FF0FE0
:10063000803E0400501D7C00D009A4001009CC00AD
:100640008008F40010081C01B807440168076C0119
:1006500028079401E806BC01B806E40188060C02EC
:100660006006340238065C0218068402F005AC020B
:10067000D805D402B805FC0298052403800574034C
:100680005005C4032805140400056404D804B40408
:10069000B0042C058004A40558041C062804940604
:1006A00000040C07D803AC07A8034C087803EC0837
:1006B00048038C092003A40AD0021C0BA802AC0C2E
:1006C0002802FC0C0802C40DB801140E9801B40EE7
:1006D00038012C0FE000540FB8007C0F8800A40FE5
:1006E0004800F40F28FFFC0FC0F98601F6014A020A
:1006F000BA020000000000000A0392039E04EE0408
:100700006A05E60532061C151C140000002243147D
:100710001F1F132E11241FBECFEFD1E2DEBFCDBFAE
:1007200000E00CBF13E0A0E0B2E0E4E3F2E700E099
:100730000BBF02C007900D92A232B107D9F727E094
:10074000A2E2B3E001C01D92A331B207E1F7BBD32F
:100750000C94183955CCCF93DF93CDB7DEB71BD0AF
:1007600013D0BAD0E0D08091000290910102A09104
:100770000202B0910302BC01CD0149D40E94B32B07
:100780007894DF91CF910895CF93DF93CDB7DEB703
:10079000DF91CF910895CF93DF93CDB7DEB781E29C
:1007A00090E0FC01808181E290E02FEFFC0120834A
:1007B00082E290E0FC01808182E290E0FC01108204
:1007C00084E290E024E230E0F9012081216FFC0115
:1007D000208385E290E025E230E0F90120812E704F
:1007E000FC01208387E290E0FC01808187E290E0B9
:1007F0002FEFFC01208388E290E0FC01808188E2F9
:1008000090E0FC0110828AE290E0FC0180818AE2A3
:1008100090E02FEFFC0120838BE290E0FC018081CF
:100820008BE290E0FC0110828DE290E0FC0180817F
:100830008DE290E02FEFFC0120838EE290E0FC013E
:1008400080818EE290E0FC01108283E390E0FC0165
:10085000808183E390E02FEFFC01208384E390E02C
:10086000FC01808184E390E0FC01108281E091E052
:10087000FC01808181E091E02FEFFC01208382E088
:1008800091E0FC01808182E091E0FC01108284E033
:1008900091E0FC01808184E091E02FEFFC01208356
:1008A00085E091E0FC01808185E091E0FC0110820F
:1008B0008AE091E0FC0180818AE091E02FEFFC0169
:1008C00020838BE091E0FC0180818BE091E0FC01D2
:1008D0001082DF91CF910895CF93DF93CDB7DEB72C
:1008E00084E490E024E430E0F90120812260FC01FE
:1008F000208385E490E025E430E0F9012081236045
:10090000FC01208387E490E020E4FC0120838EE654
:1009100090E02EE630E0F90120812260FC01208386
:10092000DF91CF910895CF93DF93CDB7DEB781E804
:1009300090E021E830E0F90120812860FC0120836B
:1009400081E890E021E830E0F90120812360FC019A
:10095000208388E890E029EF30E0FC013183208398
:100960008FE690E022E0FC012083DF91CF91089593
:100970001F920F9200905F000F9211248F939F930C
:10098000AF93BF93CF93DF931F921F92CDB7DEB784
:100990008091220390912303A0912403B091250319
:1009A0000196A11DB11D8093220390932303A09370
:1009B0002403B093250380912603909127039A8303
:1009C000898389819A81892B59F089819A8101973C
:1009D0009A83898389819A81909327038093260340
:1009E00080912803909129039A83898389819A8130
:1009F000892B59F089819A8101979A83898389810A
:100A00009A81909329038093280380912A039091DF
:100A10002B039A83898389819A81892B59F0898153
:100A20009A8101979A83898389819A8190932B0374
:100A300080932A030F900F90DF91CF91BF91AF91D8
:100A40009F918F910F9000925F000F901F901895CB
:100A50001F920F9200905F000F92112400905B0094
:100A60000F922F933F938F939F93EF93FF93CF9387
:100A7000DF93CDB7DEB787E490E027E430E0F901FB
:100A80002081205CFC01208380912E03882309F0C3
:100A900066C08091400380932F0380912F038823A9
:100AA00049F08BE091E02BE031E0F90120812061F9
:100AB000FC012083809141038093300380913003B7
:100AC000882349F08BE091E02BE031E0F9012081AF
:100AD0002062FC0120838091420380933103809146
:100AE0003103882349F08EE290E02EE230E0F901F4
:100AF00020812061FC012083809143038093320395
:100B000080913203882349F08EE290E02EE230E0BB
:100B1000F90120812860FC012083809144038093A7
:100B2000330380913303882349F084E390E024E386
:100B300030E0F90120812062FC012083809145038F
:100B40008093340380913403882349F08BE091E053
:100B50002BE031E0F90120812860FC0120838091A5
:100B60003503882311F580916506809336038091C3
:100B70003603882349F085E091E025E031E0F90172
:100B800020812068FC0120838091670680933703D1
:100B900080913703882349F085E290E025E230E038
:100BA000F90120812068FC01208390912F0380911E
:100BB0002E03981769F480912F038F3F49F08BE043
:100BC00091E02BE031E0F90120812F7EFC012083B0
:100BD0009091360380913503981769F4809136031C
:100BE0008F3F49F085E091E025E031E0F901208177
:100BF0002F77FC0120839091300380912E0398176A
:100C000069F4809130038F3F49F08BE091E02BE055
:100C100031E0F90120812F7DFC0120839091370381
:100C200080913503981769F4809137038F3F49F01D
:100C300085E290E025E230E0F90120812F77FC0188
:100C400020839091310380912E03981769F480914D
:100C500031038F3F49F08EE290E02EE230E0F9015F
:100C600020812F7EFC0120839091320380912E03FE
:100C7000981769F4809132038F3F49F08EE290E03B
:100C80002EE230E0F9012081277FFC012083909142
:100C9000330380912E03981769F4809133038F3FBB
:100CA00049F084E390E024E330E0F90120812F7DD6
:100CB000FC0120839091340380912E03981769F4EE
:100CC000809134038F3F49F08BE091E02BE031E0DD
:100CD000F9012081277FFC012083809135038F5FFC
:100CE0008093350380912E038F5F80932E03DF91D5
:100CF000CF91FF91EF919F918F913F912F910F9005
:100D000000925B000F9000925F000F901F9018956B
:100D10001F920F9200905F000F92112400905B00D1
:100D20000F922F933F934F935F938F939F93EF93E4
:100D3000FF93CF93DF931F921F92CDB7DEB788E763
:100D400090E0FC012081318180912D03882F90E07B
:100D500040912D03442F50E0440F551F445A5C4FDF
:100D6000FA0140815181240F351F880F991F845A41
:100D70009C4FFC013183208380912D03882F90E0CC
:100D80009C01295B3C4FF901208141E0420F9C010D
:100D9000295B3C4FF9014083895B9C4FFC018081BA
:100DA000803208F472C080912D03882F90E020914A
:100DB0002D03222F30E0220F331F245A3C4FF9011C
:100DC000208131813695279536952795369527953B
:100DD000880F991F825B9C4FFC0131832083809197
:100DE0002D03882F90E0880F991F845A9C4FFC0197
:100DF0001182108280912D03882F90E0895B9C4F97
:100E0000FC01108280912D038F5F80932D038091D0
:100E10002D03873010F010922D0380912D03282F81
:100E200030E042E4429FC001439F900D1124875659
:100E30009B4FFC01808189838981882F90E0887095
:100E40009927892B51F08BE790E02BE730E0F901EF
:100E500020812860FC01208309C08BE790E02BE70C
:100E600030E0F9012081277FFC0120838CE790E0AE
:100E7000FC018081982F907E89818770892B8A83DD
:100E80008CE790E02A81FC0120838AE790E02AE742
:100E900030E0F90120812064FC0120830F900F9045
:100EA000DF91CF91FF91EF919F918F915F914F9142
:100EB0003F912F910F9000925B000F9000925F0086
:100EC0000F901F901895CF93DF93CDB7DEB72C9777
:100ED0000FB6F894DEBF0FBECDBF83ED9DE121D0EC
:100EE0003ADC0E94A81E0E94ED2C88EE93E09093BD
:100EF0002B0380932A030E94371E81E494E024D0C0
:100F00000E94A22880912A0390912B03892B41F4FF
:100F10000E94E92F88EE93E090932B0380932A039D
:100F2000EACFCF93DF931F921F92CDB7DEB79A839C
:100F3000898389819A8190933903809338030F9034
:100F40000F90DF91CF910895CF93DF931F921F925F
:100F5000CDB7DEB79A83898380916B038823B1F084
:100F60008091380390913903892B61F089819A81AE
:100F700022D1209138033091390389819A81F90176
:100F8000199504C0809100048093FF030F900F9087
:100F9000DF91CF910895CF93DF931F921F92CDB72A
:100FA000DEB78A8319828A81803338F08A818A3356
:100FB00020F48A818053898309C08A81813430F08A
:100FC0008A81873418F48A818753898389810F90B5
:100FD0000F90DF91CF910895CF93DF931F92CDB7FC
:100FE000DEB7898389818A3020F48981805D898395
:100FF00009C089818A3030F08981803118F4898173
:10100000895C898389810F90DF91CF910895CF9377
:10101000DF93CDB7DEB72A970FB6F894DEBF0FBEC9
:10102000CDBF6B837C838D839E8380E492E4AFE0AD
:10103000B0E02B813C814D815E81BC01CD010E94DD
:10104000A538DA01C90101979A83898385ED90E07B
:1010500029813A81232F3327FC01208384ED90E0FE
:101060002981FC01208381ED90E021ED30E0F90140
:1010700020812869FC01208382ED90E026E0FC01BC
:1010800020832A960FB6F894DEBF0FBECDBFDF9146
:10109000CF910895CF93DF931F921F92CDB7DEB704
:1010A0008A8380916A038F5F8F77898300008091A4
:1010B0007E0399819817D9F38981882F90E0815810
:1010C0009C4F2A81FC012083898180936A0381EDF2
:1010D00090E021ED30E0F90120812062FC012083C5
:1010E0000F900F90DF91CF9108951F920F92009073
:1010F0005F000F92112400905B000F922F933F939B
:101100008F939F93EF93FF93CF93DF93CDB7DEB78A
:1011100090916A0380917E03981799F080917E03E5
:101120008F5F8F7780937E0386ED90E020917E0322
:10113000222F30E021583C4FF9012081FC0120830F
:1011400009C081ED90E021ED30E0F90120812F7D93
:10115000FC012083DF91CF91FF91EF919F918F91BF
:101160003F912F910F9000925B000F9000925F00D3
:101170000F901F901895CF93DF93CDB7DEB7909166
:10118000FF0380910004981719F48FEF9FEF10C0B0
:10119000809100048F5F8F7380930004809100041E
:1011A000882F90E08F5F9B4FFC018081882F90E01B
:1011B000DF91CF910895FF920F931F93CF93DF9309
:1011C000CDB7DEB728970FB6F894DEBF0FBECDBF00
:1011D00098878F838F8198859D838C8319821A824B
:1011E0001B828F819885019698878F8380916B03EE
:1011F0008823D1F12AC08E818D3009F42BC08981DA
:101200008823E9F08A818823B9F08B818F5F8B83F3
:101210000F811885C801019698878F838A81BBDE6C
:10122000F82EFF0CFF0CFF0CFF0C8E81B4DE8F0D2F
:10123000F80180831A8209C08E818A8306C08E815C
:101240008A3319F481E089831A8295DF8E838E8137
:10125000882389F68C819D812B81FC0120838091DC
:101260006B03815080936B038C819D8128960FB610
:10127000F894DEBF0FBECDBFDF91CF911F910F91CC
:10128000FF9008951F920F9200905F000F9211241B
:1012900000905B000F920F931F938F939F93EF9398
:1012A000FF93CF93DF93CDB7DEB786ED90E0FC01DF
:1012B00000818091FF038F5F182F1F7380910004BE
:1012C000181729F4809100048093FF031AC0802F1F
:1012D00090E08A309105A1F08D30910519F0892BAD
:1012E00079F005C080916B038F5F80936B0310933F
:1012F000FF03812F90E08F5F9B4FFC01008301C0B3
:101300000000DF91CF91FF91EF919F918F911F91FD
:101310000F910F9000925B000F9000925F000F9072
:101320001F901895CF93DF9300D01F921F92CDB7D7
:10133000DEB79C838B836D83198281E08A830FC023
:101340008A81882F90E02B813C81820F931FFC01C2
:1013500080819981890F89838A818F5F8A839A81AD
:101360008D81981768F3898181950F900F900F9068
:101370000F900F90DF91CF910895CF93DF9300D01E
:1013800000D0CDB7DEB79E838D838D819E819C0179
:1013900040E050E08091220390912303A091240328
:1013A000B0912503820F931FA41FB51F89839A83D1
:1013B000AB83BC83000029813A814B815C818091A1
:1013C000220390912303A0912403B0912503821757
:1013D0009307A407B50778F326960FB6F894DEBFF7
:1013E0000FBECDBFDF91CF910895CF93DF9300D093
:1013F000CDB7DEB78B838B8182958F70898399817E
:1014000080EF989F902D11248B81890F8A83898189
:10141000E3DD89838A81E0DD8A8389813BDE8A81FD
:1014200039DE0F900F900F90DF91CF9108951F93A9
:10143000CF93DF9300D0CDB7DEB79B838A838AE357
:1014400029DE19820FC08981882F90E001962A81B8
:101450003B81820F931FFC011081812FC6DF8981A0
:101460008F5F89838A819B81FC01908189818917A3
:1014700050F38DE00FDE8AE00DDE82E090E07DDF4C
:101480000F900F900F90DF91CF911F910895CF9300
:10149000DF9300D000D0CDB7DEB79E838D838D81E2
:1014A0009E81FC018081882F90E002972D813E81F2
:1014B000820F931FFC018081882F90E0382F222714
:1014C0008D819E81FC018081882F90E001974D8164
:1014D0005E81840F951FFC018081882F90E0820F30
:1014E000931F9A8389838D819E810396FC0180815D
:1014F000882F90E0382F22278D819E810496FC0151
:101500008081882F90E0820F931F9C838B838B8137
:101510009C818131F4E09F0709F4CDC4823124E03D
:10152000920708F0C5C0893FE3E09E0709F4ADC209
:101530008A3FF3E09F0708F05FC08E3E23E09207EA
:1015400009F431C28F3EE3E09E0750F5893EF3E097
:101550009F0709F4C6C18A3E23E0920768F48436E7
:10156000910509F497C1883EE3E09E0709F4B5C1EF
:10157000019709F45FC161C68B3EF3E09F0709F450
:10158000D2C18B3E23E0920708F4AFC18C3EE3E06A
:101590009E0709F4E6C18D3E934009F400C24DC692
:1015A000843F23E0920709F40EC2853FE3E09E07E3
:1015B00078F4823FF3E09F0709F4FDC1833F23E005
:1015C000920708F0FCC18F3E934009F4F0C135C684
:1015D000863FF3E09F0709F432C2863F23E092077B
:1015E00008F40FC2873FE3E09E0709F446C2883F34
:1015F000934009F446C221C6863024E0920709F4DC
:10160000E8C38730E4E09E0760F58F3FF3E09F0773
:1016100009F4CEC2811524E0920778F48D3FE3E00F
:101620009E0709F443C28E3FF3E09F0708F04BC2C8
:101630008C3F934009F42DC200C68130E4E09E0740
:1016400009F4A0C38130F4E09F0708F426C3823078
:1016500024E0920709F4A3C38330944009F4ACC397
:10166000ECC58A30F4E09F0709F4F7C38B3024E01F
:10167000920750F48830E4E09E0709F4B2C3893041
:10168000944008F0CCC3A9C38C3024E0920709F43D
:1016900006C48C30E4E09E0708F4FDC38D30F4E00E
:1016A0009F0709F400C48031944009F400C4C5C503
:1016B0008732E4E09E0709F4FCC48832F4E09F0717
:1016C00008F05BC08C3124E0920709F466C48D31C8
:1016D000E4E09E0738F58531F4E09F0709F449C43A
:1016E000863124E0920750F48331E4E09E0709F448
:1016F00004C48431944008F01EC4E1C3873124E05F
:10170000920709F43EC48731E4E09E0708F435C42B
:101710008A31F4E09F0709F438C48B31944009F40E
:1017200038C48BC58032E4E09E0709F494C481324A
:10173000F4E09F0750F48E3124E0920709F469C465
:101740008F31944008F083C446C48432F4E09F078C
:1017500009F489C4853224E0920728F48132944048
:1017600009F47DC46AC58532F4E09F0709F47FC49B
:101770008632944009F47FC460C58233E4E09E075A
:1017800009F423C58333F4E09F0758F58B3224E036
:10179000920709F4D2C48C32E4E09E0750F48932F7
:1017A000F4E09F0709F4C1C48A32944008F0C1C430
:1017B0009EC48F32E4E09E0709F4C7C48033F4E08E
:1017C0009F0728F48E32944009F4BBC436C5803399
:1017D000E4E09E0709F4BDC48133944009F4D7C402
:1017E0002CC580322EE4920741F18132EEE49E074F
:1017F00078F48433F4E09F0709F409C5843324E0C6
:10180000920708F400C58533944009F404C515C552
:101810008232FEE49F0709F182322EE49207A8F09B
:101820008438EEE49E0709F4FAC48E389E4409F425
:10183000FDC403C50E94B52800C589819A81BC01F9
:1018400086E994E00E94FA28F8C489819A81BC0153
:1018500088ED94E00E94FA28F0C489819A81BC0145
:101860008AE195E00E94FA2889819A81BC018CE581
:1018700095E00E94FA2889819A81BC018EE995E061
:101880000E94FA2889819A81BC0180EE95E00E942D
:10189000FA28D3C489819A8180789927892B59F0B5
:1018A00080912C038F7380932C0380912C0380688C
:1018B00080932C0311C089819A8180749927892B88
:1018C00059F080912C038F7380932C0380912C030B
:1018D000806480932C03B1C4B0C489818093980440
:1018E000ACC489818093AA04A8C489819A81CC015F
:1018F000A0E0B0E0BC01CD010E946A37DC01CB0161
:1019000020E030E048EC52E4BC01CD010E94D13629
:10191000DC01CB018093B1049093B204A093B30493
:10192000B093B4048AC489819A81CC01A0E0B0E06C
:10193000BC01CD010E946A37DC01CB0120E030E020
:1019400048EC52E4BC01CD010E94D136DC01CB0150
:101950008093B5049093B604A093B704B093B804F1
:101960006CC489819A81CC01A0E0B0E0BC01CD01BA
:101970000E946A37DC01CB0120E030E048EC52E401
:10198000BC01CD010E94D136DC01CB018093B904AA
:101990009093BA04A093BB04B093BC044EC4898155
:1019A0008093AF044AC489818093B00446C489817E
:1019B0008093BD0442C489818093DA043EC4898146
:1019C0008093EC043AC489819A81CC01A0E0B0E014
:1019D000BC01CD010E946A37DC01CB0120E030E080
:1019E00048EC52E4BC01CD010E94D136DC01CB01B0
:1019F0008093F3049093F404A093F504B093F60459
:101A00001CC489819A81CC01A0E0B0E0BC01CD0169
:101A10000E946A37DC01CB0120E030E048EC52E460
:101A2000BC01CD010E94D136DC01CB018093F704CB
:101A30009093F804A093F904B093FA04FEC389814B
:101A40009A81CC01A0E0B0E0BC01CD010E946A37D0
:101A5000DC01CB0120E030E048EC52E4BC01CD01D8
:101A60000E94D136DC01CB018093FB049093FC04EF
:101A7000A093FD04B093FE04E0C389818093F10438
:101A8000DCC389818093F204D8C389818093FF04E9
:101A9000D4C3898180931C05898180935E058981E7
:101AA0008093A00589818093E205C7C389818093D3
:101AB0002E0589818093700589818093B205898183
:101AC0008093F405BAC389819A81CC01A0E0B0E08B
:101AD000BC01CD010E946A37DC01CB0120E030E07F
:101AE00048EC52E4BC01CD010E94D136DC01CB01AF
:101AF0008093390590933A05A0933B05B0933C053C
:101B000089819A81CC01A0E0B0E0BC01CD010E94A6
:101B10006A37DC01CB0120E030E048EC52E4BC0144
:101B2000CD010E94D136DC01CB0180937B059093DF
:101B30007C05A0937D05B0937E0589819A81CC01B7
:101B4000A0E0B0E0BC01CD010E946A37DC01CB010E
:101B500020E030E048EC52E4BC01CD010E94D136D7
:101B6000DC01CB018093BD059093BE05A093BF051A
:101B7000B093C00589819A81CC01A0E0B0E0BC019E
:101B8000CD010E946A37DC01CB0120E030E048EC57
:101B900052E4BC01CD010E94D136DC01CB0180931F
:101BA000FF0590930006A0930106B093020645C37B
:101BB00089819A81CC01A0E0B0E0BC01CD010E94F6
:101BC0006A37DC01CB0120E030E048EC52E4BC0194
:101BD000CD010E94D136DC01CB0180933905909371
:101BE0003A05A0933B05B0933C0589819A81CC01CD
:101BF000A0E0B0E0BC01CD010E946A37DC01CB015E
:101C000020E030E048EC52E4BC01CD010E94D13626
:101C1000DC01CB0180937B0590937C05A0937D052F
:101C2000B0937E0589819A81CC01A0E0B0E0BC012F
:101C3000CD010E946A37DC01CB0120E030E048ECA6
:101C400052E4BC01CD010E94D136DC01CB0180936E
:101C5000BD059093BE05A093BF05B093C0058981D3
:101C60009A81CC01A0E0B0E0BC01CD010E946A37AE
:101C7000DC01CB0120E030E048EC52E4BC01CD01B6
:101C80000E94D136DC01CB018093FF0590930006C2
:101C9000A0930106B0930206D0C289819A81CC013B
:101CA000A0E0B0E0BC01CD010E946A37DC01CB01AD
:101CB00020E030E048EC52E4BC01CD010E94D13676
:101CC000DC01CB0180933D0590933E05A0933F0539
:101CD000B093400589819A81CC01A0E0B0E0BC01BD
:101CE000CD010E946A37DC01CB0120E030E048ECF6
:101CF00052E4BC01CD010E94D136DC01CB018093BE
:101D00007F0590938005A0938105B093820589811A
:101D10009A81CC01A0E0B0E0BC01CD010E946A37FD
:101D2000DC01CB0120E030E048EC52E4BC01CD0105
:101D30000E94D136DC01CB018093C1059093C2058E
:101D4000A093C305B093C40589819A81CC01A0E01A
:101D5000B0E0BC01CD010E946A37DC01CB0120E07C
:101D600030E048EC52E4BC01CD010E94D136DC01E8
:101D7000CB018093030690930406A0930506B093CD
:101D800006065BC28981809333058981809375053E
:101D900089818093B70589818093F9054EC2898135
:101DA0008093340589818093760589818093B80575
:101DB00089818093FA0541C2898180934105898197
:101DC0008093830589818093C50589818093070667
:101DD00034C289818093240630C28981809336067B
:101DE0002CC289819A81CC01A0E0B0E0BC01CD0178
:101DF0000E946A37DC01CB0120E030E048EC52E47D
:101E0000BC01CD010E94D136DC01CB0180933D069F
:101E100090933E06A0933F06B09340060EC2898180
:101E20009A81CC01A0E0B0E0BC01CD010E946A37EC
:101E3000DC01CB0120E030E048EC52E4BC01CD01F4
:101E40000E94D136DC01CB0180934106909342067B
:101E5000A0934306B0934406F0C189819A81CC01D6
:101E6000A0E0B0E0BC01CD010E946A37DC01CB01EB
:101E700020E030E048EC52E4BC01CD010E94D136B4
:101E8000DC01CB018093450690934606A09347065C
:101E9000B0934806D2C1898180933B06CEC1898127
:101EA00080933C06CAC1898180934906C6C1898155
:101EB00080931C05C2C1898180932E05BEC1898192
:101EC0009A81CC01A0E0B0E0BC01CD010E946A374C
:101ED000DC01CB0120E030E048EC52E4BC01CD0154
:101EE0000E94D136DC01CB018093350590933605F5
:101EF000A0933705B0933805A0C189819A81CC01A0
:101F0000A0E0B0E0BC01CD010E946A37DC01CB014A
:101F100020E030E048EC52E4BC01CD010E94D13613
:101F2000DC01CB018093390590933A05A0933B05E2
:101F3000B0933C0582C189819A81CC01A0E0B0E0D8
:101F4000BC01CD010E946A37DC01CB0120E030E00A
:101F500048EC52E4BC01CD010E94D136DC01CB013A
:101F600080933D0590933E05A0933F05B0934005B7
:101F700064C189818093330560C189818093340570
:101F80005CC189818093410558C1898180935E0538
:101F900054C189818093700550C189819A81CC0197
:101FA000A0E0B0E0BC01CD010E946A37DC01CB01AA
:101FB00020E030E048EC52E4BC01CD010E94D13673
:101FC000DC01CB018093770590937805A093790588
:101FD000B0937A0532C189819A81CC01A0E0B0E04A
:101FE000BC01CD010E946A37DC01CB0120E030E06A
:101FF00048EC52E4BC01CD010E94D136DC01CB019A
:1020000080937B0590937C05A0937D05B0937E051E
:1020100014C189819A81CC01A0E0B0E0BC01CD015E
:102020000E946A37DC01CB0120E030E048EC52E44A
:10203000BC01CD010E94D136DC01CB0180937F052C
:1020400090938005A0938105B0938205F6C08981A5
:1020500080937505F2C0898180937605EEC08981F1
:1020600080938305EAC089818093A005E6C08981B9
:102070008093B205E2C089819A81CC01A0E0B0E0F2
:10208000BC01CD010E946A37DC01CB0120E030E0C9
:1020900048EC52E4BC01CD010E94D136DC01CB01F9
:1020A0008093B9059093BA05A093BB05B093BC0586
:1020B000C4C089819A81CC01A0E0B0E0BC01CD010F
:1020C0000E946A37DC01CB0120E030E048EC52E4AA
:1020D000BC01CD010E94D136DC01CB018093BD054E
:1020E0009093BE05A093BF05B093C005A6C089819B
:1020F0009A81CC01A0E0B0E0BC01CD010E946A371A
:10210000DC01CB0120E030E048EC52E4BC01CD0121
:102110000E94D136DC01CB018093C1059093C205AA
:10212000A093C305B093C40588C089818093B70587
:1021300084C089818093B80580C089818093C5055A
:102140007CC089818093E20578C089818093F40501
:1021500074C089819A81CC01A0E0B0E0BC01CD01BE
:102160000E946A37DC01CB0120E030E048EC52E409
:10217000BC01CD010E94D136DC01CB018093FB056F
:102180009093FC05A093FD05B093FE0556C0898190
:102190009A81CC01A0E0B0E0BC01CD010E946A3779
:1021A000DC01CB0120E030E048EC52E4BC01CD0181
:1021B0000E94D136DC01CB018093FF05909300068D
:1021C000A0930106B093020638C089819A81CC01A0
:1021D000A0E0B0E0BC01CD010E946A37DC01CB0178
:1021E00020E030E048EC52E4BC01CD010E94D13641
:1021F000DC01CB018093030690930406A0930506AF
:10220000B09306061AC089818093F90516C08981AA
:102210008093FA0512C08981809307060EC08981D8
:102220009A819093FE068093FD0607C089819A816A
:1022300090930D0780930C0700008D819E81F7D845
:1022400081E026960FB6F894DEBF0FBECDBFDF91BA
:10225000CF9108950F931F93CF93DF93CDB7DEB740
:1022600065970FB6F894DEBF0FBECDBF9D8B8C8BEC
:102270008C899D890596FC018081882F90E0382FFC
:1022800022278C899D890696FC018081882F90E009
:10229000820F931F9F838E838C899D890396FC01F7
:1022A0008081882F90E0382F22278C899D89049681
:1022B000FC018081882F90E0820F931F9987888787
:1022C0001B861A8680E090E0A8E4B2E48C879D87A4
:1022D000AE87BF87198A188A19821B821A821B8AC5
:1022E0001A8A1C821092EE061092EF061092F006E7
:1022F0001092F1061092F2061092F3061092F40674
:102300001D82CEC08D81282F30E088859985820F6F
:10231000931F853FF1E09F07A1F1863F21E09207DF
:1023200009F47CC0843F914009F0B4C08C81882FAF
:1023300090E008969C018C899D89820F931FFC0177
:102340008081882F90E0982F88279B878A878C81AF
:102350008F5F8C838C81882F90E008969C018C89FC
:102360009D89820F931FFC018081882F90E02A8530
:102370003B85822B932B9B878A878A858093EE06E9
:1023800089C08C81882F90E008969C018C899D895A
:10239000820F931FFC018081882F90E0982F88275F
:1023A0009B8B8A8B8C818F5F8C838C81882F90E0B4
:1023B00008969C018C899D89820F931FFC01808166
:1023C000882F90E02A893B89822B932B9B8B8A8BC9
:1023D0008A899B89CC01A0E0B0E0BC01CD010E94BC
:1023E0006A37DC01CB0120E030E048EC52E4BC016C
:1023F000CD010E94D136DC01CB018C879D87AE8751
:10240000BF878C859D85AE85BF858093EF069093B1
:10241000F006A093F106B093F2063CC08C81882FA1
:1024200090E008969C018C899D89820F931FFC0186
:102430008081882F90E0982F88279B838A838C81C6
:102440008F5F8C838C81882F90E008969C018C890B
:102450009D89820F931FFC018081882F90E02A8143
:102460003B81822B932B9B838A838A819B81992337
:102470003CF481E089838A819B819F779B838A8357
:102480008A818093F30689818093F40681E08093AA
:102490003A0300008C818F5F8C838D818F5F8D83E9
:1024A0008D81282F30E08E819F812817390708F40D
:1024B00029CF8C899D8927E0FC0120838C899D8907
:1024C000FC018081882F90E02C893D898901080FCB
:1024D000191F8C899D89FC0120818C899D89622F1F
:1024E0000E949209F80180838C899D890E94170AB5
:1024F00081E065960FB6F894DEBF0FBECDBFDF91C9
:10250000CF911F910F910895CF93DF93CDB7DEB791
:1025100029970FB6F894DEBF0FBECDBF9D838C8385
:102520007F836E83598748878C819D81892F992766
:1025300089838E819F81FC0180818A838A818F5F5C
:102540008A838A81882F90E0039628853985820FB7
:10255000931F2981FC0120838C818B838A818F5F6B
:102560008A838A81882F90E0039628853985820F97
:10257000931F2B81FC0120838E819F812A81FC0186
:10258000208329960FB6F894DEBF0FBECDBFDF9132
:10259000CF910895EF92FF920F931F93CF93DF9304
:1025A000CDB7DEB72E970FB6F894DEBF0FBECDBF06
:1025B0009E878D878D859E85FC018081882F90E088
:1025C00001972D853E85820F931FFC018081882F06
:1025D00090E09B838A838D859E850396FC01808194
:1025E000882F90E0382F22278D859E850496FC0148
:1025F0008081882F90E0820F931F9D838C831C869F
:102600001F821E82188619861A861B8619820C94D0
:10261000951D8981282F30E08C819D81820F931F29
:102620008A31F4E09F0709F48DC78B3124E09207CB
:1026300008F001C18F3FE3E09E0709F4A5C58115AD
:10264000F4E09F0708F07EC0823F23E0920709F480
:1026500081C4833FE3E09E07C0F58B3EF3E09F0714
:1026600009F4F2C38C3E23E09207D0F4883EE3E005
:102670009E0709F49FC3893EF3E09F0730F4883535
:10268000924009F472C30C94921D893EE3E09E07C8
:1026900009F49CC38A3E934009F4A5C30C94921D8F
:1026A0008D3E23E0920709F431C48D3EE3E09E079E
:1026B00008F4FBC38E3EF3E09F0709F433C48F3E5A
:1026C000934009F43BC40C94921D873FE3E09E07BE
:1026D00009F4ECC4883FF3E09F07A8F4843F23E0AB
:1026E000920709F450C4843FE3E09E0708F43EC417
:1026F000853FF3E09F0709F477C4863F934009F4D0
:10270000A4C40C94921D8C3FE3E09E0709F4F2C42C
:102710008D3FF3E09F0758F4883F23E0920709F4C8
:10272000D1C4893F934009F4D9C40C94921D8D3FC4
:10273000F3E09F0709F4EAC48E3F934009F4F3C421
:102740000C94921D8B30E4E09E0709F404C68C3093
:10275000F4E09F0798F5863024E0920709F49AC5C3
:102760008730E4E09E07A8F48130F4E09F0709F485
:102770006DC5813024E0920708F437C58230E4E06B
:102780009E0709F46FC58330944009F477C50C9413
:10279000921D883024E0920709F495C58830E4E062
:1027A0009E0708F483C58930F4E09F0709F4A3C5A8
:1027B0008A30944009F4B7C50C94921D8231E4E04C
:1027C0009E0709F405C68331F4E09F07A8F48D3015
:1027D00024E0920709F4D7C58D30E4E09E0708F4A1
:1027E000C6C58031F4E09F0709F4D9C58131944012
:1027F00009F4E1C50C94921D8531E4E09E0709F4CB
:102800007AC68631F4E09F0758F4833124E09207BA
:1028100009F40FC68431944009F43CC60C94921D0F
:102820008631F4E09F0709F473C68731944009F4B8
:102830007CC60C94921D8333E4E09E0711F40C9443
:10284000031D8433F4E09F0708F07BC0863224E048
:10285000920709F46AC78732E4E09E0798F58F3142
:10286000F4E09F0709F41FC7803224E09207A8F420
:102870008C31E4E09E0709F480C68C31F4E09F07B8
:1028800008F46DC68D3124E0920709F4A8C68E3194
:10289000944009F4D6C60C94921D8132F4E09F074F
:1028A00009F41BC7813224E0920708F409C7843277
:1028B000E4E09E0709F41EC78532944009F427C757
:1028C0000C94921D8B3224E0920709F4DEC78C32FF
:1028D000E4E09E07A8F48832F4E09F0709F489C772
:1028E000883224E0920708F452C78932E4E09E0758
:1028F00009F4B1C78A32944009F4BAC70C94921D06
:10290000803324E0920709F4E8C78133E4E09E07AE
:1029100058F48E32F4E09F0709F4C4C78F32944014
:1029200009F4CDC70C94921D8133E4E09E0711F4A5
:102930000C949F1C8233944011F40C94D11C0C9481
:10294000921D8A342CE9920709F49BC18B34ECE97F
:102950009E0708F03FC08234FCE99F0709F4B6C027
:1029600083342CE99207B8F48533E4E09E0711F430
:102970000C941D1D8533F4E09F0710F40C94101D7A
:1029800080342CE9920709F46FC081349C4909F422
:102990007AC00C94921D8534FCE99F0709F4F0C0BD
:1029A00086342CE9920758F48334ECE99E0709F445
:1029B0009CC084349C4909F4BAC00C94921D86349E
:1029C0002CE9920709F4B4C188349C4909F43CC14C
:1029D0000C94921D863AFCE99F0711F40C94441D57
:1029E000873A2CE99207E0F48E34ECE99E0709F46B
:1029F00082C18F34FCE99F0730F48C349C4909F480
:102A00005DC10C94921D843AECE99E0711F40C947C
:102A10002A1D853A9C4911F40C94371D0C94921D83
:102A20008F3A2CE9920711F40C946B1D803BECE972
:102A30009E0768F4873AFCE99F0711F40C94511D36
:102A40008E3A9C4911F40C945E1D0C94921D803BAF
:102A5000ECE99E0711F40C94781D813B9C4911F41C
:102A60000C94851D0C94921D80919A0490919B0466
:102A7000FC012D853E85CE010C96A901BC01CF013C
:102A800043DD0C94921D80919E0490919F04A0912F
:102A9000A004B091A10420E030E048EC52E4BC0175
:102AA000CD010E942038DC01CB01BC01CD010E9488
:102AB0003E37DC01CB01FC012D853E85CE010C9615
:102AC000A901BC01CF0120DD0C94921D8091DC0492
:102AD0009091DD04FC012D853E85CE010C96A90167
:102AE000BC01CF0111DD0C94921D8091E004909106
:102AF000E104A091E204B091E30420E030E048EC6E
:102B000052E4BC01CD010E942038DC01CB01BC01A4
:102B1000CD010E943E37DC01CB01FC012D853E85B5
:102B2000CE010C96A901BC01CF01EEDCFBC72091C0
:102B30001E0530911F058091600590916105280F59
:102B4000391F8091A2059091A305280F391F80910C
:102B5000E4059091E505820F931F99230CF40396E9
:102B600095958795959587959F838E834D855E85F1
:102B70009E01245F3F4F8E819F81B901C5DCD2C782
:102B80008091220590912305A0912405B0912505FF
:102B90002091640530916505409166055091670567
:102BA000BC01CD010E946936DC01CB017C018D01A5
:102BB0008091A6059091A705A091A805B091A905BF
:102BC0009C01AD01C801B7010E946936DC01CB014F
:102BD0007C018D018091E8059091E905A091EA05BD
:102BE000B091EB059C01AD01C801B7010E946936A7
:102BF000DC01CB0120E030E040E850E4BC01CD0135
:102C00000E94D136DC01CB0120E030E048EC52E4F8
:102C1000BC01CD010E942038DC01CB018887998757
:102C2000AA87BB87688579858A859B850E943E3700
:102C3000DC01CB01FC012D853E85CE010C96A9015E
:102C4000BC01CF0161DC6EC7809122059091230504
:102C5000A0912405B0912505BC01CD010E943E370D
:102C6000DC01CB019C0144E6429FC001439F900DD3
:102C700011244D855E859E01245F3F4FB90144DCE0
:102C800051C78091640590916505A0916605B0914A
:102C90006705BC01CD010E943E37DC01CB019C01E0
:102CA00044E6429FC001439F900D11244D855E85EF
:102CB0009E01245F3F4FB90127DC34C78091A605F0
:102CC0009091A705A091A805B091A905BC01CD01DF
:102CD0000E943E37DC01CB019C0144E6429FC001CB
:102CE000439F900D11244D855E859E01245F3F4FCB
:102CF000B9010ADC17C78091E8059091E905A09118
:102D0000EA05B091EB05BC01CD010E943E37DC0124
:102D1000CB019C0144E6429FC001439F900D1124CA
:102D20004D855E859E01245F3F4FB901EDDBFAC6FC
:102D300080912A0690912B06A0912C06B0912D0629
:102D4000BC01CD010E943E37DC01CB019C0144E671
:102D5000429FC001439F900D11244D855E859E01C9
:102D6000245F3F4FB901D0DBDDC68C858F5F8C8738
:102D70008C85882F90E003962D853E85820F931FCA
:102D800020913B0330913C03232F3327FC01208308
:102D90008C858F5F8C878C85882F90E003962D859E
:102DA0003E85820F931F20913B0330913C03FC0131
:102DB0002083B8C680919804882F90E04D855E8569
:102DC0009E01245F3F4FB9019FDBACC68091AA04EE
:102DD000082E000C990B4D855E859E01245F3F4FA8
:102DE000B90192DB9FC68091B1049091B204A09189
:102DF000B304B091B404BC01CD010E943E37DC01A4
:102E0000CB01CC01A0E0B0E0BC01CD010E946A374B
:102E1000DC01CB0120E030E048EC52E4BC01CD0104
:102E20000E942038DC01CB01BC01CD010E943E375D
:102E3000DC01CB01FC012D853E85CE010C96A9015C
:102E4000BC01CF0161DB6EC68091B5049091B604E0
:102E5000A091B704B091B804BC01CD010E943E37E7
:102E6000DC01CB01CC01A0E0B0E0BC01CD010E94AF
:102E70006A37DC01CB0120E030E048EC52E4BC01D1
:102E8000CD010E942038DC01CB01BC01CD010E94A4
:102E90003E37DC01CB01FC012D853E85CE010C9631
:102EA000A901BC01CF0130DB3DC68091B9049091EE
:102EB000BA04A091BB04B091BC04BC01CD010E9436
:102EC0003E37DC01CB01CC01A0E0B0E0BC01CD017C
:102ED0000E946A37DC01CB0120E030E048EC52E48C
:102EE000BC01CD010E942038DC01CB01BC01CD0129
:102EF0000E943E37DC01CB01FC012D853E85CE01D1
:102F00000C96A901BC01CF01FFDA0CC68091AF0479
:102F1000882F90E04D855E859E01245F3F4FB9016B
:102F2000F3DA00C68091B004882F90E04D855E856D
:102F30009E01245F3F4FB901E7DAF4C58091BD04DB
:102F4000882F90E04D855E859E01245F3F4FB9013B
:102F5000DBDAE8C58091DA04882F90E04D855E8544
:102F60009E01245F3F4FB901CFDADCC58091EC04AC
:102F7000082E000C990B4D855E859E01245F3F4F06
:102F8000B901C2DACFC58091F3049091F404A09105
:102F9000F504B091F604BC01CD010E943E37DC017E
:102FA000CB01CC01A0E0B0E0BC01CD010E946A37AA
:102FB000DC01CB0120E030E048EC52E4BC01CD0163
:102FC0000E942038DC01CB01BC01CD010E943E37BC
:102FD000DC01CB01FC012D853E85CE010C96A901BB
:102FE000BC01CF0191DA9EC58091F7049091F8045D
:102FF000A091F904B091FA04BC01CD010E943E37C2
:10300000DC01CB01CC01A0E0B0E0BC01CD010E940D
:103010006A37DC01CB0120E030E048EC52E4BC012F
:10302000CD010E942038DC01CB01BC01CD010E9402
:103030003E37DC01CB01FC012D853E85CE010C968F
:10304000A901BC01CF0160DA6DC58091FB049091AC
:10305000FC04A091FD04B091FE04BC01CD010E94CE
:103060003E37DC01CB01CC01A0E0B0E0BC01CD01DA
:103070000E946A37DC01CB0120E030E048EC52E4EA
:10308000BC01CD010E942038DC01CB01BC01CD0187
:103090000E943E37DC01CB01FC012D853E85CE012F
:1030A0000C96A901BC01CF012FDA3CC58091F10437
:1030B000882F90E04D855E859E01245F3F4FB901CA
:1030C00023DA30C58091F204882F90E04D855E852B
:1030D0009E01245F3F4FB90117DA24C58091FF0498
:1030E000882F90E04D855E859E01245F3F4FB9019A
:1030F0000BDA18C580914105882F90E04D855E85DB
:103100009E01245F3F4FB901FFD90CC580912E0568
:10311000082E000C990B4D855E859E01245F3F4F64
:10312000B901F2D9FFC48091390590913A05A09177
:103130003B05B0913C05BC01CD010E943E37DC014E
:10314000CB01CC01A0E0B0E0BC01CD010E946A3708
:10315000DC01CB0120E030E048EC52E4BC01CD01C1
:103160000E942038DC01CB01BC01CD010E943E371A
:10317000DC01CB01FC012D853E85CE010C96A90119
:10318000BC01CF01C1D9CEC48091390590913A05D7
:10319000A0913B05B0913C05BC01CD010E943E379A
:1031A000DC01CB01CC01A0E0B0E0BC01CD010E946C
:1031B0006A37DC01CB0120E030E048EC52E4BC018E
:1031C000CD010E942038DC01CB01BC01CD010E9461
:1031D0003E37DC01CB01FC012D853E85CE010C96EE
:1031E000A901BC01CF0190D99DC480913D0590916A
:1031F0003E05A0913F05B0914005BC01CD010E9464
:103200003E37DC01CB01CC01A0E0B0E0BC01CD0138
:103210000E946A37DC01CB0120E030E048EC52E448
:10322000BC01CD010E942038DC01CB01BC01CD01E5
:103230000E943E37DC01CB01FC012D853E85CE018D
:103240000C96A901BC01CF015FD96CC480913305F4
:10325000882F90E04D855E859E01245F3F4FB90128
:1032600053D960C480913405882F90E04D855E85E8
:103270009E01245F3F4FB90147D954C48091410555
:10328000882F90E04D855E859E01245F3F4FB901F8
:103290003BD948C480912406882F90E04D855E85F7
:1032A0009E01245F3F4FB9012FD93CC4809136065F
:1032B000082E000C990B4D855E859E01245F3F4FC3
:1032C000B90122D92FC480913D0690913E06A0916C
:1032D0003F06B0914006BC01CD010E943E37DC01A3
:1032E000CB01FC012D853E85CE010C96A901BC01C8
:1032F000CF010AD917C48091410690914206A0914E
:103300004306B0914406BC01CD010E943E37DC016A
:10331000CB01FC012D853E85CE010C96A901BC0197
:10332000CF01F2D8FFC38091450690914606A09147
:103330004706B0914806BC01CD010E943E37DC0132
:10334000CB01FC012D853E85CE010C96A901BC0167
:10335000CF01DAD8E7C380913B06882F90E04D85F6
:103360005E859E01245F3F4FB901CED8DBC38091BB
:103370003C06882F90E04D855E859E01245F3F4F7F
:10338000B901C2D8CFC380914906882F90E04D85FE
:103390005E859E01245F3F4FB901B6D8C3C38091BB
:1033A0001C05882F90E04D855E859E01245F3F4F70
:1033B000B901AAD8B7C380912E05082E000C990B2D
:1033C0004D855E859E01245F3F4FB9019DD8AAC3FC
:1033D0008091350590913605A0913705B09138055B
:1033E000BC01CD010E943E37DC01CB01CC01A0E045
:1033F000B0E0BC01CD010E946A37DC01CB0120E0C6
:1034000030E048EC52E4BC01CD010E942038DC01E0
:10341000CB01BC01CD010E943E37DC01CB01FC0198
:103420002D853E85CE010C96A901BC01CF016CD83B
:1034300079C38091390590913A05A0913B05B091EF
:103440003C05BC01CD010E943E37DC01CB01CC0123
:10345000A0E0B0E0BC01CD010E946A37DC01CB01E5
:1034600020E030E048EC52E4BC01CD010E9420385D
:10347000DC01CB01BC01CD010E943E37DC01CB0158
:10348000FC012D853E85CE010C96A901BC01CF0122
:103490003BD848C380913D0590913E05A0913F05E2
:1034A000B0914005BC01CD010E943E37DC01CB014B
:1034B000CC01A0E0B0E0BC01CD010E946A37DC0184
:1034C000CB0120E030E048EC52E4BC01CD010E9489
:1034D0002038DC01CB01BC01CD010E943E37DC016C
:1034E000CB01FC012D853E85CE010C96A901BC01C6
:1034F000CF010AD817C380913305882F90E04D85FE
:103500005E859E01245F3F4FB9010E9484120AC369
:1035100080913405882F90E04D855E859E01245F63
:103520003F4FB9010E948412FDC280914105882F4E
:1035300090E04D855E859E01245F3F4FB9010E945A
:103540008412F0C280915E05882F90E04D855E85E3
:103550009E01245F3F4FB9010E948412E3C2809113
:103560007005082E000C990B4D855E859E01245F29
:103570003F4FB9010E948412D5C280917705909186
:103580007805A0917905B0917A05BC01CD010E9422
:103590003E37DC01CB01CC01A0E0B0E0BC01CD01A5
:1035A0000E946A37DC01CB0120E030E048EC52E4B5
:1035B000BC01CD010E942038DC01CB01BC01CD0152
:1035C0000E943E37DC01CB01FC012D853E85CE01FA
:1035D0000C96A901BC01CF010E948412A3C2809164
:1035E0007B0590917C05A0917D05B0917E05BC0185
:1035F000CD010E943E37DC01CB01CC01A0E0B0E060
:10360000BC01CD010E946A37DC01CB0120E030E033
:1036100048EC52E4BC01CD010E942038DC01CB0112
:10362000BC01CD010E943E37DC01CB01FC012D85A0
:103630003E85CE010C96A901BC01CF010E948412E7
:1036400071C280917F0590918005A0918105B09114
:103650008205BC01CD010E943E37DC01CB01CC01CB
:10366000A0E0B0E0BC01CD010E946A37DC01CB01D3
:1036700020E030E048EC52E4BC01CD010E9420384B
:10368000DC01CB01BC01CD010E943E37DC01CB0146
:10369000FC012D853E85CE010C96A901BC01CF0110
:1036A0000E9484123FC280917505882F90E04D855D
:1036B0005E859E01245F3F4FB9010E94841232C291
:1036C00080917605882F90E04D855E859E01245F70
:1036D0003F4FB9010E94841225C280918305882F33
:1036E00090E04D855E859E01245F3F4FB9010E94A9
:1036F000841218C28091A005882F90E04D855E85C8
:103700009E01245F3F4FB9010E9484120BC2809139
:10371000B205082E000C990B4D855E859E01245F35
:103720003F4FB9010E948412FDC18091B90590916B
:10373000BA05A091BB05B091BC05BC01CD010E94AA
:103740003E37DC01CB01CC01A0E0B0E0BC01CD01F3
:103750000E946A37DC01CB0120E030E048EC52E403
:10376000BC01CD010E942038DC01CB01BC01CD01A0
:103770000E943E37DC01CB01FC012D853E85CE0148
:103780000C96A901BC01CF010E948412CBC180918B
:10379000BD059091BE05A091BF05B091C005BC01CB
:1037A000CD010E943E37DC01CB01CC01A0E0B0E0AE
:1037B000BC01CD010E946A37DC01CB0120E030E082
:1037C00048EC52E4BC01CD010E942038DC01CB0161
:1037D000BC01CD010E943E37DC01CB01FC012D85EF
:1037E0003E85CE010C96A901BC01CF010E94841236
:1037F00099C18091C1059091C205A091C305B09176
:10380000C405BC01CD010E943E37DC01CB01CC01D7
:10381000A0E0B0E0BC01CD010E946A37DC01CB0121
:1038200020E030E048EC52E4BC01CD010E94203899
:10383000DC01CB01BC01CD010E943E37DC01CB0194
:10384000FC012D853E85CE010C96A901BC01CF015E
:103850000E94841267C18091B705882F90E04D8542
:103860005E859E01245F3F4FB9010E9484125AC1B8
:103870008091B805882F90E04D855E859E01245F7C
:103880003F4FB9010E9484124DC18091C505882F18
:1038900090E04D855E859E01245F3F4FB9010E94F7
:1038A000841240C18091E205882F90E04D855E85AD
:1038B0009E01245F3F4FB9010E94841233C1809161
:1038C000F405082E000C990B4D855E859E01245F42
:1038D0003F4FB9010E94841225C18091FB05909150
:1038E000FC05A091FD05B091FE05BC01CD010E9433
:1038F0003E37DC01CB01CC01A0E0B0E0BC01CD0142
:103900000E946A37DC01CB0120E030E048EC52E451
:10391000BC01CD010E942038DC01CB01BC01CD01EE
:103920000E943E37DC01CB01FC012D853E85CE0196
:103930000C96A901BC01CF010E948412F3C08091B2
:10394000FF0590910006A0910106B0910206BC010E
:10395000CD010E943E37DC01CB01CC01A0E0B0E0FC
:10396000BC01CD010E946A37DC01CB0120E030E0D0
:1039700048EC52E4BC01CD010E942038DC01CB01AF
:10398000BC01CD010E943E37DC01CB01FC012D853D
:103990003E85CE010C96A901BC01CF010E94841284
:1039A000C1C08091030690910406A0910506B091D4
:1039B0000606BC01CD010E943E37DC01CB01CC01E3
:1039C000A0E0B0E0BC01CD010E946A37DC01CB0170
:1039D00020E030E048EC52E4BC01CD010E942038E8
:1039E000DC01CB01BC01CD010E943E37DC01CB01E3
:1039F000FC012D853E85CE010C96A901BC01CF01AD
:103A00000E9484128FC08091F905882F90E04D8527
:103A10005E859E01245F3F4FB9010E94841282C0DF
:103A20008091FA05882F90E04D855E859E01245F88
:103A30003F4FB9010E94841275C080910706882FFC
:103A400090E04D855E859E01245F3F4FB9010E9445
:103A5000841268C08091F5069091F6064D855E85CA
:103A60009E01245F3F4FB9010E9484125BC0809188
:103A7000F7069091F8064D855E859E01245F3F4FC5
:103A8000B9010E9484124EC08091FB069091FC0601
:103A90004D855E859E01245F3F4FB9010E948412CF
:103AA00041C08091F9069091FA064D855E859E0190
:103AB000245F3F4FB9010E94841234C080910407F3
:103AC000909105074D855E859E01245F3F4FB901AA
:103AD0000E94841227C080910607909107074D85A8
:103AE0005E859E01245F3F4FB9010E9484121AC077
:103AF00080910A0790910B074D855E859E01245F9A
:103B00003F4FB9010E9484120DC080910807909127
:103B100009074D855E859E01245F3F4FB9010E94D4
:103B20008412000089818F5F89838981282F30E08A
:103B30008A819B812817390710F40C9409138C850E
:103B400024E0280F8D859E85FC0120838D859E8530
:103B500003962C85FC0120838C85882F90E00496A9
:103B60009C018D859E858C01020F131F8D859E857E
:103B7000FC0120818D859E85622F0E949209F801AB
:103B800080838D859E850E94170A81E02E960FB650
:103B9000F894DEBF0FBECDBFDF91CF911F910F9183
:103BA000FF90EF9008951F93CF93DF931F921F9282
:103BB000CDB7DEB79A83898389819A810196FC010A
:103BC0008081843641F089819A810196FC0180814F
:103BD000882309F046C089819A81FC018081882F61
:103BE00090E029813A81820F931FFC011081898125
:103BF0009A81FC01208189819A81622F0E94920919
:103C0000181779F589819A810296FC018081882FA5
:103C100090E0092E000CAA0BBB0B41E050E02FE016
:103C200030E0841B950B28173907D8F0FC01882752
:103C3000EE58FF4F8F4F0C94E33889819A810E9490
:103C4000CA120FC089819A810E94CA120AC0898152
:103C50009A810E94470A05C089819A810E942A118F
:103C600000000F900F90DF91CF911F910895CF9397
:103C7000DF93CDB7DEB7A8970FB6F894DEBF0FBEBF
:103C8000CDBF0E943128882341F00E945328882309
:103C900021F080918C04E6D7898381E08A8384E0D7
:103CA0008B8380E1E5E0F2E0DE01169601900D9253
:103CB0008A95E1F787E08C8382E188A721E834E0E8
:103CC0004FE854E06C8180E6FBD68D838D8188239C
:103CD00009F035C04A816FE874E081E894E0F9D7D3
:103CE0009E01285D3F4FCE014696A901BC018B8104
:103CF00069D78D838D81882311F521E834E04FE861
:103D000054E06C8181E6DCD68D838D81882309F0B7
:103D100016C021E834E04FE854E06C8181E6D0D64B
:103D20008D838D81882309F00AC09E01285D3F4F55
:103D3000CE014696A901BC018B8144D78D83A896FC
:103D40000FB6F894DEBF0FBECDBFDF91CF910895BF
:103D5000CF93DF931F92CDB7DEB70E946628C4D100
:103D600019820BC08981882F90E081579B4F2FEFDC
:103D7000FC01208389818F5F89838981863090F35C
:103D80000F90DF91CF910895CF93DF931F921F92F1
:103D9000CDB7DEB789836A8382E290E022E230E029
:103DA000F90120812D7FFC01208389818E770E947B
:103DB00088288A810E94882882E290E022E230E00E
:103DC000F90120812260FC0120830F900F90DF9188
:103DD000CF910895CF93DF9300D01F921F92CDB75C
:103DE000DEB78A836B835D834C8382E290E022E2BC
:103DF00030E0F90120812D7FFC0120838A818E77BC
:103E00000E94882819820EC08981882F90E02C8119
:103E10003D81820F931FFC0180810E948828898147
:103E20008F5F898399818B81981770F382E290E08C
:103E300022E230E0F90120812260FC0120830F9012
:103E40000F900F900F900F90DF91CF910895CF9327
:103E5000DF931F921F92CDB7DEB78A8382E290E094
:103E600022E230E0F90120812D7FFC0120838A814C
:103E70008E7780680E94882880E00E948828898345
:103E800082E290E022E230E0F90120812260FC0130
:103E9000208389810F900F90DF91CF9108950F9328
:103EA0001F93CF93DF93CDB7DEB72A970FB6F89461
:103EB000DEBF0FBECDBF8E836F83598748872A87A9
:103EC0008F81882309F479C08E818E7780688C83F6
:103ED000198282E290E022E230E0F90120812D7F18
:103EE000FC0120838F8181508F838C810E948828E0
:103EF00049C089818823B1F58A85882399F11A827E
:103F00008A858B8311C08B81282F30E081E090E07F
:103F100002C0880F991F2A95E2F7982F8A81892B72
:103F20008A838B818F5F8B838B81883060F38C8158
:103F30000E9488288D838981882F90E02885398583
:103F4000820F931FFC018081982F8A81809589239D
:103F50002D819A819223892B282F88859985FC01B0
:103F600020830DC08981882F90E0288539858901BB
:103F7000080F191F8C810E948828F801808389818D
:103F80008F5F898399818F81981708F4B2CF8981D7
:103F9000882F90E0288539858901080F191F80E056
:103FA0000E948828F801808382E290E022E230E0DB
:103FB000F90120812260FC0120832A960FB6F89433
:103FC000DEBF0FBECDBFDF91CF911F910F9108953E
:103FD000CF93DF9300D0CDB7DEB78A836B838A811E
:103FE00036DF898399818B81892B682F8A81CCDE8A
:103FF0000F900F900F90DF91CF910895CF93DF93A3
:1040000000D0CDB7DEB78A836B838A8120DF8983B6
:104010008B81982F909589818923682F8A81B4DEBE
:104020000F900F900F90DF91CF9108950F931F93F2
:10403000CF93DF93CDB7DEB728970FB6F894DEBFE6
:104040000FBECDBF9D838C836E8358874F8360E006
:1040500082E09ADE64E08AE097DE60E884E1B8DF1F
:104060008C819D81AC016E8182E1B4DE63E082E0EF
:104070008BDE88E893E19A8389838AE0E8DE8B838C
:104080008B81882F90E084709927892BB1F00000F4
:1040900060E082E079DE84E4DADE282F8F81988583
:1040A000FC0120838F8198858C010F5F1F4F82E474
:1040B000CEDEF801808380E00CC089819A8101976F
:1040C0009A83898389819A81892B11F483E001C0C5
:1040D000D4CF28960FB6F894DEBF0FBECDBFDF91C8
:1040E000CF911F910F910895CF93DF93CDB7DEB796
:1040F00082E290E022E230E0F90120812260FC01BE
:10410000208381E290E021E230E0F901208121600A
:10411000FC01208382E290E022E230E0F90120817C
:104120002160FC01208316D060E884E52DDE69EA79
:1041300086E52ADE63E088E527DE68EE8AE524DE90
:1041400060E48AE221DE6DE382E21EDE94D0DF913C
:10415000CF910895CF93DF93CDB7DEB72E970FB6EB
:10416000F894DEBF0FBECDBF6FE082E00DDE80E0D1
:1041700090E0A8E4B2E489839A83AB83BC8320E017
:1041800030E04AE755E469817A818B819C810E9405
:104190002038DC01CB018D839E83AF83B88720E07C
:1041A00030E040E85FE36D817E818F8198850E94D9
:1041B000CD3688232CF481E090E09A8789873FC030
:1041C00020E03FEF4FE757E46D817E818F81988536
:1041D0000E941C3818164CF520E030E040E251E413
:1041E00069817A818B819C810E942038DC01CB011E
:1041F000BC01CD010E943E37DC01CB019A87898743
:104200000FC080E991E09C878B878B859C85019707
:10421000F1F79C878B8789859A8501979A8789878B
:1042200089859A85892B69F714C06D817E818F817C
:1042300098850E943E37DC01CB019A878987898562
:104240009A859E878D878D859E850197F1F79E873C
:104250008D87000082E0FBDD882F90E08071992738
:10426000892BC1F72E960FB6F894DEBF0FBECDBFD7
:10427000DF91CF910895CF93DF931F92CDB7DEB733
:1042800088E2E5DD89838981882F90E08370992712
:10429000039729F089818360682F88E275DD0F908C
:1042A000DF91CF9108958F92AF92CF92DF92EF92EC
:1042B000FF920F931F93CF93DF93CDB7DEB72C9769
:1042C0000FB6F894DEBF0FBECDBF9B838A836C838D
:1042D0005E834D8338872F831A870987EB86CC86C8
:1042E00080E3898369857A854F8158852D813E8158
:1042F0008A819B818C84AB846B017A0189012C813A
:10430000AC0169818CE011D02C960FB6F894DEBF19
:104310000FBECDBFDF91CF911F910F91FF90EF9016
:10432000DF90CF90AF908F9008958F92AF92CF9201
:10433000DF92EF92FF920F931F93CF93DF93CDB74E
:10434000DEB767970FB6F894DEBF0FBECDBF8B8781
:104350006C875E874D872F87198B088BFB8AEA8ACB
:10436000DD8ACC8AAE8A8F8A8C899D89892B29F037
:104370008C899D89FC01808101C080E08C838E89BD
:10438000982F9295907F8C81890F8D8360E082E0D9
:10439000FBDC6FE788E0F8DC60E884E119DE8D85FE
:1043A0009E85AC016F8582E115DD6D818AE1ECDCD3
:1043B0006B8582E0E9DC8B858C3019F460E88AE15A
:1043C00007DE80ED97E09B838A8388E040DD8E8363
:1043D0009E818C858923882361F000008CE037DD85
:1043E0008F838F81882F90E083719927892BC1F06B
:1043F00015C08E81882F90E081709927892B11F04C
:1044000083E09EC08A819B8101979B838A838A81F6
:104410009B81892B11F483E093C0D7CF81E090C0BA
:1044200088899989892B49F18A899B89892B29F166
:1044300084E10DDD8E838A899B89FC0190818E81C8
:10444000981710F484E07CC08A899B892E81FC0136
:104450002083888999892E89AC016E8182E11FDDD4
:1044600088E1F5DC877089838C899D89892B29F007
:104470008C899D892981FC0120838F81882F90E080
:1044800088709927892B11F082E05AC08889998910
:10449000892B09F454C08A899B89892B09F44FC060
:1044A0008F89882309F44BC08A899B89FC0180810C
:1044B000813029F48981843011F48FEF41C08A89D9
:1044C0009B89FC018081823018F08981882311F05A
:1044D00087E036C08A899B89FC0180816EEF680F76
:1044E0009E01275F3F4F88899989A9019FDD8887B1
:1044F0008885882311F0888523C08A899B89FC01DF
:104500008081882F90E0029728893989820F931F34
:10451000FC0190818985981781F48A899B89FC0127
:104520008081882F90E0019728893989820F931F15
:10453000FC0190818A85981711F087E001C080E026
:1045400067960FB6F894DEBF0FBECDBFDF91CF9157
:104550001F910F91FF90EF90DF90CF90AF908F90D1
:104560000895CF93DF9300D01F92CDB7DEB79A8323
:1045700089837C836B832B813C8189819A81A9010A
:10458000BC0186E207D00F900F900F900F90DF9143
:10459000CF910895CF92EF920F931F93CF93DF9314
:1045A000CDB7DEB727970FB6F894DEBF0FBECDBFED
:1045B0008B837D836C835F834E838C819D81892B6C
:1045C00031F08E819F81FC018081823010F484E083
:1045D00025C060E88CE112DD87E08A83BE016E5F52
:1045E0007F4F2E813F814C815D81CE010396C12C8E
:1045F000E12C8B0161E057DE89838981882311F0EA
:1046000089810CC08E819F81FC018081823019F4E8
:104610008A81882311F081E001C080E027960FB6DF
:10462000F894DEBF0FBECDBFDF91CF911F910F91E8
:10463000EF90CF900895CF92EF920F931F93CF9367
:10464000DF93CDB7DEB76F970FB6F894DEBF0FBE1E
:10465000CDBF9E8F8D8F6F8F81E08C838F8D813545
:1046600010F086E020C260E88CE1C8DC19820CC240
:104670008C81882F90E082309105C1F083309105C4
:1046800049F1019769F583E98A8B1F828F8D882311
:1046900049F08D8D9E8DFC018081853018F081E080
:1046A00090E002C080E090E08B831CC085E98A8B9B
:1046B00083E08F838F8D882349F08D8D9E8DFC0143
:1046C0008081883018F081E090E002C080E090E0C6
:1046D0008B8308C087E98A8B86E08F831B8202C0A8
:1046E00085E0E1C19F8180E0891B880F880F880FDA
:1046F000982F8F8D890F8887888588230CF41886DA
:1047000082E08E838B81882371F08E8191E0980FF7
:104710009E83882F90E09E012E5E3F4F820F931F55
:1047200028E8FC012083888588230CF4895F85951F
:1047300085958595282F8885982F977081E09923F6
:1047400009F480E0820F8C878C85882399F18B8116
:10475000882311F083E001C084E08E879C858E85DC
:10476000891710F48E858C871D8220C08E8191E080
:10477000980F9E83882F90E02F81422F50E02D814B
:10478000222F30E0240F351F4D8D5E8D240F351FF5
:104790002F5F3F4FF90140819E012E5E3F4F820FF8
:1047A000931FFC0140838D818F5F8D839D818C855C
:1047B0009817E0F28B81882319F08885885F8887B5
:1047C0001A82E9C0888580322CF180E78B8B9C8926
:1047D0008D8998278E8998278F898927888FCE0180
:1047E00042969C01295F3F4FCE014296A90167E0A6
:1047F0001DDC8F878F85882311F08F8554C11B8E18
:1048000089E08987CE01429606969B878A8783E056
:104810008C8F33C08885877888231CF48150886FFB
:104820008F5F8B8F888588230CF4895F85958595AC
:1048300085958D838D818E5F8E838E81982F929545
:10484000907F8B8D890F8B8B9B8D81E0992309F451
:1048500080E0982F8E81890F89878E81882F90E044
:104860009E012E5E3F4F820F931F9B878A8799E0A0
:104870008E81F92FF81B8F2F8C8F8B8D888B8889D9
:10488000982F9295907F8B8D890F682F8AE17CDA23
:10489000BE01655E7F4F9E01245E3F4F4A855B856A
:1048A000CE014296C12CE8888B016985FCDC8F879C
:1048B0008F85823009F062C08CE1C9DA898B8989E1
:1048C000882F90E080729927892B11F082E0EBC04D
:1048D00089898F718D878D85882311F480E28D877A
:1048E0008D85282F30E08885082E000C990B8217C3
:1048F000930714F085E0D7C08D8588878885082EBA
:10490000000C990B019787709078992324F40197F4
:10491000886F9F6F01968D83888588230CF4895F4B
:10492000859585958595282F81E09D81992309F4AA
:1049300080E0820F8F5F8E838E81882F90E02E81A2
:10494000222F30E0AE014E5E5F4F240F351FF9017C
:104950002081622F2D81422F50E021E030E002C003
:10496000220F331F4A95E2F7262B422F9E012E5E1F
:104970003F4F820F931FFC0140830DC08F8588231A
:1049800011F08F8590C0888580321CF081E08A8389
:1049900002C080E288878A81882309F413CF8C893A
:1049A000883811F483E001C082E08E838C898838D6
:1049B00011F483E001C084E08C871D821FC08F81C9
:1049C000282F30E08D81882F90E0820F931F2E8159
:1049D00031E0320F3E83222F30E0AE014E5E5F4F5A
:1049E000240F351FF90140812D8D3E8D820F931FBD
:1049F0000196FC0140838D818F5F8D839D818C8525
:104A00009817E8F28C8D833019F48B8D882311F080
:104A100081E049C0CE0142969C012E5F3F4F8A85BE
:104A20009B85A90161E002DB8F878F85882311F0C8
:104A30008F8539C02C898A859B850196FC018081F0
:104A4000281741F42D898A859B850296FC01808177
:104A5000281711F087E027C08A859B85FC0180819B
:104A6000882F90E084709927892B21F08C818F5FAB
:104A70008C830AC081E089838A859B85FC01208123
:104A80008D8D9E8DFC0123878981882309F4F0CDCB
:104A90009C81892F880F890F21E0280F8D8D9E8D95
:104AA000FC01208380E06F960FB6F894DEBF0FBE46
:104AB000CDBFDF91CF911F910F91EF90CF900895CF
:104AC0008F92AF92CF92DF92EF92FF920F931F934C
:104AD000CF93DF93CDB7DEB765970FB6F894DEBFFF
:104AE0000FBECDBF888B698B5B8B4A8B3D8B2C8B2C
:104AF00080E18B8388898C8389898D83198217C093
:104B00008981882F90E002962981222F30E04A89FE
:104B10005B89240F351FF90140819E012C5F3F4FB7
:104B2000820F931FFC01408389818F5F8983898174
:104B3000863030F31A8223C08A81882F90E008964D
:104B40002A81422F50E02C893D89F9012081222FB2
:104B500030E0240F351F245031094C895D89240F22
:104B6000351F2F5F3F4FF90140819E012C5F3F4F62
:104B7000820F931FFC0140838A818F5F8A838A8121
:104B80008430D0F2CE010496812CA12CC12CD12CE2
:104B9000E12CF12C00E010E02CE0AC016B818EE008
:104BA000C4DB65960FB6F894DEBF0FBECDBFDF91B4
:104BB000CF911F910F91FF90EF90DF90CF90AF902A
:104BC0008F900895CF92EF920F931F93CF93DF931F
:104BD00000D000D0CDB7DEB78A837C836B835E8341
:104BE0004D838B819C81892B31F08D819E81FC01CD
:104BF0008081823110F484E028C08B819C8120E385
:104C0000FC0120838B819C8101962A81FC012083F9
:104C10008B819C819C012E5F3F4F8B819C81A901E0
:104C200062E004DA89838981882311F089810DC0CB
:104C30002D813E814B815C818B819C81CC24C394EE
:104C4000E12C00E010E064E02EDB26960FB6F8942D
:104C5000DEBF0FBECDBFDF91CF911F910F91EF90BF
:104C6000CF900895CF93DF931F92CDB7DEB789839E
:104C700089818F7789838981882F90E0092E000CA4
:104C8000AA0BBB0B40E050E020E430E0841B950B06
:104C900028173907C8F0FC018827EE57FF4F8F4FC0
:104CA0000C94E3388FEF11C083E00FC084E00DC097
:104CB00085E00BC086E009C087E007C088E005C03A
:104CC00081E003C082E001C080E00F90DF91CF91CE
:104CD0000895CF93DF93CDB7DEB7CA54D1090FB68D
:104CE000F894DEBF0FBECDBF9DAF8CAF7FAF6EAF70
:104CF000CE01805C9F4FFC014083CE01805C9F4FC2
:104D0000FC018081803268F484E08A83CE01805C7B
:104D10009F4FFC0190818A81989F802D1124898367
:104D20001AC0CE01805C9F4FFC018081883290F4D4
:104D300080E18A83CE01805C9F4FFC018081882FB7
:104D400090E08097982F8A81989F802D1124805819
:104D5000898301C07CC181E08B838A8181508D83EE
:104D600071C18D819981890F8F838B81882369F02F
:104D70002CAD3DAD8EAD9FADAC01698180E6A0DE6E
:104D800088878885882309F062C182E189A79E010E
:104D9000275D3F4FCE018A96A901BC018F8112DFAA
:104DA00088878885882309F04AC11E8203C08E81C6
:104DB0008F5F8E838E818031D0F38B81882309F4BD
:104DC000A4C089A982958F7089878AA98F708A87E4
:104DD0008AA982958F708B8788A98F708C8788A904
:104DE00082958F708D8789A98F708E878985282FEE
:104DF00030E08C85882F90E0809590958F70992772
:104E000028173907D1F48A85282F30E08D85882F1F
:104E100090E0809590958F7099272817390769F44D
:104E20008B85282F30E08E85882F90E08095909597
:104E30008F7099272817390719F081E090E002C098
:104E400080E090E08F878985882F90E08170992796
:104E5000880F991F880F991F282F8A85882F90E027
:104E600081709927880F991F922F982B8B858170BD
:104E7000892B8DA38985882F90E082709927880FD0
:104E8000991F982F8A858270292F282B8B85882F30
:104E900090E08270992795958795822B8EA38985BE
:104EA000282F24708A85882F90E084709927959503
:104EB0008795282B8B85882F90E08470992795956E
:104EC000879595958795822B8FA38985882F90E06C
:104ED0008870992795958795282F8A85882F90E047
:104EE000887099279595879595958795282B8B851B
:104EF000882F90E088709927959587959595879547
:104F000095958795822B88A71B828A81843029F406
:104F10008D818C8381E0888B26C08D8197E6890204
:104F2000912D11249595880F880BF92FF81B8F2F41
:104F30008C838C81833089F08C81282F30E08D81A7
:104F4000082E000C990B019645E050E0BA010E9432
:104F50009238CB012817390719F081E090E002C0A0
:104F600080E090E0888B8C81833009F468C08C816C
:104F7000882F90E09E012B5D3F4F820F931FFC0115
:104F80008081813069F08C81882F90E09E012B5DBB
:104F90003F4F820F931FFC018081863009F04FC084
:104FA0008DA5882F90E0A0E0B0E0898B9A8BAB8B29
:104FB000BC8B8CA5882F90E0A0E0B0E08D8B9E8B01
:104FC000AF8BB88F8BA5882F90E0A0E0B0E0898FE1
:104FD0009A8FAB8FBC8F8AA5882F90E0A0E0B0E0BD
:104FE0008D8F9E8FAF8FB8A389899A89AB89BC8931
:104FF000582F4427332722278D899E89AF89B88D62
:10500000DC0199278827282B392B4A2B5B2B898D8C
:105010009A8DAB8DBC8DBA2FA92F982F8827282B5E
:10502000392B4A2B5B2B8D8D9E8DAF8DB8A1822B9A
:10503000932BA42BB52B89A39AA3ABA3BCA38D81DF
:1050400081508D838D8188230CF08BCE0000C65B50
:10505000DF4F0FB6F894DEBF0FBECDBFDF91CF910B
:105060000895CF93DF9300D01F92CDB7DEB782E0D3
:105070008C839E012C5F3F4FCE010296B90171DAFD
:1050800089838981882319F08981823019F481E02C
:1050900090E002C080E090E00F900F900F900F9092
:1050A000DF91CF910895CF93DF931F92CDB7DEB7F5
:1050B00060E081E894E0BFDA898381E099819923F7
:1050C00009F080E00F90DF91CF910895CF93DF93A7
:1050D000CDB7DEB784E290E024E230E0F901208130
:1050E0002760FC0120838CE490E02CE430E0F9019F
:1050F00020812165FC01208381E290E021E230E003
:10510000F90120812260FC012083DF91CF91089575
:10511000CF93DF931F92CDB7DEB789838EE490E003
:105120002981FC01208300008DE490E0FC01808156
:105130008823D4F78EE490E0FC0180810F90DF910A
:10514000CF910895CF93DF93CDB7DEB780913D0324
:1051500090913E03892B31F080913D0390913E0365
:10516000FC011995DF91CF910895CF93DF931F92A2
:10517000CDB7DEB7198234C08981282F30E042E4F0
:10518000429FC001439F900D11248E559B4FFC01FF
:1051900010821182128213828981282F30E042E42A
:1051A000429FC001439F900D112484569B4FFC01E8
:1051B000118210828981282F30E042E4429FC00191
:1051C000439F900D11248A569B4FFC018081882FAC
:1051D00090E0805C9C4FFC01108289818F5F898305
:1051E0008981883048F28FEF809304020F90DF911D
:1051F000CF910895EF92FF920F931F93CF93DF9378
:10520000CDB7DEB7EE970FB6F894DEBF0FBECDBFB9
:1052100098A78FA37AA769A789A59AA5CC01A0E032
:10522000B0E0BC01CD010E946A37DC01CB0120E077
:1052300030E048EC52E4BC01CD010E94D136DC01E3
:10524000CB012FA138A5F90184879587A687B78759
:105250008FA198A5FC0184859585A685B78520E05A
:1052600030E040E051E4BC01CD010E942038DC0177
:10527000CB01BC01CD010E943937DC01CB019A8FF3
:10528000898F8FA198A5FC01828189838FA198A520
:10529000FC018281882F90E08C33910509F477C15D
:1052A0008D33910564F4813091050CF44FC28D303B
:1052B0009105CCF0C297039708F048C2C5C0843668
:1052C000910509F484C1853691052CF48136910548
:1052D0000CF43CC29CC18B3C910509F498C18C3CF8
:1052E000910509F033C289818C3C11F488E08983EF
:1052F0008981815089838981882F90E08A5F984FC6
:10530000FC018081880F8B8F82E08A838981882FBE
:1053100090E0880F991F8651994FFC0180819181FF
:105320009D8F8C8F8C8D9D8DFC01808191819C83C4
:105330008B838C8D9D8DFC01828193819E838D83D7
:1053400072C08A8191E0980F9A83882F90E0880F2D
:10535000991F2C8D3D8D820F931FFC0180819181BF
:1053600098878F838A8191E0980F9A83882F90E0A5
:10537000880F991F2C8D3D8D820F931FFC0180811A
:1053800091819F8F8E8F2E8D3F8D898D9A8D2817BD
:1053900039070CF040C02D813E81898D9A8DA9017D
:1053A000481B590BCA019C01990F440B550B6B818B
:1053B0007C818F819885FB01E81BF90BCF01092EB9
:1053C000000CAA0BBB0BBC01CD010E9483387B01F2
:1053D0008C012D813E818E8D9F8DA901481B590B1B
:1053E000CA019C01990F440B550BC801B7010E94DB
:1053F000C738DA01C9019C018B819C81F901E81B46
:10540000F90BCF018450904F9C018FA198A5FC010E
:10541000378326839BC18E8D9F8D9E838D838F8145
:1054200098859C838B839A818B8D981708F489CFFC
:105430002CEF3FE08F819885281B390B8FA198A511
:10544000FC013783268382C189818E5289838981B9
:10545000882F90E08A5F984FFC018081880F88A395
:1054600082E089878981882F90E0880F991F865173
:10547000994FFC01808191819AA389A389A19AA166
:10548000FC01808191819B878A8789A19AA1FC0177
:10549000828193819D878C876DC0898591E0980F6B
:1054A0009987882F90E0880F991F29A13AA1820F30
:1054B000931FFC01808191819F878E87898591E070
:1054C000980F9987882F90E0880F991F29A13AA1FA
:1054D000820F931FFC01808191819CA38BA32BA140
:1054E0003CA1898D9A8D82179307E4F52C853D8523
:1054F000898D9A8DA901481B590BCA019C01990FEE
:10550000440B550B6A857B858E859F85FB01E81BC7
:10551000F90BCF01092E000CAA0BBB0BBC01CD016E
:105520000E9483387B018C012C853D858BA19CA139
:10553000A901481B590BCA019C01990F440B550B3B
:10554000C801B7010E94C738DA01C9019C018A85E8
:105550009B85820F931F9C018FA198A5FC01378327
:105560002683F4C08BA19CA19D878C878E859F8507
:105570009B878A87998588A1981708F48ECF8FA179
:1055800098A52E853F85FC0137832683DFC0898D52
:105590009A8D092E000CAA0BBB0B072E7CE0880FFE
:1055A000991FAA1FBB1F7A95D1F7702D28EE33E003
:1055B00040E050E0BC01CD010E94C738DA01C901CA
:1055C0009C018FA198A5FC0137832683BFC0898DDC
:1055D0009A8D092E000CAA0BBB0B072E7CE0880FBE
:1055E000991FAA1FBB1F7A95D1F7702D24EF31E0C8
:1055F00040E050E0BC01CD010E94C738DA01C9018A
:105600009C018FA198A5FC01378326839FC08981C7
:105610008B3C11F481E6898382E0888B8981813615
:1056200021F48AE696E09A8B898B89899A89FC0114
:10563000808191819C8B8B8B89899A89FC018281E5
:1056400093819E8B8D8B72C0888991E0980F988B87
:10565000882F90E0880F991F29893A89820F931F1C
:10566000FC0180819181988F8F8B888991E0980FC0
:10567000988B882F90E0880F991F29893A89820F8B
:10568000931FFC01808191819EA38DA32DA13EA13A
:10569000898D9A8D281739070CF040C02D893E89D5
:1056A000898D9A8DA901481B590BCA019C01990F3C
:1056B000440B550B6B897C898F89988DFB01E81B06
:1056C000F90BCF01092E000CAA0BBB0BBC01CD01BD
:1056D0000E9483387B018C012D893E898DA19EA17A
:1056E000A901481B590BCA019C01990F440B550B8A
:1056F000C801B7010E94C738DA01C9019C018B8932
:105700009C89F901E81BF90BCF018450904F9C0153
:105710008FA198A5FC013783268318C08DA19EA177
:105720009E8B8D8B8F89988D9C8B8B8B88898234F7
:1057300008F48ACF2CEF3FE08F89988D281B390B16
:105740008FA198A5FC01378326830000EE960FB643
:10575000F894DEBF0FBECDBFDF91CF911F910F91A7
:10576000FF90EF900895CF93DF93CDB7DEB76097AA
:105770000FB6F894DEBF0FBECDBF87E091E027E003
:1057800031E0F90120812062FC01208388E091E072
:1057900028E031E0F90120812F7DFC01208387E0A2
:1057A00091E027E031E0F90120812860FC012083AD
:1057B00088E091E028E031E0F9012081277FFC01B9
:1057C000208387E091E027E031E0F90120812F7EFE
:1057D000FC01208388E091E028E031E0F90120819C
:1057E0002F7EFC01208387E091E027E031E0F90182
:1057F00020812460FC01208388E091E028E031E0F2
:10580000F90120812B7FFC0120831A8219824AC072
:1058100089810E944E3629813A814FE0429FC00122
:10582000439F900D11248B50994FFC0111821082DF
:1058300029813A814FE0429FC001439F900D11247E
:105840008550994FFC011182108229813A814FE0E5
:10585000429FC001439F900D11248950994FFC0134
:105860001182108229813A814FE0429FC001439FFB
:10587000900D11248150994FFC01108229813A81A9
:105880004FE0429FC001439F900D11248050994FDB
:10589000FC01108211821282138289819A81019601
:1058A0009A83898389819A8102970CF4B1CF88E029
:1058B00091E028E031E0F90120812B7FFC01208379
:1058C00080E090E0A0E2B1E48B839C83AD83BE8353
:1058D00020E030E04AE755E46B817C818D819E8138
:1058E0000E942038DC01CB018F839887A987BA8773
:1058F00020E030E040E85FE36F81788589859A8514
:105900000E94CD3688232CF481E090E09C878B8721
:105910003FC020E03FEF4FE757E46F8178858985EE
:105920009A850E941C3818164CF520E030E040E2C1
:1059300051E46B817C818D819E810E942038DC0145
:10594000CB01BC01CD010E943E37DC01CB019C871D
:105950008B870FC080E991E09E878D878D859E851E
:105960000197F1F79E878D878B859C8501979C8792
:105970008B878B859C85892B69F714C06F8178850F
:1059800089859A850E943E37DC01CB019C878B87F5
:105990008B859C85988B8F878F8598890197F1F7E8
:1059A000988B8F8788E091E028E031E0F901208131
:1059B0002460FC01208388E091E028E031E0F901D7
:1059C00020812F7DFC01208360960FB6F894DEBF06
:1059D0000FBECDBFDF91CF9108950F931F93CF934B
:1059E000DF93CDB7DEB7C155D1090FB6F894DEBF4E
:1059F0000FBECDBF19821CC288E091E028E031E0E3
:105A0000F90120812860FC01208380E090E0A0E083
:105A1000B0E48A839B83AC83BD832BEA3AEA4AEAEB
:105A200050E46A817B818C819D810E942038DC0159
:105A3000CB018E839F83A887B98720E030E040E8C0
:105A400050E46A817B818C819D810E942038DC0139
:105A5000CB018A879B87AC87BD8720E030E040E898
:105A60005FE36E817F81888599850E94CD3688238A
:105A70001CF481E08E87B6C020E03FEF4FE757E48B
:105A80006A857B858C859D850E941C3818160CF0D4
:105A90007FC020E030E04AE754E46A817B818C815A
:105AA0009D810E94D136DC01CB018F87988BA98B19
:105AB000BA8B20E030E04AE755E46F857889898920
:105AC0009A890E942038DC01CB018B8B9C8BAD8B9B
:105AD000BE8B20E030E040E85FE36B897C898D89F4
